S315080000001004002069010008710100087301000846
S315080000107501000877010008790100080000000052
S315080000200000000000000000000000007B0100083E
S315080000307D010008000000007F010008F1050008A6
S315080000408301000883010008830100088301000872
S315080000508301000883010008830100088301000862
S315080000608301000883010008830100088301000852
S315080000708301000883010008830100088301000842
S315080000808301000883010008830100088301000832
S315080000908301000883010008830100088301000822
S315080000A08301000883010008830100088301000812
S315080000B08301000883010008830100088301000802
S315080000C083010008830100088301000883010008F2
S315080000D083010008830100088301000883010008E2
S315080000E0830100088301000883010008000000005E
S315080000F000000000000000000000000000000000F2
S3150800010000000000000000008301000883010008C9
S3150800011083010008830100088301000883010008A1
S315080001208301000883010008830100088301000891
S315080001308301000883010008830100088301000881
S315080001408301000883010008830100088301000871
S31508000150DFF810D000F01AF800480047FF0600083C
S31508000160AFF3008010040020064880470648004781
S31508000170FEE7FEE7FEE7FEE7FEE7FEE7FEE7FEE749
S31508000180FEE7FEE76506000851010008064C074D24
S3150800019006E0E06840F0010394E807009847103449
S315080001A0AC42F6D3FFF7D8FF0C0700082C07000867
S315080001B008B50121042000F06DF90820ADF800000B
S315080001C010208DF8030003208DF8020069460348C5
S315080001D000F00EF800F004F808BD00000008014021
S315080001E010B50821014800F08EF810BD000801403E
S315080001F02DE9F041024600250026002000230024B0
S31508000200002791F803C00CF00F0591F803C00CF015
S31508000210100CBCF1000F03D091F802C04CEA05059A
S3150800022091F800C0BCF1000F31D0146800202BE013
S315080002304FF0010C0CFA00F3B1F800C00CEA030603
S315080002409E4220D183004FF00F0C0CFA03F7BC43F3
S3150800025005FA03FC4CEA040491F803C0BCF1280F24
S3150800026006D14FF0010C0CFA00FCC2F814C00AE0E3
S3150800027091F803C0BCF1480F05D14FF0010C0CFAF8
S3150800028000FCC2F810C0401C0828D1D31460B1F88D
S3150800029000C0BCF1FF0F34DD546800202EE000F1E9
S315080002A0080C4FF0010808FA0CF3B1F800C00CEA84
S315080002B003069E4221D183004FF00F0C0CFA03F778
S315080002C0BC4305FA03FC4CEA040491F803C0BCF1EC
S315080002D0280F05D100F1080C08FA0CF8C2F81480AA
S315080002E091F803C0BCF1480F07D100F1080C4FF094
S315080002F0010808FA0CF8C2F81080401C0828CED36A
S315080003005460BDE8F081016170470AB1016100E0FF
S315080003104161704710B5012204210948FFF7F5FF2E
S31508000320012208210648FFF7F0FF012210210448A0
S31508000330FFF7EBFF012280210148FFF7E6FF10BD1A
S315080003400014014008B50121202000F0A3F89C20E4
S31508000350ADF8000010208DF8030003208DF8020088
S3150800036069460248FFF744FF08BD00000014014033
S3150800037010B5044634B1012C19D0022C2CD0032C0C
S3150800038054D13EE0002204213448FFF7BEFF012283
S3150800039008213248FFF7B9FF012210212F48FFF73D
S315080003A0B4FF012280212D48FFF7AFFF53E0012259
S315080003B004212A48FFF7A9FF002208212748FFF74A
S315080003C0A4FF012210212548FFF79FFF0122802163
S315080003D02248FFF79AFF3EE0012204211F48FFF753
S315080003E094FF012208211D48FFF78FFF00221021E4
S315080003F01A48FFF78AFF012280211848FFF785FF70
S3150800040029E0012204211548FFF77FFF0122082170
S315080004101248FFF77AFF012210211048FFF775FFEF
S31508000420002280210D48FFF770FF14E00122042105
S315080004300A48FFF76AFF012208210848FFF765FF07
S31508000440012210210548FFF760FF01228021034899
S31508000450FFF75BFF00BF00BF10BD0000001401409E
S3150800046070B5044600F0BEF8401C10B9FFF752FFFD
S3150800047070BD00F0B7F8611E054A32F81110B0FBDE
S31508000480F1F0C5B22846FFF773FF00BFF0E700009A
S315080004900000002029B1064A92690243044B9A617A
S315080004A004E0034A92698243014B9A61704700004F
S315080004B00010024010B500F001F810BD0CB5002080
S315080004C0019000903F48006840F480303D4908603C
S315080004D000BF3C48006800F4003000900198401CBA
S315080004E00190009818B90198B0F5A06FF1D1354878
S315080004F0006800F4003010B10120009001E00020EF
S315080005000090009801285CD12F48006840F0100040
S315080005102D4908600846006820F003000860084670
S31508000520006840F00200086026484068254948608F
S315080005300846406848600846406840F4806048605D
S315080005400846C06A214908401E49C8620846C06A6A
S315080005501F4908431B49C8620846006840F0806086
S31508000560086000BF1748006800F000600028F9D04E
S315080005701448406820F47C101249486008464068D0
S3150800058040F4E81048600846006840F0807008604B
S3150800059000BF0C48006800F000700028F9D0094830
S315080005A0406820F00300074948600846406840F064
S315080005B00200486000BF0348406800F00C000828A5
S315080005C0F9D10CBD001002400020024000F0FEFFE9
S315080005D0440601004FF0FF300149086070470000EB
S315080005E00800002001480068704700000800002045
S315080005F004480068401C20B102480068401C0149B4
S31508000600086070470800002030B51349B1F1807FB3
S3150800061000D31DE021F07F40401E4FF0E0225061DC
S3150800062050170F22002807DA13071D0E0B4B00F090
S315080006300F04241F1D5503E013071C0E084B1C54FA
S3150800064000BF00204FF0E02290610720106100BF34
S31508000650FFF7C0FF30BD00004019010018ED00E0AB
S3150800066000E400E010B51648006840F0010014499F
S31508000670086008464068134908401149486008461A
S315080006800068114908400E4908600846006820F4C9
S31508000690802008600846406820F4FE004860084646
S315080006A0006820F0A05008604FF47F0088600020A2
S315080006B0C862FFF7FFFE4FF000600449086010BDEE
S315080006C0001002400000FFF0FFFFF6FE08ED00E014
S315080006D002E008C8121F08C1002AFAD170477047FD
S315080006E0002001E001C1121F002AFBD1704710B596
S315080006F0FFF78AFFFFF726FEFFF75AFD10BDFFF743
S31508000700F6FF02E00020FFF7ABFEFBE72C07000828
S31508000710000000200C000000D0060008380700087A
S315080007200C00002004040000E0060008E803F401B9
S30D080007302C01C80000000000BE
S70508000151A0
