:020000040800F2
:10000000D8140020490100085101000853010008DC
:1000100055010008570100085901000800000000C0
:100020000000000000000000000000005B0100086C
:100030005D01000800000000BB010008351B00083E
:100040006301000863010008630100086301000800
:1000500063010008630100086301000863010008F0
:1000600063010008630100086301000863010008E0
:1000700063010008630100086301000863010008D0
:1000800063010008630100086301000863010008C0
:1000900063010008630100086301000863010008B0
:1000A00063010008630100086301000863010008A0
:1000B0006301000863010008630100086301000890
:1000C0006301000863010008630100086301000880
:1000D0006301000863010008630100086301000870
:1000E0006301000863010008630100086301000860
:1000F0006301000863010008630100086301000850
:10010000630100086301000863010008630100083F
:10011000B5210008630100086301000863010008BD
:10012000630100086301000863010008630100081F
:10013000DFF810D000F074F800480047E925000807
:10014000AFF30080D81400200648804706480047D7
:10015000FEE7FEE7FEE7FEE7FEE7FEE7FEE7FEE777
:10016000FEE7FEE7511B000831010008EFF31080A5
:1001700072B6704780F310887047204C204D256080
:100180004FF0000484F309881E4C4FF001052570E0
:100190001D4C4FF08055256062B6FEE730B41A4C16
:1001A0004FF08055256030BC704730B4164C4FF08E
:1001B0008055256030BC704700BF72B6EFF30980F0
:1001C00028B1203880E8F00F10490968086000B5B0
:1001D0000F4880475DF804EB0E480F490A7802701B
:1001E0000A480E490A680260106890E8F00F203053
:1001F00080F309884EF0040E62B6704720ED00E0EF
:100200000000FFFF5200002004ED00E05800002035
:10021000A50C0008470000204800002060000020D6
:10022000064C074D06E0E06840F0010394E8070043
:1002300098471034AC42F6D3FFF77EFFD82700086A
:10024000F827000808B50121082001F061FB4FF4F0
:100250008070ADF8000010208DF8030003208DF8A9
:1002600002006946044800F009F84FF48071024822
:1002700000F0D8F808BD0000000C01402DE9F04165
:10028000024600250026002000230024002791F8C4
:1002900003C00CF00F0591F803C00CF0100CBCF17A
:1002A000000F03D091F802C04CEA050591F800C098
:1002B000BCF1000F31D0146800202BE04FF0010C8E
:1002C0000CFA00F3B1F800C00CEA03069E4220D1FC
:1002D00083004FF00F0C0CFA03F7BC4305FA03FC44
:1002E0004CEA040491F803C0BCF1280F06D14FF08A
:1002F000010C0CFA00FCC2F814C00AE091F803C02B
:10030000BCF1480F05D14FF0010C0CFA00FCC2F80B
:1003100010C0401C0828D1D31460B1F800C0BCF153
:10032000FF0F34DD546800202EE000F1080C4FF080
:10033000010808FA0CF3B1F800C00CEA03069E426B
:1003400021D183004FF00F0C0CFA03F7BC4305FAE0
:1003500003FC4CEA040491F803C0BCF1280F05D15A
:1003600000F1080C08FA0CF8C2F8148091F803C0E8
:10037000BCF1480F07D100F1080C4FF0010808FA52
:100380000CF8C2F81080401C0828CED35460BDE899
:10039000F0810000F0B50A4600230024002100256A
:1003A00000F00046B6F1004F02D11D4EF16901E0A8
:1003B0001B4E7168C0F3034583B200F44016B6F5D6
:1003C000401F08D121F07061154E766826F07066E6
:1003D000134F7E6012E000F48016B6F5801F06D140
:1003E000032606FA05F4A14341F0706106E0460DCC
:1003F000360103FA06F6B14341F0706122B1460DB1
:10040000360103FA06F6314300F00046B6F1004F1C
:1004100002D1034EF16101E0014E7160F0BD0000B8
:10042000000001404161704708B50121082001F03A
:100430006FFA0121084601F06BFA01210648FFF727
:10044000A9FF1820ADF8000048208DF80300694688
:100450000248FFF713FF08BD00023000000C014006
:1004600008B50121342001F053FA0420ADF8000052
:1004700010208DF8030003208DF8020069460F4814
:10048000FFF7FCFE4FF41040ADF8000069460C4841
:10049000FFF7F4FE4FF48050ADF8000069460948BC
:1004A000FFF7ECFE0020084908600849C1F8BC01CC
:1004B000074908600749C1F8880108BD00140140D8
:1004C0000008014000100140B0012142000021421B
:1004D000B00122420080224270B5002100230F2289
:1004E000C47804B3154C246804F4E064C4F5E064F3
:1004F000210AC1F10403CA40447804FA03F1847864
:100500001440214309010E4C0678A155047804F0EB
:100510001F050124AC4005786D11AD0005F1E02503
:10052000C5F8004109E0047804F01F050124AC403F
:10053000044D0678761145F8264070BD0CED00E0BC
:1005400000E400E080E100E010B500F015F800F0F4
:100550008DFE00F0B5FE00F0D5FE00F05DFE00F06F
:100560002FFE00F069FF00F00DFF00F033FF00F0F8
:1005700067FC00F007F810BD0020014908807047B3
:100580008C0000207047000006480078012808D140
:1005900005480078FF2804D203480078401C02492F
:1005A00008707047520000204500002010B500245C
:1005B0001A480078012830D1FFF7D8FD04461848C2
:1005C000007820B116480078401E1549087014487C
:1005D0000078F8B913480078E0B900F08FFF1248AE
:1005E0001249097850F82100114908600F48007835
:1005F0001049097888420DD00D480068806B401C76
:100600000B49096888630C480068401C0A49086067
:10061000FFF7CBFD2046FFF7ADFD10BD52000020D7
:100620004500002046000020AC05002048000020C6
:1006300060000020470000202C00002010B500249E
:100640000B480078012811D1FFF790FD04460948B6
:10065000007840B908480078FF2804D2064800789E
:10066000401C054908702046FFF784FD10BD0000BE
:1006700052000020450000204600002010B5002454
:1006800013480078012821D1FFF770FD0446114876
:100690000078C0B10F480078401E0E490870084627
:1006A000007860B90C48007828B92046FFF762FD51
:1006B00000F0EAFE0AE02046FFF75CFD06E0204677
:1006C000FFF758FD02E02046FFF754FD10BD000083
:1006D00052000020460000204500002070B505466D
:1006E00000260F48007808B1002070BDFFF73EFDDE
:1006F00006460C480468006820B10A480068406853
:10070000084908603046FFF735FD3CB103202070F2
:10071000258100206060204600F044FD2046E4E78B
:1007200045000020300000202DE9F04105460E462E
:10073000144600272878032803D001202070BDE844
:10074000F0813148007810B102202070F7E72F487F
:10075000007810B10D202070F1E7FFF707FD074684
:10076000288940B12889401E28813846FFF702FDBC
:1007700000202070E3E72648006890F8300040F041
:1007800001002349096881F83000002020490968E8
:1007900081F831001E480068C662284600F0C4FC9B
:1007A0003846FFF7E7FC00F06FFEFFF7DFFC074677
:1007B0001748006890F8310020B1012809D00228BC
:1007C00006D102E0002020700BE00E20207008E02F
:1007D00000BF29460E48006800F090FC0A202070F7
:1007E00000BF00BF00200A49096881F830000849AD
:1007F000096881F8310006490968C8613846FFF781
:10080000B9FC00BF9BE70000450000204600002027
:100810005800002070B5044600252078032801D038
:10082000012070BDFFF7A2FC0546A07A60B100234D
:1008300001221946204600F01FFC2846FFF79AFCCB
:1008400000F022FE0020ECE720894FF6FF7188427D
:1008500007D22089401C20812846FFF78BFC00200E
:10086000DFE72846FFF786FC3320DAE710B50B48B0
:10087000007890B900F042FE0948007809490870F4
:1008800009480749097850F82100084908600846D6
:10089000006807490860FFF770FC10BD5200002097
:1008A0004800002047000020AC0500206000002028
:1008B0005800002010B50024022000F0F5F9FFF7E1
:1008C00055FC044600200B4908602046FFF752FC07
:1008D000642000F0E9F9FFF749FC04460548006888
:1008E000054908600120054908702046FFF742FCD1
:1008F00010BD0000540000203C00002044000020F7
:10090000704700002DE9FE4F06460F4690461C46F4
:100910004FF00009FFF72AFC81461F48007828B1F4
:100920004846FFF727FC3C20BDE8FE8F1B4850F8E7
:10093000240060BB0120194941F824004846FFF714
:1009400019FC002342463946304600F009F9824638
:100950000020009001900346024651460290204636
:1009600000F0E2FD054635B90D48007801280CD1AC
:1009700000F08AFD09E0FFF7F9FB814600200749F6
:1009800041F824004846FFF7F5FB2846CCE74846E7
:10099000FFF7F0FB2820C7E745000020AC0500204A
:1009A000520000202DE9F04F85B081468A469346DB
:1009B0001C46DDE90F78129D00200390FFF7D6FB5F
:1009C00003902348007830B10398FFF7D3FB3C2015
:1009D00005B0BDE8F08F1F4850F8240088BB012007
:1009E0001C4941F824000398FFF7C4FB2A464146FE
:1009F000384600F0A9FE2B465A465146484600F0BC
:100A0000AFF804901198CDE9008002953A4620464F
:100A10000E9B049900F088FD064636B90E48007812
:100A200001280CD100F030FD09E0FFF79FFB039097
:100A30000020084941F824000398FFF79BFB30464B
:100A4000C6E7FFE70398FFF795FB2820C0E7000003
:100A500045000020AC050020520000207047704780
:100A60002DE9F04106460F4614464FF000081548A0
:100A7000007818B112202070BDE8F081FFF776FBF6
:100A80008046FF2E03D11048006890F832600F486E
:100A900050F826502DB94046FFF76CFB43202070DC
:100AA000EAE7012D05D14046FFF764FB43202070A3
:100AB000E2E7EF644046FFF75DFB0020207000BFD7
:100AC000DAE700004500002058000020AC050020B7
:100AD000704700002DE9F04707460D464FF0000A29
:100AE000002028606860FFF741FB8246FF2F03D19A
:100AF0001948006890F83270184850F827402CB90F
:100B00005046FFF737FB4320BDE8F087012C04D1A6
:100B10005046FFF72FFB4320F6E7207C00F0010052
:100B200020B95046FFF726FB4520EDE70026D4F814
:100B30000C90D4F808805046FFF71CFB00E0761CB0
:100B400058F8041B0029FAD0B0002860A9EB060071
:100B5000800068600020D7E758000020AC05002026
:100B600070B5044610464FF080750560051F284695
:100B70002C606FF00106051F28462E604FF01236DC
:100B8000051F28462E604FF00336051F28462E60AD
:100B90004FF00236051F28462E607610051F2846A6
:100BA0002E60051F284629604FF01136051F284684
:100BB0002E604FF01036051F28462E604FF0093684
:100BC000051F28462E604FF00836051F28462E6068
:100BD0004FF00736051F28462E604FF00636051FDA
:100BE00028462E604FF00536051F28462E604FF030
:100BF0000436051F28462E6070BD00002DE9F04127
:100C000005464FF00008FFF7B1FA8046FF2D05D1E9
:100C10002048006890F83250012608E01D4800681E
:100C200090F83200A84201D1012600E000261A48BF
:100C300050F825402CB94046FFF79CFA4820BDE803
:100C4000F081012C04D14046FFF794FA4320F6E7E7
:100C500094F834701148C05D94F8351088430F49FA
:100C6000C8550846C05D30B994F836100C48007875
:100C700088430B49087094F8300040F0080084F86D
:100C800030004046FFF776FA012E01D100F0FCFB60
:100C90000020D4E758000020AC0500204A000020C6
:100CA000490000207047000070B50546002617482F
:100CB000007800B170BD1648007800B1FAE71DB3A6
:100CC000FFF754FA06461348006890F8344012487B
:100CD000005D1049096891F8351088430E490855A0
:100CE0000846005D40B90B48006890F836100B4884
:100CF000007888430949087006480068C562304694
:100D0000FFF738FA00F0C0FB00BFD3E74500002032
:100D100046000020580000204A0000204900002022
:100D200070B5002600F072F8FFF720FA0646314849
:100D30000068401C2F4908603046FFF71BFA2E4818
:100D40000078012853D12D48007820B1012804D023
:100D5000022809D103E001250BE0002509E0012567
:100D600001202649087004E001250020234908706D
:100D700000BF00BF05B970BD2148046833E0FFF72C
:100D8000F5F90646E06A50B3E06A401EE062E06AA8
:100D900028BB94F8300000F0370040B114F8300F51
:100DA00000F0C800207001206070303C02E000209C
:100DB00084F8310094F8300000F0080078B9343439
:100DC000A0781049097808430E49087020780E4928
:100DD000085C6178084314F834190B4A505464696C
:100DE0003046FFF7C7F994F832003F28C7D100BF5B
:100DF000C1E70000700000205200002068000020C1
:100E000064000020490000204A00002010B5064878
:100E10000088401C044908800846008818B100205A
:100E2000088000F003F810BD8C00002010B50348C6
:100E30000068FFF7EFFC0446204610BD800000204C
:100E40002DE9F0414FF42071224800F0EBFA4021E7
:100E5000214800F0E7FA002514E0681C86B205EB93
:100E600085001C4901EBC00406EB860001EBC007BE
:100E700064202070002084F82500E76017A020621D
:100E8000681C85B20F2DE8D305EB8500114901EBF5
:100E9000C00464202070002084F82500E0600FA0CA
:100EA000206200200E4908600E49088010200E497B
:100EB000088008480D4908600120FFF70FFC0C4925
:100EC00008600020FFF70AFC0A49086000F014F8E7
:100ED000BDE8F081140B0020940F00203F000000BB
:100EE000780000207600002074000020840000209C
:100EF0007C0000208000002000B587B00320002186
:100F000080220A4BCDE90132CDE903104FF6FD7086
:100F10000B46074A00900748FFF744FD06AA06A1C2
:100F20000020FFF79DFD07B000BD0000940D0020DC
:100F3000900F0020B50F000875432F4F532D4949DE
:100F400020546D720000000070B50B46032580F838
:100F50002550012B05D1154EC569366835444561CC
:100F60000CE085692DB9114EC56936683544456177
:100F700004E00E4E8569366835444561057D05F00F
:100F800007040B4D05EBC4010D682DB90860002561
:100F9000C56001258D8006E00A680860C2601061A6
:100FA0008D886D1C8D800025056170BD7800002046
:100FB000940F002008B500BF00BF6A4600211A4800
:100FC0000068FFF7B1FBFFF739FB18480068401CC9
:100FD000164908600846007800F00708144800EB3E
:100FE000C8073C681AE0E6681049606909688842E9
:100FF00013D1204600F01EF894F82400022804D1F2
:1010000001212046FFF7A0FF02E0022084F825001E
:10101000656815B12046A168A8473446002CE2D186
:10102000FFF72CFBC9E700008000002078000020BB
:10103000940F002030B5057D05F007040D4D05EB3C
:10104000C4031D68854205D1C168196039B1002506
:101050000D6104E00169C268CA6002B11161012535
:1010600080F825500025C56005619D886D1E9D8016
:1010700030BD0000940F00202DE9F04F05460F46CB
:1010800090469946A87A19490E5C05F10B00805DDF
:1010900011F800B00BEBC60000F0FF0A144850F83E
:1010A0002A4000202034E0602760207C20EA0800ED
:1010B000207484F81190207C203C00F0080068B96E
:1010C00094F836000B49097808430A4908700A4821
:1010D000805D94F835100843074988552946204615
:1010E00000F00CF85046BDE8F08F0000D82600084C
:1010F000AC050020490000204A00002010B590F8FF
:10110000342001F10B039B5C90F83540A34301F1BF
:101110000B04A35423469B5C23B98B7A90F836408A
:10112000A3438B7210BD000010B51B4A1268D0613A
:10113000194A126892F8343000F10B02D25C164B57
:101140001B6893F835301A43134B1B6893F83440EF
:1011500000F10B031A55827A0F4B1B6893F8363057
:101160001A4382720C4A126892F834100B4A525C8D
:10117000094B1B6893F835309A43084B5A541A466A
:10118000525C42B9044A126892F83630044A127826
:101190009A43034B1A7010BD580000204A000020EB
:1011A00049000020014600228A72002005E0002349
:1011B00001F10B021354421CD0B20828F7D3704738
:1011C0002DE9F0415021114800F02CF900250DE0E7
:1011D000681C86B20D4800EB051400EB06170020D2
:1011E000207067600AA0E060681C85B2042DEFD310
:1011F000064800EB051400202070606004A0E06049
:10120000024804490860BDE8F08100005C0100204C
:101210003F0000003400002070B5C821114800F0E4
:1012200001F900230FE0581C85B203EB83000D4940
:1012300001EB800405EB850001EB800600202070A7
:101240006660581C83B2092BEDD303EB830005497C
:1012500001EB8004002020706060084602490860AD
:1012600070BD0000940000203000002000200A49DA
:1012700008600A4908700A4908700A4908700A4952
:1012800008700A4908600A4908600A4908600A4962
:1012900008600A490870704770000020450000206F
:1012A0004600002053000020520000202C000020A7
:1012B00054000020400000203C000020440000209A
:1012C00000210A4A1170002004E00021084A11544C
:1012D000411CC8B20828F8D30021064A1170064AFA
:1012E0001170064A1160064A1160704749000020DB
:1012F0004A00002047000020480000206000002035
:101300005800002070B54FF47C71194800F08AF83D
:101310004FF48071174800F085F8002413E0601C3A
:10132000C5B2C4EBC40000EB4000114901EB8003DF
:10133000C5EBC50000EB400001EB80065E610EA02E
:10134000D864601CC4B20B2CE9D3C4EBC40000EB1E
:101350004000074901EB80030020586106A0D864D3
:1013600000200649086002480549086070BD000079
:10137000AC060020AC0500203F0000006400002007
:101380005C00002000B587B00320002180220A4BBA
:10139000CDE90132CDE903104FF6FF703F23074A34
:1013A00000900748FFF7FEFA06AA06A13F20FFF7C4
:1013B00057FB07B000BD0000AC030020A8050020CB
:1013C0005D16000875432F4F532D49492049646C21
:1013D0006500000000B587B00320002180220A4B81
:1013E000CDE90132CDE903104FF6FE703E23074AE6
:1013F00000900748FFF7D6FA06AA06A13E20FFF79D
:101400002FFB07B000BD0000AC010020A8030020A6
:101410008516000875432F4F532D49492053746199
:101420007400000004E0002200F8012B4A1E91B273
:101430000029F8D1704700002DE9F04178211048CB
:10144000FFF7F0FF00240DE0601C86B204EB4400BF
:101450000B4901EBC00506EB460001EBC0072F600E
:10146000601C84B2042CEFD304EB4400044901EB6C
:10147000C00500202860084602490860BDE8F081E8
:101480009C0A00206C00002010B50024FEF76EFEC0
:10149000044613480078F8B912480078E0B900F023
:1014A0002DF811481149097850F8210010490860B9
:1014B0000E4800780F49097888420DD00C48006822
:1014C000806B401C0A49096888630B480068401C0F
:1014D00009490860FEF762FE2046FEF74BFE10BD8C
:1014E0004500002046000020AC05002048000020F8
:1014F00060000020470000202C0000200649074A19
:101500001278885C0649095C034A515C01EBC00112
:10151000044A117070470000D826000849000020D6
:101520004A000020480000202DE9F84F05460F46EC
:1015300090469946DDE90AAB00200090FEF716FEC2
:1015400000903F480468002C74D0183454F8040C00
:101550003B4908600098FEF70DFE44F8187CA5761C
:10156000002020766076606144F814BC44F80CAC2E
:1015700044F8108C0C9824F8080C24F8069C0020E1
:10158000E077E810207705F00700E076217F012062
:101590008840A077E17E012088406077002060606D
:1015A000E060A0602062A0626062E062206325A02B
:1015B0006063183C002606E0002104F1500040F86A
:1015C0002610701CC6B2002EF6D02046FFF798F900
:1015D0002046FFF743FAFEF7C9FD00901A4840F88D
:1015E00025401A48006860610020A0611748006823
:1015F00010B1164800688461144804603434A0783F
:101600001349097808431249087020781149085C89
:101610006178084314F834190E4A50540E48007883
:10162000401C0D4908700098FEF7A4FD0020BDE89D
:10163000F88FFFE70098FEF79DFD4220F7E70000D6
:101640005C0000203F000000AC050020640000208A
:10165000490000204A00002053000020002400BF61
:1016600000BFFEF783FD044605480068401C04499E
:1016700008602046FEF77EFDFFF7F1F9F1E7000074
:1016800054000020002400BF02E0C820FFF70CFB3C
:10169000194800780028F8D0184800686421B0FB89
:1016A000F1F0164908600846006828B9002014497E
:1016B0000870FF20FFF7A2FA00BFFEF757FD0446AF
:1016C000104800681049086000200E490860204654
:1016D000FEF750FD0C48006808490968B0FBF1F0BE
:1016E000C0F1640006490870FFF7F2F900F00EF847
:1016F0006420FFF7D9FAE0E7440000203C00002016
:101700003800002054000020400000207CB5002557
:1017100014E069462846FFF7DDF9064666B9094830
:1017200050F8254044B1012C06D0D4E9020100EB69
:10173000810060640198A064681CC5B23F2DE8D99F
:101740007CBD0000AC05002002F0010343B102F0B3
:1017500002032BB102E0491E002308C00029FAD180
:10176000704700001CB50121042000F0D1F80121D0
:10177000102000F0CDF80121084600F0C9F80F2034
:10178000ADF8040018208DF8070003208DF806003E
:1017900001A90B48FEF772FD4FF47070ADF8000020
:1017A00018208DF8030003208DF802000121054860
:1017B000FEF7F0FD69460448FEF760FD1CBD000021
:1017C00000080140000C1A000010014010B5FFF79E
:1017D000C9FF00F001F810BD00B587B0012102205B
:1017E00000F076F80121082000F072F8364800F089
:1017F000EBF9364800F0E8F944F61F60ADF8140044
:101800004720ADF810000020ADF81200ADF816002A
:1018100004A92D4800F030FC04A92C4800F02CFC51
:101820007020ADF800000020ADF808000120ADF8F0
:1018300002006946254800F0BBFA0821234800F061
:1018400003FB6946214800F009FB08211F4800F00E
:1018500057FB69461D4800F061FB08211B4800F05A
:10186000ADFB6946194800F0B3FB0821174800F0AA
:10187000EDFB6946144800F09BFA0821124800F07D
:10188000E3FA6946104800F0E9FA08210E4800F032
:1018900037FB69460C4800F041FB08210A4800F07C
:1018A0008DFB6946084800F093FB0821064800F0CC
:1018B000CDFB0121044800F07BF90121034800F031
:1018C00077F907B000BD000000040040000C0040A4
:1018D00029B1064AD2690243044BDA6104E0034AA3
:1018E000D2698243014BDA61704700000010024068
:1018F00029B1064A12690243044B1A6104E0034A03
:1019000012698243014B1A617047000000100240C7
:1019100029B1064A92690243044B9A6104E0034AE2
:1019200092698243014B9A617047000000100240A7
:1019300029B1064AD2680243044BDA6004E0034A44
:10194000D2688243014BDA60704700000010024009
:1019500030B500210022002400232D4D6D6805F0D4
:101960000C0121B1042905D0082923D105E0294D16
:10197000056022E0274D05601FE0254D6D6805F4E8
:101980007012234D6D6805F48034022505EB9242F8
:101990001CB9214D554305600BE01D4D6D6805F4E4
:1019A00000351DB11C4D5543056002E0194D5543EE
:1019B000056002E0174D056000BF00BF144D6D6863
:1019C00005F0F0010909154D6B5C0568DD404560C7
:1019D0000F4D6D6805F4E061090A104D6B5C4568B8
:1019E000DD4085600A4D6D6805F46051C90A0B4DF4
:1019F0006B5C4568DD40C560054D6D6805F4404190
:101A0000890B074D6B5CC568B5FBF3F5056130BD0F
:101A10000010024000127A0000093D00140000206E
:101A20002400002010B500F001F810BD0CB5002016
:101A3000019000903348006840F4803031490860DC
:101A400000BF3048006800F4003000900198401C4E
:101A50000190009818B90198B0F5A06FF1D129480C
:101A6000006800F4003010B10120009001E0002077
:101A700000900098012843D12348006840F01000EE
:101A8000214908600846006820F003000860084605
:101A9000006840F0020008601A4840681949486030
:101AA0000846406848600846406840F480604860E6
:101AB0000846406820F47C1048600846406840F4BE
:101AC000E81048600846006840F08070086000BF79
:101AD0000C48006800F000700028F9D00948406800
:101AE00020F00300074948600846406840F00200C3
:101AF000486000BF0348406800F00C000828F9D196
:101B00000CBD00000010024000200240042808D153
:101B10004FF0E021096941F004014FF0E02211612A
:101B200007E04FF0E021096921F004014FF0E022C5
:101B30001161704710B505480078012805D1FEF7FE
:101B400023FDFFF7EDF8FEF731FD10BD5200002038
:101B500010B51348006840F00100114908600846BC
:101B60004068104908400E494860084600680E4920
:101B700008400B4908600846006820F4802008608F
:101B80000846406820F4FE0048604FF41F0088605B
:101B9000FFF748FF4FF000600449086010BD0000E7
:101BA000001002400000FFF8FFFFF6FE08ED00E025
:101BB00021B1028842F00102028004E002884FF65F
:101BC000FE731A400280704710B50446684884428C
:101BD00008D10121C014FFF7ABFE0021E014FFF78C
:101BE000A7FEC4E0B4F1804F08D101210846FFF7F9
:101BF0007FFE00210120FFF77BFEB8E05D488442B4
:101C000008D101210220FFF773FE00210220FFF717
:101C10006FFEACE05848844208D101210420FFF750
:101C200067FE00210420FFF763FEA0E053488442D2
:101C300008D101210820FFF75BFE00210820FFF7F3
:101C400057FE94E04E48844208D101211020FFF74E
:101C50004FFE00211020FFF74BFE88E049488442E8
:101C600008D101212020FFF743FE00212020FFF7AB
:101C70003FFE7CE04448844208D101214014FFF734
:101C800057FE00216014FFF753FE70E03F48844286
:101C900009D10121C804FFF74BFE00214FF40020B9
:101CA000FFF746FE63E03A48844209D10121080566
:101CB000FFF73EFE00214FF48010FFF739FE56E09B
:101CC0003448844209D101214805FFF731FE002143
:101CD0004FF40010FFF72CFE49E02F48844208D152
:101CE00001214020FFF704FE00214020FFF700FE05
:101CF0003DE02A48844208D101218020FFF7F8FD09
:101D000000218020FFF7F4FD31E02548844208D10E
:101D100001218015FFF7ECFD0021A015FFF7E8FD7C
:101D200025E02048844209D101210804FFF700FE84
:101D300000214FF48030FFF7FBFD18E01A48844281
:101D400009D101214804FFF7F3FD00214FF40030D1
:101D5000FFF7EEFD0BE01548844208D1012188040D
:101D6000FFF7E6FD00214FF48020FFF7E1FD10BDF5
:101D7000002C01400004004000080040000C00401E
:101D8000001000400014004000340140004C0140AD
:101D9000005001400054014000180040001C004069
:101DA0000020004000400140004401400048014044
:101DB00070B5002400220023058C4FF6FE763540D6
:101DC0000584028C8388048B4FF68F752C40B51EDA
:101DD0002C400D882C43751E2A400D892A434D88BE
:101DE0002A43144DA8420BD0134DA84208D0134DDE
:101DF000A84205D0124DA84202D0124DA84213D1DC
:101E00004FF6F7752A404D892A434FF6FB752A4055
:101E10008D882A434FF6FF652B404FF6FF552B4028
:101E20008D892B43CD892B4383800483CD88858680
:101E3000028470BD002C014000340140004001408C
:101E400000440140004801400A460021018B4FF642
:101E5000F7731940114301837047000070B50024E7
:101E600000220023058C4FF6EF7635400584028C66
:101E70008388048B48F6FF752C404FF6FF452C40B5
:101E80000D884FF6FF7606EA05252C434FF6DF75E1
:101E90002A400D8906EA05152A434D8806EA0515EC
:101EA0002A43154DA84202D0144DA8421DD14FF629
:101EB0007F752A404D894FF6FF7606EA05152A43BD
:101EC0004FF6BF752A408D8806EA05152A434FF65E
:101ED000FF352B404FF2FF752B408D8906EA8505B3
:101EE0002B43CD8906EA85052B4383800483CD8867
:101EF0000587028470BD0000002C014000340140C1
:101F00000A460021018B4FF2FF7319404FF6FF7311
:101F100003EA0223194301837047000070B50024CF
:101F200000220023058C4FF6FF6635400584028CA5
:101F30008388848B4FF68F752C404FF6FC752C40B0
:101F40000D882C434FF6FF552A400D894FF6FF763A
:101F500006EA05252A434D8806EA05252A43154D3C
:101F6000A84202D0144DA8421DD14FF2FF752A405D
:101F70004D894FF6FF7606EA05252A434FF6FF35D1
:101F80002A408D8806EA05252A434EF6FF752B4028
:101F90004DF6FF752B408D8906EA05152B43CD893B
:101FA00006EA05152B4383808483CD8885870284C8
:101FB00070BD0000002C0140003401400A460021A1
:101FC000818B4FF6F77319401143818370470000EE
:101FD00070B5002200230024058C4EF6FF763540B4
:101FE0000584038C8488828B48F6FF752A404FF65F
:101FF000FF452A400D884FF6FF7606EA05252A435D
:102000004DF6FF752B400D8906EA05352B434D88AB
:1020100006EA05352B430B4DA84202D00A4DA842D3
:1020200008D14BF6FF752C408D894FF6FF7606EAF6
:1020300085152C4384808283CD88A0F8405003848A
:1020400070BD0000002C0140003401400A46002110
:10205000818B4FF2FF7319404FF6FF7303EA02239F
:102060001943818370478186704701877047818754
:102070007047A0F840107047002202881D4B98421C
:102080000ED01D4B98420BD0B0F1804F08D01B4BA7
:10209000984205D01A4B984202D01A4B984204D16C
:1020A0004FF68F731A404B881A43174B984207D04C
:1020B000164B984204D04FF6FF431A40CB881A4380
:1020C00002808B8883850B8803850A4B98420BD04E
:1020D000094B984208D00E4B984205D00D4B9842C0
:1020E00002D00D4B984201D10B7A038601238382E3
:1020F00070470000002C0140003401400004004003
:1021000000080040000C0040001000400014004097
:1021100000400140004401400048014010B586B035
:10212000044601218804FFF7D3FB01210820FFF7B3
:10213000EFFB4FF48060ADF8140003208DF816001B
:1021400018208DF8170005A91848FEF797F84FF4E6
:102150000060ADF8140004208DF8170005A913489D
:10216000FEF78CF827208DF8000001208DF8010083
:102170008DF802008DF803006846FEF7ADF9019472
:102180000020ADF80800ADF80A00ADF80C00ADF87D
:1021900010000C20ADF80E0001A9054800F0E2F88F
:1021A0000121034800F076F806B010BD000C014094
:1021B0000048004070B50025FEF77CFB40F2255139
:1021C000074800F080F838B1054800F037F9C4B28C
:1021D0002146034800F037F92846FDF7CBFF70BDD4
:1021E000004C004010B586B0044601210846FFF7B8
:1021F0008FFB0121C804FFF76BFB01211020FFF7C3
:1022000087FB4FF48060ADF8140003208DF81600B2
:1022100018208DF8170005A91C48FEF72FF84FF479
:102220000060ADF8140004208DF8170005A91748C8
:10223000FEF724F834208DF8000002208DF801000C
:102240008DF8020001208DF803006846FEF744F97E
:1022500001940020ADF80800ADF80A00ADF80C00BC
:10226000ADF810000C20ADF80E0001A9084800F0F0
:1022700079F8012240F22551054800F04EF801217D
:10228000034800F007F806B010BD00000010014040
:10229000004C004021B1828942F40052828104E066
:1022A00082894DF6FF731A408281704702460020F2
:1022B000B1F5007F00D100BF13880B400BB10120A6
:1022C00000E00020704770B502460024002300257E
:1022D000002040F66A16B14200D100BFC1F342159A
:1022E00001F01F03012606FA03F3012D02D196899E
:1022F000334006E0022D02D1168A334001E0968A6F
:1023000033400C12012606FA04F41688344013B147
:102310000CB1012000E0002070BDF0B503460024A0
:1023200000260025002040F66A17B94200D100BF00
:102330001846C1F3421401F01F06012707FA06F5FB
:10234000012C01D10C3004E0022C01D1103000E04E
:1023500014301AB107682F43076002E00768AF43E3
:102360000760F0BD2DE9F04786B005460E46002413
:10237000A24600BFA1460027B08900B100BF2F468A
:102380002C8A4CF6FF700440F08804432C82AC8900
:102390004EF6F3100440B088318908437189084330
:1023A0000443AC81AC8A4FF6FF400440B08904433B
:1023B000AC8201A8FFF7CCFA1F48874202D1DDF8B2
:1023C00010A001E0DDF80CA0A88900F4004040B1A5
:1023D0000AEBCA0000EB0A1031684900B0FBF1F8C3
:1023E00007E00AEBCA0000EB0A1031688900B0FB75
:1023F000F1F86420B8FBF0F004012009642101FB2E
:102400001089A88900F4004040B1322000EBC900D7
:10241000B0FBF1F000F00700044308E0322000EBCD
:1024200009106421B0FBF1F000F00F0004432C818F
:1024300006B0BDE8F08700000038014001468888FA
:10244000C0F308007047C1F30802828070470000A3
:10245000014A024900F013B8C52500089000002089
:1024600002E008C8121F08C1002AFAD1704770475D
:10247000002001E001C1121F002AFBD170472DE9A5
:10248000F04116460F460446002503E03946B047A2
:10249000641C6D1C20780028F8D12846BDE8F08126
:1024A00010B56FF00400FFF731FB104800681049C9
:1024B000B0FBF1F00F4908700C4800680C49B0FB04
:1024C000F1F44FF47A70444301200B4908804FF037
:1024D000E020006940F002004FF0E021086108466A
:1024E0004461006940F00100086110BD0000002057
:1024F00000127A00280000202A00002070B504464F
:102500000F480078A0B10F48007888B90E480088BD
:10251000844206DB0C48008894FBF0F5284600F066
:102520001DF80948008894FBF0F100FB114084B2CB
:102530004FF47A7104FB01F000F016F870BD000052
:1025400052000020450000202A00002010B5FEF7B0
:1025500075F810BD10B5FEF791F810BD10B5044622
:102560002046FEF7A1FB10BD2DE9F04707460026E7
:102570004FF0E020D0F814901148007807FB00F8E5
:1025800000BFFFF7E3FF4FF0E020856911E04FF057
:10259000E0208469AC420CD0AC4202D2281B064435
:1025A00003E0A9EB0400284406442546464500D331
:1025B00000E0ECE700BFFFF7CDFFBDE8F0870000CB
:1025C0002800002070B504460D46E1B20548FFF72B
:1025D0003AFF00BF40210348FFF768FE0128F9D108
:1025E000204670BD0048004010B5FFF759FF4FF47A
:1025F0001650FFF793FD4FF41650FFF7F3FDFDF76C
:102600002FFFFDF71FFEFDF70FFFFFF7DFF844F682
:1026100044011C48FFF727FD44F644011948FFF721
:1026200024FD44F644011748FFF721FD44F6440118
:102630001448FFF71EFD44F644011348FFF713FD4D
:1026400044F644011048FFF710FD44F644010E48DB
:10265000FFF70DFD44F644010B48FFF70AFD4FF468
:102660007A70FFF74BFF09A0FFF7F2FEFDF76CFF52
:102670000A23104A00211048FEF744F9FEF7F6F845
:10268000002010BD00040040000C00405B2E5C5593
:102690005345525C7372635C6D61696E2E635D09B4
:1026A00020494E464F3A53544152542052554E0DF4
:1026B0000A000000D0100020BD26000870B50446B6
:1026C000002500BFFDF752FD05460A20FEF796FAE9
:1026D0002846FDF74FFD70BD00000100020001001B
:1026E00003000100020001000400010002000100DB
:1026F00003000100020001000500010002000100CA
:1027000003000100020001000400010002000100BA
:1027100003000100020001000600010002000100A8
:10272000030001000200010004000100020001009A
:102730000300010002000100050001000200010089
:10274000030001000200010004000100020001007A
:102750000300010002000100070001000200010067
:10276000030001000200010004000100020001005A
:102770000300010002000100050001000200010049
:10278000030001000200010004000100020001003A
:102790000300010002000100060001000200010028
:1027A000030001000200010004000100020001001A
:1027B0000300010002000100050001000200010009
:1027C00003000100020001000400010002000100FA
:1027D0000300010002000100F827000800000020AB
:1027E00094000000602400088C2800089400002059
:1027F000441400007024000800A24A0400000000F5
:1028000000000000010203040607080900000000A0
:102810000102030401020304060708090204060872
:1028200000000000000000000000000000000000A8
:102830000000000000000000000000000000000098
:102840000000000000000000000000000000000088
:102850000000000000000000000000000000000078
:102860000000000000000000000000000000000068
:102870000000000000000000000000000000000058
:0C2880000000000000000000000000004C
:0400000508000131BD
:00000001FF
