S31508000000A0140020490100085903000851030008FC
S3150800001055030008350200084514000800000000D2
S3150800002000000000000000000000000009110008A0
S315080000303902000800000000AF010008A50A000800
S3150800004063010008630100086301000863010008F2
S3150800005063010008630100086301000863010008E2
S3150800006063010008630100086301000863010008D2
S3150800007063010008630100086301000863010008C2
S3150800008063010008630100086301000863010008B2
S3150800009063010008630100086301000863010008A2
S315080000A06301000863010008630100086301000892
S315080000B06301000863010008630100086301000882
S315080000C06301000863010008630100086301000872
S315080000D06301000863010008630100086301000862
S315080000E06301000863010008630100086301000852
S315080000F06301000863010008630100086301000842
S315080001006301000863010008630100086301000831
S315080001106301000863010008630100086301000821
S315080001206301000863010008630100086301000811
S31508000130DFF810D000F06CF800480047BD1400083E
S31508000140AFF30080A0140020064880470648004701
S31508000150FEE7FEE7FEE7FEE7FEE7FEE7FEE7FEE769
S31508000160FEE7FEE75512000831010008EFF310809C
S3150800017072B6704780F3108870471D484FF0FF012C
S315080001800170002080F309881A48012101701A4875
S315080001904FF08051016062B6FEE717484FF0805174
S315080001A00160704714484FF080510160704772B67D
S315080001B0EFF3098028B1203880E8F00F0F49096865
S315080001C0086000B50E4880475DF804EB0D480E49F7
S315080001D00A78027009480D490A680260106890E8B2
S315080001E0F00F203080F309884EF0040E62B670478F
S315080001F022ED00E04A00002004ED00E05000002057
S31508000200410900084300002044000020580000204F
S31508000210064C074D06E0E06840F0010394E8070045
S3150800022098471034AC42F6D3FFF786FF90160008BD
S31508000230B016000800BFFEE770472DE9F0410246F8
S3150800024000250026002000230024002791F803C07B
S315080002500CF00F0591F803C00CF0100CBCF1000F60
S3150800026003D091F802C04CEA050591F800C0BCF12C
S31508000270000F31D0146800202BE04FF0010C0CFA67
S3150800028000F3B1F800C00CEA03069E4220D18300B1
S315080002904FF00F0C0CFA03F7BC4305FA03FC4CEAC3
S315080002A0040491F803C0BCF1280F06D14FF0010CE5
S315080002B00CFA00FCC2F814C00AE091F803C0BCF1BD
S315080002C0480F05D14FF0010C0CFA00FCC2F810C01B
S315080002D0401C0828D1D31460B1F800C0BCF1FF0F48
S315080002E034DD546800202EE000F1080C4FF00108B8
S315080002F008FA0CF3B1F800C00CEA03069E4221D1B5
S3150800030083004FF00F0C0CFA03F7BC4305FA03FC05
S315080003104CEA040491F803C0BCF1280F05D100F19A
S31508000320080C08FA0CF8C2F8148091F803C0BCF15E
S31508000330480F07D100F1080C4FF0010808FA0CF82D
S31508000340C2F81080401C0828CED35460BDE8F0815E
S3150800035000BFFEE700BFFEE77047000017481848D1
S315080003601848194819481A481A481B481B481C486F
S315080003701C481D481D481E481E481F481F4820483F
S31508000380204821482148224822482348234824480F
S3150800039024482548254826482648274827482848DF
S315080003A02848294829482A482A482B482B482C48AF
S315080003B02C482D482D4800BF70470000301500080E
S315080003C034150008381500083A1500083C150008C9
S315080003D03E15000840150008421500084415000897
S315080003E046150008481500084A1500084C15000867
S315080003F04E15000850150008521500085415000837
S3150800040056150008581500085A1500085C15000806
S315080004105E150008601500086215000864150008D6
S3150800042066150008681500086A1500086C150008A6
S315080004306E15000870150008721500087415000876
S3150800044076150008781500087A1500087C15000846
S315080004507E15000880150008821500088415000816
S3150800046086150008881500088A1500088C150008E6
S3150800047010B500F013F800F077FB00F09FFB00F0D2
S31508000480C1FB00F049FB00F021FB00F0EFFB00F098
S3150800049015FC00F004F8FFF761FF10BD70477047C0
S315080004A010B500241A480078012830D1FFF75EFEFF
S315080004B0044618480078002804DD16480078401ECF
S315080004C01449087013480078F0B913480078D8B969
S315080004D000F060FC1148007811490978884213D069
S315080004E010480E49097850F821000F490860084657
S315080004F00068806B401C096888630C480068401CCB
S315080005000A490860FFF74EFE2046FFF733FE10BD86
S315080005104A0000204100002042000020440000203C
S31508000520430000203806002058000020280000203C
S3150800053010B50B48007890B900F02CFC09480078F3
S315080005400949087009480749097850F821000849F7
S3150800055008600846006807490860FFF70EFE10BDE8
S315080005604A000020440000204300002038060020EE
S315080005705800002050000020704700002DE9FE4F6B
S3150800058006460F4690461C464FF00009FFF7EEFD5B
S31508000590814620480078002805DD4846FFF7EAFD31
S315080005A03C20BDE8FE8F1C4850F8240060BB0120A3
S315080005B0194941F824004846FFF7DCFD0023424666
S315080005C03946304600F01AF982460020009001901C
S315080005D00346024651460290204600F009FC0546AD
S315080005E035B90E48007801280CD100F099FB09E0CE
S315080005F0FFF7BCFD81460020074941F8240048461C
S31508000600FFF7B8FD2846CCE74846FFF7B3FD282094
S31508000610C7E7000041000020380600204A000020F5
S315080006202DE9F04F85B081468A4693461C46DDE99A
S315080006300F78129D00200390FFF798FD039023483A
S315080006400078002806DD0398FFF794FD3C2005B0E6
S31508000650BDE8F08F1E4850F8240088BB01201C49CD
S3150800066041F824000398FFF785FD2A464146384697
S3150800067000F0C2FC2B465A465146484600F0BEF8E2
S3150800068004901198CDE9008002953A4620460E9BC3
S31508000690049900F0ADFB064636B90E4800780128E5
S315080006A00CD100F03DFB09E0FFF760FD0390002048
S315080006B0074941F824000398FFF75CFD3046C6E772
S315080006C0FFE70398FFF756FD2820C0E74100002002
S315080006D0380600204A000020704770472DE9F04789
S315080006E00646884614464FF000091D48007800283B
S315080006F003DD12202070BDE8F087FFF737FD81463D
S31508000700FF2E03D11748006890F83260164850F853
S3150800071026502DB94846FFF72DFD43202070EAE7FD
S31508000720012D05D14846FFF725FD43202070E2E755
S31508000730404600F053FB07460F2F05DD4846FFF7F6
S3150800074019FD41202070D6E7414605F14C0000F01E
S3150800075037FB4846FFF70EFD0020207000BFCAE7AA
S315080007604100002050000020380600207047000095
S315080007702DE9F04707460D464FF0000A002028608D
S315080007806860FFF7F3FC8246FF2F03D1194800681B
S3150800079090F83270184850F827402CB95046FFF7A1
S315080007A0E9FC4320BDE8F087012C04D15046FFF749
S315080007B0E1FC4320F6E7207C00F0010020B9504612
S315080007C0FFF7D8FC4520EDE70026D4F80C90D4F8BE
S315080007D008805046FFF7CEFC00E0761C58F8041B4C
S315080007E00029FAD0B0002860A9EB060080006860EE
S315080007F00020D7E7500000203806002070B50446D0
S3150800080010464FF080750560051F28462C606FF06E
S315080008100106051F28462E604FF01236051F28468A
S315080008202E604FF00336051F28462E604FF002361D
S31508000830051F28462E607610051F28462E60051FC0
S31508000840284629604FF01136051F28462E604FF0BE
S315080008501036051F28462E604FF00936051F284614
S315080008602E604FF00836051F28462E604FF00736D3
S31508000870051F28462E604FF00636051F28462E60AF
S315080008804FF00536051F28462E604FF00436051F23
S3150800089028462E6070BD00002DE9F04105464FF050
S315080008A00008FFF763FC8046FF2D05D12048006845
S315080008B090F83250012608E01D48006890F832008A
S315080008C0A84201D1012600E000261A4850F8254022
S315080008D02CB94046FFF74EFC4820BDE8F081012CB4
S315080008E004D14046FFF746FC4320F6E794F83470F7
S315080008F01148C05D94F8351088430F49C855084615
S31508000900C05D30B994F836100C48007888430B4916
S31508000910087094F8300040F0080084F8300040462B
S31508000920FFF728FC012E01D100F0FAF90020D4E7E0
S315080009305000002038060020460000204500002010
S315080009407047000070B5054600261648007800284E
S3150800095000DD70BD002D23DDFFF708FC06461248B2
S31508000960006890F834401148005D0F49096891F80D
S31508000970351088430D4908550846005D40B90A48B0
S31508000980006890F836100A480078884308490870C5
S3150800099005480068C5853046FFF7ECFB00F0C0F94E
S315080009A000BFD6E741000020500000204600002086
S315080009B04500002070B5002600F072F8FFF7D6FB58
S315080009C0064631480068401C2F4908603046FFF744
S315080009D0D1FB2E480078012853D12D48007820B144
S315080009E0012804D0022809D103E001250BE00025DF
S315080009F009E0012501202649087004E001250020A8
S31508000A002349087000BF00BF05B970BD21480468B6
S31508000A1033E0FFF7ABFB0646E08D50B3E08D401E92
S31508000A2080B2E08528BB94F8300000F0370040B16A
S31508000A3014F8300F20F03700207001206070303C29
S31508000A4002E0002084F8310094F8300000F0080035
S31508000A5078B93434A0781049097808430E490870E3
S31508000A6020780E49085C6178084314F834190B4A53
S31508000A70505464693046FFF77DFB94F832001F280E
S31508000A80C7D100BFC1E70000640000204A0000206B
S31508000A90600000205C000020450000204600002081
S31508000AA07047000010B5FFF761FB0446064800785A
S31508000AB0401C054908702046FFF75CFBFFF77AFFE4
S31508000AC0FFF7EEFC10BD00004100002070B58C2138
S31508000AD00F4800F01BF90E4C04F11C0600250AE02D
S31508000AE00020207066603F20A0720021E1721C344D
S31508000AF01C36681C85B2042DF2DB0020207060606D
S31508000B003F20A0720021E17201480249086070BDC9
S31508000B10AC0100203000002030B54FF4A071104819
S31508000B2000F0F4F80E4B03F1200500240AE000203B
S31508000B3018705D603F20D873002119742033203562
S31508000B40601C84B2092CF2DB0020187058603F2024
S31508000B50D8730021197402480249086030BD0000A4
S31508000B606C0000202C00002000200A4908600A4971
S31508000B7008700A4908700A4908700A4908700A493B
S31508000B8008600A4908600A4908600A4908600A496B
S31508000B9008707047640000204100002042000020D1
S31508000BA04B0000204A000020280000204C000020AE
S31508000BB03C000020380000204000002000220B4B9B
S31508000BC01A700B49002004E0002201F8012B421C90
S31508000BD0D0B20428F8DB0022064B1A70064B1A70AE
S31508000BE0064B1A60064B1A60704700004500002045
S31508000BF04600002043000020440000205800002042
S31508000C005000002030B54FF4FD61144800F07EF81E
S31508000C108021134800F07AF8104B03F15C05002494
S31508000C200AE05D613F2083F84C0000214D20C15445
S31508000C305C335C35601CC4B2152CF2D300205861B5
S31508000C403F2083F84C0000214D20C154002005495F
S31508000C50086002480449086030BD0000B806002054
S31508000C60380600205C0000205400002000B587B03C
S31508000C700320002180220A4BCDE90132CDE9031079
S31508000C804FF6FF701F23074A00900748FFF7C8FC76
S31508000C9006AA06A11F20FFF721FD07B000BD000028
S31508000CA03804002034060020110F000875432F4F22
S31508000CB0532D49492049646C6500000000B587B08A
S31508000CC00320002180220A4BCDE90132CDE9031029
S31508000CD04FF6FE701E23074A00900748FFF7A0FC50
S31508000CE006AA06A11E20FFF7F9FC07B000BD000002
S31508000CF03802002034040020350F000875432F4FB2
S31508000D00532D4949205374617400000004E0002201
S31508000D1000F8012B4A1E91B20029F8DC7047000042
S31508000D2010B50024FFF722FA044613480078F0B9F4
S31508000D3012480078D8B900F02DF811480078114902
S31508000D400978884213D010480D49097850F82100CF
S31508000D500E49086008460068806B401C096888636D
S31508000D600B480068401C0A490860FFF716FA204637
S31508000D70FFF700FA10BD00004100002042000020E5
S31508000D8044000020430000203806002058000020B8
S31508000D90280000200649074A1278885C0649095C3B
S31508000DA0034A515C01EBC001044A11707047000008
S31508000DB08E1500084500002046000020440000204B
S31508000DC00246002005E011F8013B02F8013B431CEE
S31508000DD0D8B20B78002BF6D1137070470146002065
S31508000DE002E0491C421CD0B20A78002AF9D17047A1
S31508000DF02DE9F84F05460E4617469846DDE90BAB32
S31508000E00DDF8289000200090FFF7B0F900903A48E6
S31508000E100468002C6BD0183454F8040C3649086062
S31508000E200098FFF7A7F944F8186CA57600202076F5
S31508000E306076E08244F814AC44F80C9C44F8107CC4
S31508000E4024F808BC24F8068CE077E810207705F02B
S31508000E500700E076217F01208840A077E17E012007
S31508000E608840607700206060A0602061E0602062B2
S31508000E70A0626062E06220633F2084F83400183C78
S31508000E8000214D2001552046FFF776FB2046FFF747
S31508000E9023FCFFF76BF90090184840F825401848DE
S31508000EA0006860610020A0611548006810B1144808
S31508000EB000688461124804603434A07811490978BE
S31508000EC008431049087020780F49085C6178084380
S31508000ED014F834190C4A50540C480078401C0B4935
S31508000EE008700098FFF746F90020BDE8F88F0098CB
S31508000EF0FFF740F94220F8E75400002038060020A2
S31508000F005C00002045000020460000204B00002021
S31508000F10002400BFFFF72AF9044605480068401C6C
S31508000F20034908602046FFF725F9FFF7D6FBF1E7E6
S31508000F304C000020002402E0C820FFF703FD1A48F1
S31508000F4000780028F8D0194800686421B0FBF1F051
S31508000F50164908600846006828B900201449087030
S31508000F60FF20FFF799FC00BFFFF700F90446114878
S31508000F7000681149086000200E4908602046FFF7FE
S31508000F80F9F80D48006809490968B0FBF1F0C0F1A5
S31508000F90640007490870FFF7E9FB00F00FF86420C2
S31508000FA0FFF7D0FCE0E700004000002038000020F2
S31508000FB0340000204C0000203C0000207CB50025B1
S31508000FC014E069462846FFF7D3FB064666B9094882
S31508000FD050F8254044B1012C06D0D4E9020100EBB3
S31508000FE0810060640198A064681CC5B21F2DE8DD05
S31508000FF07CBD00003806002002F0010343B102F070
S3150800100002032BB102E0491E002308C00029FAD1C9
S315080010107047000029B1064A92690243044B9A6157
S3150800102004E0034A92698243014B9A6170470000C3
S315080010300010024030B500210022002400232D4D67
S315080010406D6805F00C0121B1042905D0082923D1C2
S3150800105005E0294D056022E0274D05601FE0254D76
S315080010606D6805F47012234D6D6805F48034022509
S3150800107005EB92421CB9214D554305600BE01D4D09
S315080010806D6805F400351DB11C4D5543056002E039
S31508001090194D5543056002E0174D056000BF00BFB6
S315080010A0144D6D6805F0F0010909154D6B5C05686E
S315080010B0DD4045600F4D6D6805F4E061090A104D85
S315080010C06B5C4568DD4085600A4D6D6805F46051C6
S315080010D0C90A0B4D6B5C4568DD40C560054D6D68FA
S315080010E005F44041890B074D6B5CC568B5FBF3F504
S315080010F0056130BD0010024000127A0000093D006B
S315080011001400002024000020704710B500F002F8F3
S3150800111010BD00000CB5002001900090334800680F
S3150800112040F480303149086000BF3048006800F458
S31508001130003000900198401C0190009818B9019859
S31508001140B0F5A06FF1D12948006800F4003010B15D
S315080011500120009001E0002000900098012843D16A
S315080011602348006840F010002149086008460068D6
S3150800117020F0030008600846006840F00200086096
S315080011801A48406819494860084640684860084651
S31508001190406840F4806048600846406820F47C1047
S315080011A048600846406840F4E81048600846006809
S315080011B040F08070086000BF0C48006800F00070BE
S315080011C00028F9D00948406820F00300074948601C
S315080011D00846406840F00200486000BF034840687F
S315080011E000F00C000828F9D10CBD000000100240E0
S315080011F00020024030B5144800684FF47A72B0FBFC
S31508001200F2F1B1F1807F00D31DE021F07F40401E4E
S315080012104FF0E022506150170F22002807DA130713
S315080012201D0E0A4B00F00F04241F1D5503E013077B
S315080012301C0E074B1C5400BF00204FF0E0229061A3
S315080012400720106100BF30BD0000002018ED00E047
S3150800125000E400E010B51348006840F001001149A9
S31508001260086008464068104908400E494860084624
S3150800127000680E4908400B4908600846006820F4D3
S31508001280802008600846406820F4FE0048604FF455
S315080012901F008860FFF739FF4FF0006004490860B7
S315080012A010BD0000001002400000FFF8FFFFF6FE28
S315080012B008ED00E000B585B0012144F20400FFF70F
S315080012C0A9FE4FF40070ADF8100018208DF8130031
S315080012D003208DF8120004A91348FEF7AEFF4FF459
S315080012E08060ADF8100004208DF8130004A90E489C
S315080012F0FEF7A3FF4FF4E13000900020ADF804009C
S31508001300ADF80600ADF80800ADF80C000C20ADF8F5
S315080013100A006946054800F025F80121034800F04F
S3150800132007F805B000BD000000080140003801407C
S3150800133021B1828942F40052828104E082894DF605
S31508001340FF731A408281704702460020B1F5007F7C
S3150800135000D100BF13880B400BB1012000E000202C
S31508001360704700002DE9F04786B005460E46002472
S31508001370A24600BFA1460027B08900B100BF2F468C
S315080013802C8A4CF6FF700440F08804432C82AC8902
S315080013904EF6F3100440B088318908437189084332
S315080013A00443AC81AC8A4FF6FF400440B08904433D
S315080013B0AC8201A8FFF73EFE1F48874202D1DDF83E
S315080013C010A001E0DDF80CA0A88900F4004040B1A7
S315080013D00AEBCA0000EB0A1031684900B0FBF1F8C5
S315080013E007E00AEBCA0000EB0A1031688900B0FB77
S315080013F0F1F86420B8FBF0F004012009642101FB30
S315080014001089A88900F4004040B1322000EBC900D9
S31508001410B0FBF1F000F00700044308E0322000EBCF
S3150800142009106421B0FBF1F000F00F0004432C8191
S3150800143006B0BDE8F087000000380140C1F3080295
S315080014408280704700BFFEE7014A024900F013B8E0
S31508001450991400086800002002E008C8121F08C195
S31508001460002AFAD170477047002001E001C1121F17
S31508001470002AFBD170472DE9F04116460F4604466F
S31508001480002503E03946B047641C6D1C2078002807
S31508001490F8D12846BDE8F08170B504460D46E1B29C
S315080014A00548FFF7CBFF00BF40210348FFF74CFF75
S315080014B00128F9D1204670BD00380140FEF7D8FF53
S315080014C00A23044A00210448FFF758F8FFF730F8C2
S315080014D000BFFEE79C0F0020FD14000807E0FFF799
S315080014E0E9FE03A0FFF7B0FF6420FFF72BFAF6E743
S315080014F05461736B20310D0A0000000070B5044674
S315080015000025FFF777FE00BFFEF730FE05460723E6
S31508001510054A00210548FFF731F80A20FFF7BCF90C
S315080015202846FEF727FE70BDA0100020DD1400082F
S3150800153001000000785634120A001000010020004D
S31508001540400101001C0014000200050010001F00E5
S315080015500100000005001000000000000000040063
S31508001560000004000000040001000400010001005E
S315080015700100800001001600100001008000010033
S31508001580010020005C00E80301001E016E0E000049
S31508001590010002000100030001000200010004002E
S315080015A0010002000100030001000200010005001D
S315080015B0010002000100030001000200010004000E
S315080015C001000200010003000100020001000600FC
S315080015D001000200010003000100020001000400EE
S315080015E001000200010003000100020001000500DD
S315080015F001000200010003000100020001000400CE
S3150800160001000200010003000100020001000700BA
S3150800161001000200010003000100020001000400AD
S31508001620010002000100030001000200010005009C
S31508001630010002000100030001000200010004008D
S31508001640010002000100030001000200010006007B
S31508001650010002000100030001000200010004006D
S31508001660010002000100030001000200010005005C
S31508001670010002000100030001000200010004004D
S315080016800100020001000300010002000100000041
S31508001690B0160008000000206C000000581400086E
S315080016A01C1700086C000020341400006814000899
S315080016B000A24A0400000000000000000102030422
S315080016C006070809000000000102030401020304DA
S315080016D006070809020406080000000000000000CA
S315080016E000000000000000000000000000000000EC
S315080016F000000000000000000000000000000000DC
S3150800170000000000000000000000000000000000CB
S31108001710000000000000000000000000BF
S70508000131C0
