S315080000006004002065010008AD1A0008F51900080B
S31508000010A91A0008ED060008691D0008000000007E
S31508000020000000000000000000000000551B00084A
S31508000030F106000800000000151B0008AD1B0008AB
S315080000407F0100087F0100087F0100087F01000882
S315080000507F0100087F0100087F0100087F01000872
S315080000607F0100087F0100087F0100087F01000862
S315080000707F0100087F0100087F0100087F01000852
S315080000807F0100087F0100087F0100087F01000842
S315080000907F0100087F0100087F0100087F01000832
S315080000A07F0100087F0100087F0100087F01000822
S315080000B07F0100087F0100087F0100087F01000812
S315080000C07F0100087F0100087F0100087F01000802
S315080000D07F0100087F0100087F0100087F010008F2
S315080000E07F0100087F0100087F010008000000006A
S315080000F000000000000000000000000000000000F2
S3150800010000000000000000007F0100087F010008D1
S315080001107F0100087F0100087F0100087F010008B1
S315080001207F0100087F0100087F0100087F010008A1
S315080001307F0100087F0100087F0100087F01000891
S315080001407F0100087F0100087F0100087F01000881
S31508000150DFF80CD000F018FA004800477D1E0008AA
S31508000160600400200648804706480047FEE7FEE789
S31508000170FEE7FEE7FEE7FEE7FEE7FEE7FEE7FEE749
S315080001801D1C00085101000830B50B460146002029
S315080001902022012409E021FA02F59D4205D303FA3B
S315080001A002F5491B04FA02F52844151EA2F10102BC
S315080001B0F1DC30BD2DE9F05F0546002092469B46EE
S315080001C088460646814640241BE02846414647465F
S315080001D0224600F0FAF953465A46C01A914110D3FE
S315080001E011461846224600F0E1F92D1A67EB010878
S315080001F04F4622460120002100F0D8F917EB0009E6
S315080002004E41201EA4F10104DFDC484631462A4649
S315080002104346BDE8F09F2DE9FE4F804681EA03007C
S31508000220C00F0C46009021F0004123F00045B8EBC2
S315080002300200A94105D24046214690461C460B4677
S31508000240024623F00040104347D0270DC7F30A00A3
S31508000250C3F30A510290401A019040286BDAC3F39F
S31508000260130040F4801B0098924620B10023D2EB7D
S31508000270030A63EB0B0B01985946C0F1400250463E
S3150800028000F094F906460D4650465946019A00F084
S31508000290ACF910EB08006141002487EA115284EAA0
S315080002A0E7731A4340D0009A62B3019A012A4FEACB
S315080002B0075215DC001B61EB02014FF0004202EA0F
S315080002C00752CDE90042001C41F5801132462B4603
S315080002D000F0ACF903B0BDE8F08F40462146F9E7D7
S315080002E0001B61EB0201001C41F5801300185B41FD
S315080002F02018A2F5001747EB030140EAD570B61996
S315080003006D4111E06D084FEA360645EAC0754FEAB9
S315080003100752001B61EB0201001C41F580114908D8
S315080003204FEA30000019514132462B4603B0BDE86A
S31508000330F04F00F06CB90098012240000023D0EB82
S31508000340020263EBE073009821464FEAE074B8EBCB
S31508000350000061EB0401E9E783F000435BE781F005
S31508000360004158E72DE9FE4F81EA030404F00044F2
S3150800037021F0004100944FF0000B23F0004350EAAF
S3150800038001045ED052EA03045BD0C3F30A54C1F3F6
S315080003900A552C44A4F2F3340194A0FB0254C1F389
S315080003A0130141F48011C3F3130343F4801301FBD3
S315080003B0024400FB034E840A970A44EA815447EA3A
S315080003C08357A4FB076802958D0A05FB07854FEA44
S315080003D0932C04FB0C542705029D4FEA065847EA5E
S315080003E01637B5EB08056EEB070C870E920E47EA33
S315080003F0811742EA8312A7FB0201B6EB0B0164EBF5
S3150800040000042B0D43EA0C335E1844EB1C50DA4605
S315080004105146E7FB0201C5F313044FEA0B3343EADF
S3150800042014534FEA0432019C43EA0603A4F10C0470
S315080004300294009CCDE900B400F0F8F803B0BDE8DA
S31508000440F08F00200146F9E72DE9F04D81EA030413
S3150800045004F0004B21F0004514464FF0000A23F043
S31508000460004150EA050220D054EA01021DD0C5F326
S315080004700A570246C5F31303C1F31300C1F30A561C
S3150800048040F4801543F48013A7EB0608101BD646E4
S3150800049008F2FD3873EB050002D308F1010801E004
S315080004A092185B41B8F1000F03DA00200146BDE857
S315080004B0F08D00204FF48011064684460EE0171B87
S315080004C073EB050705D3121B63EB050306434CEADA
S315080004D0010C49084FEA300092185B4150EA0107BF
S315080004E0EDD152EA030012D082EA040083EA05013C
S315080004F0084305D0101BAB4106D20122002306E0B3
S3150800050000224FF0004302E06FF0010253101AEB8D
S3150800051006004CEB085110EB0A0041EB0B01BDE855
S31508000520F04D00F074B8C1F30A52C1F3130140F25A
S31508000530FF3341F480119A4202DA002001467047DF
S3150800054040F233439A42A2F2334202DC524200F0AE
S315080005503CB800F02BB8000030B5041E71F1000459
S3150800056004DB4FF00044404264EB0101141E73F1B2
S31508000570000405DB1C464FF00043524263EB0403BC
S31508000580994208BF904230BD064C074D06E0E06828
S3150800059040F0010394E8070098471034AC42F6D3BC
S315080005A0FFF7DAFDE427000804280008202A04DB00
S315080005B0203A00FA02F1002070479140C2F1200368
S315080005C020FA03F3194390407047202A04DB203AA7
S315080005D021FA02F00021704721FA02F3D040C2F155
S315080005E020029140084319467047202A06DBCB179C
S315080005F0203A41FA02F043EAE07306E041FA02F3D0
S31508000600D040C2F12002914008431946704710B500
S31508000610141E73F1000408DA401C41F10001921817
S315080006205B411A4301D120F0010010BD2DE9F04DC0
S3150800063092469B4611B1B1FA81F202E0B0FA80F215
S3150800064020329046FFF7B2FF04460F4640EA0A00FA
S3150800065041EA0B0153465A46084313D0114653EA5A
S31508000660010019D0C8F140025046FFF7AEFF054613
S315080006700E46504659464246FFF798FF084305D0AE
S31508000680012004E020463946BDE8F08D00200543E8
S3150800069046EAE0762C4337430A986305E40AA0EB5A
S315080006A008000022FD0A44EA47540A3002D5002011
S315080006B00146E9E7010510196941DDE90845001910
S315080006C06941BDE8F04DA2E7D2B201E000F8012B7E
S315080006D0491EFBD270470022F6E710B513460A46B4
S315080006E004461946FFF7F0FF204610BDFFE7FEE770
S315080006F07047000080B584B0039000F0C3F90290FB
S31508000700039801900198013020B1FFE70198013064
S315080007100190FFE7FFE700F0B5F90299401A019941
S31508000720884201D2FFE7F6E704B080BD8AB0099097
S315080007300891002007900390FFE70898006807993A
S31508000740C840002800F06A81FFE70798012101FAEE
S3150800075000F00690089800680699084005900598E4
S315080007600699884240F05681FFE7089840680028B5
S3150800077046D0FFE7012830D0FFE7022836D0FFE74A
S31508000780032857D0FFE711282BD0FFE7122832D0CD
S31508000790FFE70021C1F21101884231D0FFE70021AD
S315080007A0C1F2120188422BD0FFE70021C1F22101D4
S315080007B0884225D0FFE70021C1F2220188421FD0D6
S315080007C0FFE70021C1F23101884219D0FFE7002175
S315080007D0C1F23201884213D02FE00898C06803900E
S315080007E02CE00898C0680430039027E00898C06891
S315080007F00830039022E00898C0680C3003901DE08A
S315080008000898806818B9FFE70420039011E0089853
S315080008108068012806D1FFE7082003900698099901
S31508000820086105E008200390069809994861FFE7E2
S31508000830FFE703E00020039000E0FFE70598FF28A4
S3150800084002D8FFE7099802E009980430FFE702900A
S315080008500598FF2803D8FFE70798800005E0079862
S315080008606FF01F0101EB8000FFE701900298006816
S3150800087001990F228A409043039A02FA01F108432C
S31508000880029908600898C079C006002840F1C1801E
S31508000890FFE7FFE741F21800C4F20200016841F0E1
S315080008A001010160006800F0010000900098FFE770
S315080008B0079820F003000821C4F20101405804906B
S315080008C0079800F0030080000F2101FA00F0049950
S315080008D021EA00000490099840F60001C4F20101DB
S315080008E0884202D1FFE700201FE0099840F6004140
S315080008F0C4F20101884202D1FFE7012014E00998F9
S3150800090041F20001C4F20101884202D1FFE7022048
S3150800091009E0099941F20042C4F201020420914219
S3150800092008BF0320FFE7FFE7FFE7079901F0030188
S31508000930890088400499084304900498079921F08F
S3150800094003010822C4F20102885008988079C0077A
S3150800095048B1FFE7059840F20041C4F201010A6870
S315080009601043086009E0059840F20041C4F201010D
S315080009700A6822EA00000860FFE70898807980077D
S31508000980002809D5FFE7059840F20441C4F20101A1
S315080009900A681043086009E0059840F20441C4F269
S315080009A001010A6822EA00000860FFE708988079D2
S315080009B0C006002809D5FFE7059840F20841C4F2A9
S315080009C001010A681043086009E0059840F20841E9
S315080009D0C4F201010A6822EA00000860FFE70898E5
S315080009E080798006002809D5FFE7059840F20C4172
S315080009F0C4F201010A681043086009E0059840F24C
S31508000A000C41C4F201010A6822EA00000860FFE707
S31508000A10FFE7FFE70798013007908EE60AB07047B0
S31508000A2083B041F20041C4F201010291ADF806001B
S31508000A300298C06800900098BDF8061000EA010206
S31508000A4021EA000040EA02400299086103B07047B3
S31508000A5083B041F20041C4F201010291ADF80600EB
S31508000A6000200090009828B1FFE7BDF8060002991B
S31508000A70086105E0BDF80600000402990861FFE771
S31508000A8003B0704740F25800C2F200000068704791
S31508000A9040F25800C2F20000016801310160704757
S31508000AA080B542F20000C4F20200016841F010016C
S31508000AB0016000F07DF8002000F004F800F02EF840
S31508000AC080BD000080B582B0009040F20400C2F2FA
S31508000AD00000006844F6D351C1F26201A0FB01018F
S31508000AE0880900F04FFE18B1FFE70120019013E0D6
S31508000AF000980F280AD8FFE7009800F041F80098F8
S31508000B0040F20801C2F20001086002E001200190EB
S31508000B1002E000200190FFE702B080BD83B0FFE746
S31508000B2041F21800C4F20200016841F001010160B7
S31508000B30006800F0010002900298FFE7FFE741F223
S31508000B401C00C4F20200016841F08051016000688F
S31508000B5000F0805001900198FFE7FFE70420C4F2F7
S31508000B60010001680091009921F0E0610091009967
S31508000B7041F08061009100990160FFE703B070477A
S31508000B8010B584B04FF0FF31039102900020019018
S31508000B90009001F0EBF80090039C00980299019AE6
S31508000BA000F086FF0146204601F0E8F804B010BDC3
S31508000BB080B582B003200190019801F0FDF802B0DB
S31508000BC080BD000080B584B0029000200190029894
S31508000BD018B9FFE70120039014E1019842F20001D9
S31508000BE0C4F20201096801F00701884215D9FFE736
S31508000BF042F20000C4F20200016821F00701019ADE
S31508000C0011430160006800F007000199884203D08B
S31508000C10FFE701200390F5E0FFE7029800788007D8
S31508000C2000282AD5FFE7029800784007002809D54A
S31508000C30FFE741F20400C4F20200016841F4E061F2
S31508000C400160FFE7029800780007002809D5FFE74A
S31508000C5041F20400C4F20200016841F460510160E7
S31508000C60FFE741F20400C4F20200016821F0F00136
S31508000C70029A926811430160FFE702980078C0075C
S31508000C8000285CD0FFE70298406801280DD1FFE7ED
S31508000C9041F20000C4F2020000688003002803D471
S31508000CA0FFE701200390ADE01FE0029840680228A4
S31508000CB00DD1FFE741F20000C4F20200006880018E
S31508000CC0002803D4FFE7012003909BE00CE041F2E3
S31508000CD00000C4F2020000688007002803D4FFE77A
S31508000CE0012003908EE0FFE7FFE741F20400C4F21B
S31508000CF00200016821F00301029A5268114301605B
S31508000D00FFF7C0FE0090FFE741F20400C4F20200BC
S31508000D10006800F00C0002994968B0EB810F0DD00D
S31508000D20FFE7FFF7AFFE0099401A41F28931884282
S31508000D3003D3FFE70320039064E0E5E7FFE70198A4
S31508000D4042F20001C4F20201096801F00701884273
S31508000D5015D2FFE742F20000C4F20200016821F052
S31508000D600701019A11430160006800F00700019924
S31508000D70884203D0FFE70120039043E0FFE702988B
S31508000D800078400700280CD5FFE741F20400C4F2BA
S31508000D900200016821F4E061029AD26811430160F9
S31508000DA0FFE702980078000700280DD5FFE741F213
S31508000DB00400C4F20200016821F46051029A126923
S31508000DC041EAC2010160FFE700F04AF841F2040176
S31508000DD0C4F202010968C9B2090942F2AA72C0F648
S31508000DE00002515CC84040F20401C2F200010860EA
S31508000DF040F20800C2F200000068FFF763FE002018
S31508000E000390FFE7039804B080BD000040F2040099
S31508000E10C2F200000068704780B5FFF7F7FF41F29D
S31508000E200401C4F202010968C1F3022142F2BA724E
S31508000E30C0F60002515CC84080BD000080B5FFF7CF
S31508000E40E5FF41F20401C4F202010968C1F3C221B7
S31508000E5042F2BA72C0F60002515CC84080BD00007A
S31508000E6080B590B04FF45060ADF83C0000200E906D
S31508000E7040F20671C0F608110D910021C0F2045126
S31508000E800C9140F60D61C1F20F010B9140F6092154
S31508000E90C0F60B410A9140F20561C0F607010991B7
S31508000EA040F20121C0F2034108910790069005908F
S31508000EB0049003900290019041F20400C4F20200EB
S31508000EC000680790079800F00C0000286DD0FFE72F
S31508000ED0042803D0FFE7082806D067E041F200207F
S31508000EE0C0F27A00039067E00798C0F383400CA924
S31508000EF0085C04909DF81E00C00700284AD0FFE74A
S31508000F0041F22C00C4F20200016801F00F0108AAA0
S31508000F10515C06910068C003002825D5FFE741F219
S31508000F202C00C4F202000168C9B2012202EB1111B9
S31508000F300291006800F47060022101EB1020019014
S31508000F4001980499A0FB010141F20022C0F27A023D
S31508000F50A0FB020301FB0231029A069BA2FB0323B4
S31508000F60FFF728F905900AE0049841F20021C0F23B
S31508000F707A0148430699B0FBF1F00590FFE704981B
S31508000F809DF83D10884204D1FFE705984008059072
S31508000F90FFE707E0049840F60011C0F23D01484318
S31508000FA00590FFE70598039006E0FFE741F2002069
S31508000FB0C0F27A000390FFE7039810B080BD0000E6
S31508000FC080B586B00490049818B9FFE7012005900B
S31508000FD0D5E304980078C007002800F0AB80FFE747
S31508000FE041F20400C4F20200006800F00C00042874
S31508000FF013D0FFE741F20400C4F20200006800F0D3
S315080010000C0008281AD1FFE741F20400C4F20200D6
S315080010100068C003002811D5FFE741F20000C4F2BA
S31508001020020000688003002807D5FFE70498806857
S3150800103018B9FFE701200590A1E37AE0FFE70498D5
S315080010408068B0F5803F09D1FFE741F20000C4F29D
S315080010500200016841F48031016032E0049880683A
S3150800106068B9FFE741F20000C4F20200016821F402
S3150800107080310160016821F48021016020E0049834
S315080010808068B0F5A02F0DD1FFE741F20000C4F249
S315080010900200016841F480210160016841F4803151
S315080010A001600CE041F20000C4F20200016821F47C
S315080010B080310160016821F480210160FFE7FFE7C4
S315080010C0FFE7FFE704988068C8B1FFE7FFF7DAFC97
S315080010D00390FFE741F20000C4F2020000688003B3
S315080010E000280BD4FFE7FFF7CDFC0399401A6528C3
S315080010F003D3FFE70320059041E3EBE718E0FFF78A
S31508001100C1FC0390FFE741F20000C4F20200006848
S31508001110800300280BD5FFE7FFF7B4FC0399401AB4
S31508001120652803D3FFE70320059028E3EBE7FFE7ED
S31508001130FFE7FFE7049800788007002840F18A80D7
S31508001140FFE741F20400C4F20200006810F00C0F39
S3150800115013D0FFE741F20400C4F20200006800F071
S315080011600C00082828D1FFE741F20400C4F2020067
S315080011700068C00300281FD4FFE741F20000C4F24C
S31508001180020000688007002808D5FFE70498406930
S31508001190012803D0FFE701200590F0E241F20000A4
S315080011A0C4F20200016821F0F801049A926941EA42
S315080011B0C2010160FFE74CE00498406950B3FFE7BD
S315080011C00020C4F2422001210160FFF75BFC039076
S315080011D0FFE741F20000C4F2020000688007002819
S315080011E00BD4FFE7FFF74EFC0399401A032803D3F5
S315080011F0FFE703200590C2E2EBE741F20000C4F2E4
S315080012000200016821F0F801049A926941EAC201D4
S3150800121001601DE00020C4F2422000210160FFF7B2
S3150800122031FC0390FFE741F20000C4F202000068B7
S31508001230800700280BD5FFE7FFF724FC0399401A1F
S31508001240032803D3FFE70320059098E2EBE7FFE7BF
S31508001250FFE7FFE7049800780007002845D5FFE771
S315080012600498C06908B3FFE740F28040C4F2422000
S3150800127001210160FFF706FC0390FFE741F2240015
S31508001280C4F202000068800700280BD4FFE7FFF7C6
S31508001290F9FB0399401A032803D3FFE703200590B7
S315080012A06DE2EBE700F038FC1EE040F28040C4F245
S315080012B0422000210160FFF7E5FB0390FFE741F2BA
S315080012C02400C4F202000068800700280BD5FFE757
S315080012D0FFF7D8FB0399401A032803D3FFE7032037
S315080012E005904CE2EBE7FFE7FFE704980078400734
S315080012F0002840F1D280FFE70020019041F21C004F
S31508001300C4F202000068C000002812D4FFE7FFE715
S3150800131041F21C00C4F20200016841F080510160EC
S31508001320006800F0805000900098FFE701200190C7
S31508001330FFE747F20000C4F200000068C005002875
S3150800134021D4FFE747F20000C4F20000016841F427
S3150800135080710160FFF796FB0390FFE747F20000F4
S31508001360C4F200000068C00500280BD4FFE7FFF7A9
S3150800137089FB0399401A652803D3FFE703200590E4
S31508001380FDE1EBE7FFE7FFE704980069012809D1CB
S31508001390FFE741F22000C4F20200016841F00101B2
S315080013A0016031E00498006968B9FFE741F220005E
S315080013B0C4F20200016821F001010160016821F010
S315080013C0040101601FE00498006905280DD1FFE7B4
S315080013D041F22000C4F20200016841F004010160F4
S315080013E0016841F0010101600CE041F22000C4F2FD
S315080013F00200016821F001010160016821F0040181
S315080014000160FFE7FFE7FFE7FFE704980069D8B147
S31508001410FFE7FFF737FB0390FFE741F22000C4F22E
S3150800142002000068800700280DD4FFE7FFF72AFBB3
S315080014300399401A41F28931884203D3FFE7032012
S3150800144005909CE1E9E71AE0FFF71CFB0390FFE72C
S3150800145041F22000C4F202000068800700280DD57A
S31508001460FFE7FFF70FFB0399401A41F289318842DB
S3150800147003D3FFE70320059081E1E9E7FFE7019839
S31508001480012809D1FFE741F21C00C4F202000168F5
S3150800149021F080510160FFE7FFE70498C06A002841
S315080014A000F0B280FFE741F20400C4F202000068CF
S315080014B0C003002816D5FFE741F20400C4F2020073
S315080014C0006800F00C0008280CD1FFE741F22C0058
S315080014D0C4F202000068C003002803D5FFE7012014
S315080014E005904CE10498C06A022865D1FFE741F2ED
S315080014F00000C4F202000068C00000280FD5FFE70C
S3150800150041F22C00C4F20200006800F0F0000499D1
S31508001510496B884203D0FFE7012005902FE1682038
S31508001520C4F2422000210160FFF7ACFA0390FFE7FE
S3150800153041F20000C4F202000068000100280BD541
S31508001540FFE7FFF79FFA0399401A652803D3FFE7D9
S315080015500320059013E1EBE741F22C00C4F20200E8
S31508001560016821F0F001049A526B11430160016889
S3150800157021F47061049A126B114301606820C4F269
S31508001580422001210160FFF77DFA0390FFE741F24F
S315080015900000C4F202000068000100280BD4FFE72F
S315080015A0FFF770FA0399401A652803D3FFE703206B
S315080015B00590E4E0EBE725E041F22C00C4F20200D6
S315080015C0016821F4803101606820C4F242200021BC
S315080015D00160FFF757FA0390FFE741F20000C4F2F3
S315080015E002000068000100280BD5FFE7FFF74AFA5A
S315080015F00399401A652803D3FFE703200590BEE048
S31508001600EBE7FFE7FFE7FFE70498006A002800F02A
S31508001610B380FFE741F20400C4F20200006800F05C
S315080016200C00082800F08480FFE70498006A022866
S315080016305FD1FFE76020C4F2422000210160FFF776
S3150800164021FA0390FFE741F20000C4F202000068A5
S31508001650800100280BD5FFE7FFF714FA0399401A13
S31508001660032803D3FFE70320059088E0EBE70498F7
S31508001670406AB0F5803F11D1FFE70498406841F20F
S315080016802C01C4F202010A6810430860086820F0B9
S315080016900F00049AD26810430860FFE741F204007D
S315080016A0C4F20200016821F47411049A536A926A1A
S315080016B01A43114301606020C4F2422001210160EF
S315080016C0FFF7E0F90390FFE741F20000C4F20200D9
S315080016D00068800100280BD4FFE7FFF7D3F90399C8
S315080016E0401A032803D3FFE70320059047E0EBE7FA
S315080016F01DE06020C4F2422000210160FFF7C2F914
S315080017000390FFE741F20000C4F20200006880017E
S3150800171000280BD5FFE7FFF7B5F90399401A032808
S3150800172003D3FFE70320059029E0EBE7FFE722E074
S315080017300498006A012803D1FFE7012005901EE0FE
S3150800174041F20400C4F2020000680290029800F414
S3150800175080300499496A884208D1FFE7029800F464
S3150800176070100499896A884203D0FFE70120059022
S3150800177005E0FFE7FFE7FFE700200590FFE705988C
S3150800178006B080BD80B582B00190019800F0E4F9FA
S3150800179002B080BD80B582B040F21000C2F20000EF
S315080017A00090009818B9FFE70120019038E00098EA
S315080017B0806908B1FFE700E0FFE70098C06B38B919
S315080017C0FFE7009800218163009800F02DF8FFE7F5
S315080017D000982421C16300980068C16821F400516B
S315080017E0C160009800F01CFA00980068016921F4AD
S315080017F09041016100980068416921F02A01416120
S3150800180000980068C16841F40051C1600098002141
S31508001810416400982022C263009802640191FFE7A0
S31508001820019802B080BD0000B0B588B007900020CE
S3150800183006900590049003900798006843F6000107
S31508001840C4F20101884239D1FFE7FFE741F21800E7
S31508001850C4F20200016841F480410160006800F4A6
S31508001860804002900298FFE7FFE741F21800C4F2B1
S315080018700200016841F004010160006800F00400FC
S3150800188001900198FFE74FF400700390022004903E
S315080018900320069040F60004C4F2010403AD204676
S315080018A02946FEF743FF4FF480600390002004901A
S315080018B0059020462946FEF739FFFFE708B0B0BD78
S315080018C080B588B040F21001C2F200010691059079
S315080018D00120ADF81200022003900020009006981F
S315080018E0C06B202840F08080FFE7059820B1FFE70D
S315080018F0BDF8120018B9FFE70120079077E0FFE767
S315080019000698806B012803D1FFE7022007906EE056
S31508001910069801218163FFE7FFE7069800214164E5
S3150800192006982121C163FFF7ADF80090BDF81200B3
S3150800193006998884BDF812000699C88406988068B6
S31508001940B0F5805F09D1FFE70698006928B9FFE777
S31508001950002002900598019004E005980290002066
S315080019600190FFE7FFE7069800218163FFE7FFE79D
S315080019700698C08C38B3FFE70698009A039B802127
S3150800198000F0ACF918B1FFE7032007902FE00298A2
S3150800199058B9FFE7019800886FF35F200699096830
S315080019A0486001980230019008E00298007806998C
S315080019B009684860029801300290FFE70698C18CD2
S315080019C00139C184D4E70698009A039B402100F0A8
S315080019D085F918B1FFE70320079008E0069820214B
S315080019E0C1630020079002E002200790FFE708B0D5
S315080019F080BD0000FFE7FEE710B586B00020059021
S31508001A00049003900290FFE741F21800C4F2020026
S31508001A10016841F004010160006800F004000190CB
S31508001A200198FFE7FFE741F21800C4F202000168D7
S31508001A3041F020010160006800F020000090009845
S31508001A40FFE79C249C20FFF703F8029401200390EB
S31508001A50002004900220059041F20040C4F20100E3
S31508001A6002A9FEF763FE06B010BD000080B540F27D
S31508001A701000C2F2000043F60001C4F20101016041
S31508001A804FF41651416000218160C16001610C224A
S31508001A9042618161C161FFF77DFE18B1FFE7AFF3CF
S31508001AA00080FFE780BD0000FFE7FEE77047000003
S31508001AB086B0059004910392059800F007000290FD
S31508001AC00298C0F10700052802D3FFE7042003E0C7
S31508001AD00298C0F10700FFE7019002980430062833
S31508001AE002D8FFE7002002E002980338FFE70090DB
S31508001AF004980199012202FA01F101390840009976
S31508001B008840039B02FA01F101391940084306B0DF
S31508001B10704700007047000082B0012001900198CC
S31508001B2040F20401C2F200010968C90844F6D3521A
S31508001B30C1F26202A1FB0212910948430090FFE735
S31508001B4000BFFFE70098411E00910028F8D1FFE783
S31508001B5002B070477047000080B582B000900098C8
S31508001B600138B0F1807F03D3FFE70120019019E027
S31508001B70009801384EF21401CEF2000108604FF0C9
S31508001B80FF300F2100F0FAF84EF21800CEF20000EE
S31508001B90002101604EF21000CEF20000072202601A
S31508001BA00191FFE7019802B080BD000080B5FEF7FD
S31508001BB06FFF80BD10B594B006AC20463821FEF7FD
S31508001BC08AFD00200590049003900290019002215E
S31508001BD0069101210B9110210C910E90119020462F
S31508001BE0FFF7EEF918B1FFE7AFF30080FFE70F2024
S31508001BF001900020029003900490059001A8FEF73A
S31508001C00E1FF18B1FFE7AFF30080FFE77020C4F2E9
S31508001C1042200121016014B010BD00007047000089
S31508001C2080B584B0039003980068006920F440509A
S31508001C3003990A68C96808431061039881680269AC
S31508001C40406911430843029003980068C06841F24E
S31508001C500C6188430299084303990968C860039888
S31508001C600068406920F4407003990A688969084346
S31508001C7050610398006843F60001C4F201018842E6
S31508001C8004D1FFE7FFF7DAF8019003E0FFF7C4F89D
S31508001C900190FFE701981921484303990A684968A2
S31508001CA08900B0FBF1F048F21F5CC5F2EB1CA0FB03
S31508001CB00C314909642301FB1300322303EB00109E
S31508001CC0A0FB0C03F02000EA531000EB0110C3F34D
S31508001CD043110844906004B080BD000080B586B00A
S31508001CE0049003910020029001920093FFE7049864
S31508001CF00068006803990840401AB0FA80F0400965
S31508001D00029988422AD1FFE70098013028B3FFE7F5
S31508001D10009840B1FFE7FEF7B5FE0199401A009911
S31508001D20884219D9FFE704980068C16821F4D07180
S31508001D30C16004980068416921F001014161049875
S31508001D402021C16304980164FFE704980021816398
S31508001D50FFE70320059004E0FFE7C8E700200590A9
S31508001D60FFE7059806B080BDFFE7FEE74EF60C5084
S31508001D70CEF200000068C0F30220704782B00190DE
S31508001D8000910198002809D4FFE7009800010199FD
S31508001D904EF20042CEF2000288540AE00098000192
S31508001DA0019901F00F014EF61452CEF20002885442
S31508001DB0FFE702B07047000083B00290029800F077
S31508001DC0070000904EF60C50CEF200000168019113
S31508001DD001994FF6FF02114001910199009A41EAD3
S31508001DE002210022C0F2FA521143019101990160C1
S31508001DF003B0704780B50420FEF72AFE0820FEF7D8
S31508001E0027FE1020FEF724FE8020FEF721FE80BD67
S31508001E1080B584B00390029103988DF807000DF100
S31508001E200700FFF74DFD039804B080BD80B582B06A
S31508001E304FF47A700190FFF7DDFF0420FEF7F0FDFE
S31508001E400198FEF757FCFFF7D5FF0820FEF7E8FDD7
S31508001E500198FEF74FFCFFF7CDFF1020FEF7E0FDD7
S31508001E600198FEF747FCFFF7C5FF8020FEF7D8FD6F
S31508001E700198FEF73FFC02B080BD000082B000204A
S31508001E800190FEF70DFEFFF795FEFFF7B5FDFFF78C
S31508001E90EDFD42F2C270C0F6000000F005F8FFE75B
S31508001EA0FFF7C4FFFCE700000FB4054B10B503A904
S31508001EB0044A029800F0DAF810BC5DF814FB00003A
S31508001EC0111E00080000002002E008C8121F08C101
S31508001ED0002AFAD170477047002001E001C1121F9D
S31508001EE0002AFBD1704700002DE9FF5F82B0002170
S31508001EF0DDE90430020DDDF840B0034318D044F69E
S31508001F001050A2F2FF3242431514119801281FD02F
S31508001F10A5EB0B00401C5FEA000A4FF000064E4F87
S31508001F20DFF83891B046504615D5CAF1000413E0DB
S31508001F30119801244AA3012801D16FEA0B010298DE
S31508001F40119AC0E90031C0E9024206B0BDE8F09F27
S31508001F50CBF10000DFE704460021404A491842EB6E
S31508001F600450CDE9001012E0E00707D032463B46A0
S31508001F7040464946FEF7F6F98046894632463B46CC
S31508001F8010461946FEF7EEF906460F466410002C71
S31508001F90EAD1DDE90401DDE90023BAF1000F06DA2A
S31508001FA0FEF7E0F942464B46FEF7DCF905E0FEF798
S31508001FB04BFA42464B46FEF747FA04460E460022BF
S31508001FC0284BFEF7C9FA03D84FF0FF30014607E061
S31508001FD00022254B20463146FEF71DF9FEF7A3FAE7
S31508001FE0102409E0002C0ADB0A220023FEF7E2F897
S31508001FF0039B30321A55641E50EA0102F2D1641C62
S31508002000039AC4F111031444119A012A03D0012238
S3150800201008430DD10AE0084304D000204FF0110B05
S31508002020119072E7A3EB0B056D1E0DE05B4504DD11
S315080020304FF0000205F1010504E003DA4FF0000253
S31508002040A5F10105002AECD002981199C0E90231E0
S31508002050C0E9004579E70000000014400000F03FA1
S31508002060300000000000F0430000E03F2DE9FF4F7C
S3150800207095B09B468946064600250FE2252877D166
S3150800208000242746F84A0121059400E0044316F87F
S31508002090013F203B01FA03F01042F7D130782A2895
S315080020A011D06FF02F033078A0F13002092A16D824
S315080020B0059A44F0020402EB820203EB4202104442
S315080020C0761C0590EFE759F8042B0592002A03DAE7
S315080020D0504244F40054059044F00204761C3078CB
S315080020E02E2816D116F8010F44F004042A280DD01C
S315080020F06FF02F023078A0F13003092B09D807EBCF
S31508002100870302EB4303C718761CF3E759F8047BE9
S31508002110761C30786C280FD006DC4C2817D0682837
S315080021200DD06A2814D104E0742810D07A280FD16B
S315080021300DE044F400140AE044F4801401E044F489
S3150800214040147278824202D104F58014761C761CFB
S31508002150307866280BD013DC582877D009DC00289D
S3150800216075D04528F6D04628F4D047281AD19DE1DF
S3150800217018E0632835D0642879D0652812D195E10E
S31508002180702873D008DC6728F1D069286FD06E28CC
S315080021900DD06F2806D1B5E073282CD0752875D0D8
S315080021A0782874D05A46179990476D1C75E1C4F380
S315080021B00250022809D003280DD0D9F800100428A7
S315080021C00DD00D6009F1040967E1D9F80010EA1786
S315080021D0C1E90052F6E7D9F800100D80F2E70D7054
S315080021E0F0E719F8041B8DF8001000208DF801009F
S315080021F0EA46012003E059F804AB4FF0FF306107C7
S315080022004FF0000102D40DE008F101018846B942F9
S315080022100FDA8045F8DB1AF808100029F4D108E02F
S3150800222008F1010188468142FADB1AF808100029EC
S31508002230F6D105985B46A0EB080721463846179A5B
S3150800224000F094FA284400EB080507E04DE029E180
S315080022500DE01AF8010B5A4617999047B8F101088C
S31508002260F7D25B4621463846179A13E142E00A221E
S315080022700092C4F302524FF0000A022A08D059F815
S3150800228004CB032A4FEAEC710AD00DE029E02AE0D4
S3150800229009F1070121F00702F2E802C1914609E0B7
S315080022A00FFA8CFC4FEAEC71042A03D14FFA8CFC26
S315080022B04FEAEC71002907DA0A460021DCF1000C26
S315080022C061EB02012D2202E0220504D52B228DF8AE
S315080022D00420012203E0E20701D02022F7E7904616
S315080022E059E00A2102E010220DE010214FF0000A01
S315080022F000910BE010224FF0000A44F0040408276E
S31508002300009203E008224FF0000A0092C4F302523A
S31508002310022A05D059F804CB0021032A08D009E07F
S3150800232009F1070121F00702F2E802C1914605E02A
S315080023301FFA8CFC042A01D10CF0FF0C4FF00008A0
S31508002340220728D5702806D0009B83F0100353EA8D
S315080023500A0305D00EE040228DF80420012208E089
S315080023605CEA010206D030228DF804208DF80500BB
S3150800237002229046009B83F0080353EA0A030AD117
S315080023805CEA010201D1620705D530228DF80420E6
S315080023904FF001087F1E582804D034A003900EA8D9
S315080023A002900DE036A0F9E753466046009AFDF71D
S315080023B001FF84460398825C0298401E02900270D0
S315080023C05CEA0100F0D1029806A9081A00F1200A71
S315080023D0600702D524F4803400E00127574502DD62
S315080023E0A7EB0A0000E0002000EB0A010090059820
S315080023F04144401A0590E00306D45B462146179AE5
S31508002400059800F0B3F90544002706E001A85A46E6
S31508002410C05D179990476D1C7F1C4745F6DBE003A6
S315080024200CD55B462146179A059800F09FF9054496
S3150800243004E030205A46179990476D1C0099481EAB
S3150800244000900029F5DC08E0029802995A460078BF
S31508002450491C0291179990476D1CBAF10001AAF11F
S31508002460010AF1DC65E10000092801003031323348
S3150800247034353637383961626364656600000000B2
S31508002480303132333435363738394142434445469C
S315080024900000000000F058F90544761C3078002842
S315080024A07FF4ECAD19B02846BDE8F08F620700D47A
S315080024B0062709F1070222F0070CFCE80223E14689
S315080024C003F000485FEA080C02D00FF2702C0DE00A
S315080024D05FEA045C02D50FF2682C07E05FEAC47C69
S315080024E002D00FF2602C01E0AFF2700C4FF0FF380B
S315080024F023F00043CDF850C065280CD006DC4528EB
S3150800250009D046281DD047283DD13DE0662818D079
S3150800251067287ED138E00021112F01DB112000E069
S31508002520781CCDE9000106A90EA8FFF7DDFCDDE958
S315080025300F010E9A03910021009207F1010A0491F6
S315080025404DE04FF000400097CDE9011006A90EA80E
S31508002550FFF7CAFCDDE90F0203920E9B11990022D0
S31508002560DDF80CA00093049211B9791C00EB010A5E
S31508002570B7EB0A0004D4C0F1FF3007F1010A049052
S31508002580AAEB0700019044E0012F00DA0127002199
S31508002590112F01DD112000E03846CDE9000106A91A
S315080025A00EA8FFF7A1FCDDE90F010E9A03910021A1
S315080025B004910092BA4621070CD40399514500DAD2
S315080025C08A46BAF1010F05DD009AAAF10101515CAC
S315080025D0302908D0B84202DA10F1040F06DA0121D0
S315080025E0CDE9011015E0AAF10101E9E7002805DCAB
S315080025F0049901440491AAEB000102E0411C5145EB
S3150800260000DD8A460499401A401C01904FF00040AC
S315080026100290200704D40198504501DBCDF80480C8
S3150800262000208DF84F0002980DF14F07B0F1004FCA
S3150800263025D02B200E9002984FF0020800280CDABD
S31508002640404202902D200E9007E00A210298FDF7DD
S315080026509BFD3031029007F8011DB8F10001A8F181
S315080026600108F2DC02980028EFD1791E0E9808704E
S31508002670307800F0200040F0450007F8020D12A857
S31508002680C01B00F107081498007800B1012000EB80
S315080026900A01019801EBE07105984144401A401E71
S315080026A00590E00306D45B462146179A059800F084
S315080026B05DF805441498007818B15A46179990475A
S315080026C06D1CE00324D55B462146179A059800F051
S315080026D04DF805441CE00498002807DBDDE90301F2
S315080026E0884203DD0098405C179901E0179930206D
S315080026F05A469047049805F10105401C0490019834
S31508002700401E019004D12E205A46179990476D1CF9
S31508002710BAF10001AAF1010ADDDC05E017F8010BA0
S315080027205A46179990476D1CB8F10001A8F101089F
S31508002730F4DC5B462146179A0598ABE62D000000A7
S315080027402B000000200000002DE9F041044600257A
S315080027501E461746880404D405E039462020B047AB
S315080027606D1C641EF9D52846BDE8F0812DE9F041B7
S31508002770044600251E469046C80301D5302700E0CA
S315080027802027880404D505E041463846B0476D1C25
S31508002790641EF9D52846BDE8F08101020304050642
S315080027A00708090A0B0C0D0E0F10000000000000A8
S315080027B000000102030406070809000000000102E0
S315080027C003045B2E2F5372632F6D61696E2E635D52
S315080027D00920494E464F3A696E697420646F6E65E2
S315080027E00D0A00000828000800000020100000005C
S315080027F0C81E000818280008100000205004000011
S31508002800D81E000800000000000000000024F400A4
S30D080028101000000000000000A2
S70508000151A0
