:020000040800F2
:100000001004002065010008DF0A0008750A0008D6
:10001000DD0A0008AD0100081D0C0008000000000A
:10002000000000000000000000000000530B00086A
:10003000AF01000800000000510B0008550B00083C
:100040007F0100087F0100087F0100087F01000890
:100050007F0100087F0100087F0100087F01000880
:100060007F0100087F0100087F0100087F01000870
:100070007F0100087F0100087F0100087F01000860
:100080007F0100087F0100087F0100087F01000850
:100090007F0100087F0100087F0100087F01000840
:1000A0007F0100087F0100087F0100087F01000830
:1000B0007F0100087F0100087F0100087F01000820
:1000C0007F0100087F0100087F0100087F01000810
:1000D0007F0100087F0100087F0100087F01000800
:1000E0007F0100087F0100087F0100080000000078
:1000F0000000000000000000000000000000000000
:1001000000000000000000007F0100087F010008DF
:100110007F0100087F0100087F0100087F010008BF
:100120007F0100087F0100087F0100087F010008AF
:100130007F0100087F0100087F0100087F0100089F
:100140007F0100087F0100087F0100087F0100088F
:10015000DFF80CD000F018F8004800471F0C00082A
:10016000100400200648804706480047FEE7FEE7E7
:10017000FEE7FEE7FEE7FEE7FEE7FEE7FEE7FEE757
:10018000C50B000851010008064C074D06E0E06869
:1001900040F0010394E8070098471034AC42F6D3CE
:1001A000FFF7DAFFE00C0008000D0008FEE77047DB
:1001B000BCB5019000F0E4F804460198451C28BF46
:1001C0004FF0FF3500F0DCF8001BA842FAD3BCBDAD
:1001D0002DE9FC4F5B4A04234FF0000B4FF0010860
:1001E0004FF00F0E4FF00009904208BF0323009319
:1001F0000025102D08BFBDE8FC8F0B6808FA05F23A
:10020000134200F09B804F68032F16D9112F24D082
:10021000122F26D04E4B9F4213D04E4B9F4210D0F0
:100220004D4B9F420DD04D4B9F420AD04C4B9F42AD
:1002300007D04C4B9F4204D020E0DFE807F00216C5
:10024000191D8B6833B1012B14BF426102614FF05D
:10025000080913E04FF0040910E0CB6803F104092A
:100260000CE0CB6803F10C0908E0D1F80C9005E034
:10027000CB6803F1080901E04FF000095B46064630
:10028000082D28BF203B28BF043637680EFA03F438
:1002900009FA03F327EA040423433360CB79DB062E
:1002A0004CD56C4C284E0BF00C0C2368A6F57E76D2
:1002B00043F001032360236803F0010301930EFA66
:1002C0000CF3019CAC0856F8247027EA030A264B6D
:1002D000984208D0254B984207D0254B9842009B66
:1002E00008BF022302E0002300E0012303FA0CF31D
:1002F00043EA0A0346F82430134C4F68FB0302D448
:100300002368934301E0236813432360BB0302D4B3
:100310006368934301E0636813436360FB0202D4A4
:10032000A368934301E0A3681343A360074CBB0297
:10033000236854BF23EA02021A4322600BF1040B24
:10034000013556E700140140000401400C0401404F
:1003500000001110000012100000211000002210F7
:10036000000031100000321000080140000C014074
:1003700000100140002A08BF090401617047000015
:1003800004480068704700BF0248016801310160FD
:10039000704700BF0800002080B59548016841F013
:1003A00010010160032000F077F8002000F004F84D
:1003B00000F014F8002080BD10B5044691484FF4B9
:1003C0007A710068B0FBF1F000F03EFB4FF0FF30B7
:1003D0002146002200F044F8002010BD1CB51D4845
:1003E000016841F001010160016801F00101019122
:1003F0000199416841F080514160406800F08050AF
:1004000000900098032000F047F8134C6FF00B00A9
:1004100000F076FB6FF00A0000F072FB6FF009004D
:1004200000F06EFB6FF0040000F06AFB6FF0030059
:1004300000F066FB6FF0010000F062FB4FF0FF3050
:1004400000F05EFB0548016821F0E0610160016891
:1004500001601CBD18100240610400080400014046
:1004600070B5134B4FF0FF351B68C3F30223DC1E3E
:1004700083F0070338BF002405FA04F6B243042BC7
:1004800028BF042305FA03F39943A1401143BDE8B3
:10049000704000F025BB00BF05494FF6FF030A6816
:1004A0001A4060F30A22034810430860704700BFF7
:1004B0000CED00E00000FA052DE9F8430D464C492B
:1004C0000446086800F00700A84209D2086820F036
:1004D000070028430860086800F00700A84249D1D7
:1004E0002068444F8946810705D5A1683A6822F003
:1004F000F00211433960C00733D1D9F8000000F091
:100500000700A8420CD9D9F8000020F007002843C2
:10051000C9F80000D9F8000000F00700A84229D16E
:100520002068410705D5E1683A6822F4E06211438A
:100530003960000706D52069396821F4605141EA25
:10054000C000386000F060F839682B4A0024C1F31D
:100550000311515CC8402B4908600020FFF72CFFB5
:1005600009E06068022809D001283BD157F8041C33
:10057000890307D401242046BDE8F88357F8041CFA
:100580008901F7D5396821F0030108433860FFF786
:10059000F7FE0646606841F2883801280CD0022830
:1005A0001BD1386800F00C000828A6D0FFF7E8FE41
:1005B000801B4045F5D909E0386800F00C0004289C
:1005C0009BD0FFF7DDFE801B4045F5D90324D2E721
:1005D000FFF7D6FE801B4045F8D8386810F00C0FA6
:1005E000F6D18AE757F8041C8907C3D5CAE700BFCC
:1005F0000020024004100240CE0C000801480068B0
:10060000704700BF00000020B0B5164B164853F8E5
:10061000284C04F00C01082907D1C4F3834113A22C
:10062000E403525C02D419485043B0BD1C6813A5C2
:1006300004F00F042C5D1D68ED030AD51D681B68CE
:10064000C5F30315C3F3032301350233B0FBF5F003
:100650005843B0FBF4F00D39B1FA81F15043490928
:10066000C840B0BD2C10024000127A000000040502
:100670000607080900000000000D00000102030445
:1006800005060708090A0B0C0D0E0F1000093D00A6
:100690002DE9FC4104460078CD4EC0070BD07068B0
:1006A00000F00C00042836D13068800303D5A06820
:1006B000002800F06B812078800717D5706810F053
:1006C0000C0F05D000F03BFA3AD17068C00337D464
:1006D0003068800703D56069012840F05781A06920
:1006E000316821F0F80141EAC0003060207800074D
:1006F00056D5E069B8B3CB480121C0F88014FFF7A4
:100700003FFE0546706A80073DD4FFF739FE401B67
:100710000228F7D916E100F012FA02D17068C0037E
:10072000C2D4A068002800F0E880B0F5A02F00F047
:10073000F580B0F5803F00F0F58000F0E8F9F4E0D6
:100740006169B848002900F0988001210160FFF735
:1007500017FE054630688007C1D4FFF711FE401B25
:100760000228F7D9EEE0AF480021C0F88014FFF767
:1007700007FE0546706A800712D5FFF701FE401B91
:100780000228F7D9DEE0A8484FF4FA510068B0FB20
:10079000F1F0019000BF0198411E00280191F9D1AC
:1007A000207840072BD4E06A002800F0E9807168C7
:1007B000C90308D5716801F00C01082903D1F16A59
:1007C000C90300F1E380022843D13068C00006D598
:1007D000606BF16A01F0F001814240F0D780914FE7
:1007E0000020B866FFF7CCFD05463068000140F1F7
:1007F000AC80FFF7C5FD401B6428F6D9A2E0F06984
:1008000010F0805808D1F06940F08050F061F06934
:1008100000F0805000900098844F3868C0050FD4D5
:10082000386840F480703860FFF7AAFD05463868E4
:10083000C00505D4FFF7A4FD401B6428F7D981E06B
:10084000206948B3052839D001283BD000F06BF966
:100850003BE0F06A002120F48030F062714881664C
:10086000FFF78EFD05463068000140F18980FFF7F3
:1008700087FD401B6428F6D964E000210160FFF782
:100880007FFD0546306880077FF530AFFFF778FDC4
:10089000401B0228F6D955E000F045F93062FFF719
:1008A0006FFD054641F28837306A80071CD5FFF797
:1008B00067FD411B0320B942F6D9AEE0306A40F033
:1008C00004003062306A40F001003062FFF758FDEA
:1008D000054641F28837306A800705D4FFF750FD9E
:1008E000401BB842F7D92DE0B8F1000F7FF45BAFA1
:1008F000F06920F08050F06155E700F008F93060B1
:10090000FFF73EFD0546306880037FF5D4AEFFF764
:1009100037FD411B03206429F5D97EE0306840F49F
:1009200080203060306840F480303060FFF728FD70
:100930000546306880033FF5BEAEFFF721FD401B42
:100940006428F6D90320BDE8FC81D4E90C01F26AE1
:1009500022F0F0021143F162F16A21F47061084360
:10096000F0620120B866FFF70BFD05463068000114
:1009700006D4FFF705FD411B03206429F6D94CE09E
:10098000276A002F4BD000F0DAF802D10120BDE831
:10099000FC812449002088460866FFF7F1FC0546E3
:1009A000022F0AD147463068800113D5FFF7E8FCD3
:1009B000411B03200229F6D92FE0306880012ED593
:1009C000FFF7DEFC411B03200329F6D325E000BF1F
:1009D00000100240606AB0F5803F09D16168E268AA
:1009E000F36A1943F162F16A21F00F011143F162D8
:1009F000A16A0843716821F47411084370600120F2
:100A00003866FFF7BDFC04463068800107D4FFF765
:100A1000B7FC011B03200229F6D9BDE8FC810020A8
:100A2000BDE8FC8100004242000000200070004050
:100A30000D4904280A6822F0040208BF04320A6043
:100A4000704700BF70470000411E0020B0EB116FDF
:100A500001D001207047044AF023516003490B7014
:100A6000072190601160704710E000E023ED00E086
:100A7000FFF7E8BFFEE70000BFB51748894C00222A
:100A80009C25016841F004010160016801F0040146
:100A900000910099016841F020010160016801F0B6
:100AA000200100910099016841F0080101609C213A
:100AB000006800F00800009000982046FFF75AFCFC
:100AC00002206946039001200290CDE900502046A3
:100AD000FFF77EFBBFBD00BF18100240FEE7704766
:100AE00010B5054A002800F00F03044C024448BF2B
:100AF0001A190801107010BD00E400E014ED00E0C8
:100B00000021002220472846082101223047306872
:100B100020F480303060306820F480207047284610
:100B2000802101223047306A20F001003062306AB3
:100B300020F00400704728460421012230477068E5
:100B400000F00C0008287047284610210122304789
:100B50007047704780B5FFF717FCBDE88040FFF78E
:100B600087BF0000B0B594B01020002501240C9080
:100B7000022011950E950B94069006A8FFF788FDAC
:100B80000F20029500210190CDE90355059501A89C
:100B9000FFF792FCFFF732FD4FF47A71B0FBF1F0F2
:100BA000FFF752FF0420FFF743FF05480021002212
:100BB00004604FF0FF30FFF753FC14B0B0BD00BF2E
:100BC000700042421148124A016841F0010101607F
:100BD000416811400F4A416001681140016001689D
:100BE00021F480210160416821F4FE014160016827
:100BF00021F0A05101604FF47F0181600021C162AA
:100C000005484FF000610160704700BF00100240CE
:100C10000000FFF0FFFFF6FE08ED00E0FEE7FFF743
:100C2000BBFBFFF79FFFFFF727FF4FF47A7000F041
:100C300001F8FAE7F8B51B4D1B4E044604210022CB
:100C40002846B047FFF75FFFFFF77EFFFFF767FF1C
:100C5000164F2046B847FFF76EFF284608210022AE
:100C6000B047FFF771FFFFF75AFF2046B847FFF77D
:100C700062FFFFF748FF284610210022B047FFF728
:100C80004EFF2046B847FFF756FFFFF73CFFFFF740
:100C90005BFF284680210022B04720463946BDE848
:100CA000F84008470014014075030008B10100082E
:100CB00002E008C8121F08C1002AFAD17047704725
:100CC000002001E001C1121F002AFBD17047000083
:100CD00000000000000001020304060708090000EC
:100CE000000D00080000002008000000B00C000803
:100CF000080D00080800002008040000C00C0008CF
:080D000000A24A0400000000FB
:04000005080001519D
:00000001FF
