:020000040800F2
:100000000804002069010008E7020008DF02000878
:10001000E3020008B1010008C1040008000000006C
:100020000000000000000000000000000D030008B8
:10003000B501000800000000E902000831040008D2
:100040008301000883010008830100088301000880
:100050008301000883010008830100088301000870
:100060008301000883010008830100088301000860
:100070008301000883010008830100088301000850
:100080008301000883010008830100088301000840
:100090008301000883010008830100088301000830
:1000A0008301000883010008830100088301000820
:1000B0008301000883010008830100088301000810
:1000C0008301000883010008830100088301000800
:1000D00083010008830100088301000883010008F0
:1000E000830100088301000883010008000000006C
:1000F0000000000000000000000000000000000000
:1001000000000000000000008301000883010008D7
:1001100083010008830100088301000883010008AF
:10012000830100088301000883010008830100089F
:10013000830100088301000883010008830100088F
:10014000830100088301000883010008830100087F
:10015000DFF810D000F01AF800480047CD09000879
:10016000AFF3008008040020064880470648004797
:10017000FEE7FEE7FEE7FEE7FEE7FEE7FEE7FEE757
:10018000FEE7FEE75504000851010008064C074D44
:1001900006E0E06840F0010394E807009847103457
:1001A000AC42F6D3FFF7D8FF340A0008540A00081F
:1001B00000BFFEE770472DE9F0410246002500260A
:1001C000002000230024002791F803C00CF00F0545
:1001D00091F803C00CF0100CBCF1000F03D091F8A3
:1001E00002C04CEA050591F800C0BCF1000F31D007
:1001F000146800202BE04FF0010C0CFA00F3B1F86A
:1002000000C00CEA03069E4220D183004FF00F0C81
:100210000CFA03F7BC4305FA03FC4CEA040491F81A
:1002200003C0BCF1280F06D14FF0010C0CFA00FC02
:10023000C2F814C00AE091F803C0BCF1480F05D120
:100240004FF0010C0CFA00FCC2F810C0401C08284A
:10025000D1D31460B1F800C0BCF1FF0F34DD546895
:1002600000202EE000F1080C4FF0010808FA0CF312
:10027000B1F800C00CEA03069E4221D183004FF082
:100280000F0C0CFA03F7BC4305FA03FC4CEA040418
:1002900091F803C0BCF1280F05D100F1080C08FA51
:1002A0000CF8C2F8148091F803C0BCF1480F07D1D4
:1002B00000F1080C4FF0010808FA0CF8C2F81080A1
:1002C000401C0828CED35460BDE8F08141617047DE
:1002D000016170470AB1016100E04161704700BFF0
:1002E000FEE700BFFEE770477047000029B1064AED
:1002F00092690243044B9A6104E0034A9269824383
:10030000014B9A617047000000100240704710B521
:1003100000F002F810BD00000CB500200190009024
:100320003F48006840F480303D49086000BF3C48C9
:10033000006800F4003000900198401C0190009883
:1003400018B90198B0F5A06FF1D13548006800F4F4
:10035000003010B10120009001E0002000900098D2
:1003600001285CD12F48006840F010002D4908603A
:100370000846006820F0030008600846006840F066
:1003800002000860264840682549486008464068E1
:1003900048600846406840F4806048600846C06A8B
:1003A000214908401E49C8620846C06A1F490843DF
:1003B0001B49C8620846006840F08060086000BFC2
:1003C0001748006800F000600028F9D01448406821
:1003D00020F47C10124948600846406840F4E81058
:1003E00048600846006840F08070086000BF0C4814
:1003F000006800F000700028F9D00948406820F03B
:100400000300074948600846406840F00200486021
:1004100000BF0348406800F00C000828F9D10CBD6B
:10042000001002400020024000F0FEFF44060100E0
:1004300007480068401C064908600846006841F605
:100440004171884202D101200149086070470000D3
:100450000000002010B51648006840F00100144963
:10046000086008464068134908401149486008463A
:100470000068114908400E4908600846006820F4E9
:10048000802008600846406820F4FE004860084666
:10049000006820F0A05008604FF47F0088600020C2
:1004A000C862FFF734FF4FF000600449086010BDD8
:1004B000001002400000FFF0FFFFF6FE08ED00E034
:1004C00000BFFEE702E008C8121F08C1002AFAD1E7
:1004D00070477047002001E001C1121F002AFBD1C4
:1004E0007047000010B50446012C06D0022C19D02C
:1004F000032C2CD0042C54D13EE0002204212A48A5
:10050000FFF7E8FE012208212748FFF7E3FE01225A
:1005100010212548FFF7DEFE012280212248FFF747
:10052000D9FE3EE0012204211F48FFF7D3FE00223E
:1005300008211D48FFF7CEFE012210211A48FFF7BF
:10054000C9FE012280211848FFF7C4FE29E00122DC
:1005500004211548FFF7BEFE012208211248FFF7CB
:10056000B9FE002210211048FFF7B4FE01228021BD
:100570000D48FFF7AFFE14E0012204210A48FFF7FF
:10058000A9FE012208210848FFF7A4FE012210213C
:100590000548FFF79FFE002280210348FFF79AFEDF
:1005A00000BF00BF10BD00000014014008B50121CC
:1005B0000420FFF79BFE0820ADF8000010208DF806
:1005C000030003208DF8020069460248FFF7F3FD9F
:1005D00008BD00000008014010B508210148FFF7E0
:1005E00077FE10BD0008014010B508210148FFF753
:1005F0006DFE10BD0008014010B545480068B0F51B
:10060000965F65D022DC40F60A22A0EB0201904200
:100610004DD00FDCB0F5FA6F40D005DC012835D0A5
:10062000B0F5FA7F72D136E0A0F6CA0088B3FA2896
:100630006CD139E0A1F2965161B3C8293DD0B1F532
:10064000C87F3DD0B1F5167F60D13EE041F6321251
:10065000811A90424BD00DDCA0F58050A0F562705D
:1006600088B3B0F57A7F39D0A0F27E4060B3962887
:100670004CD139E096293DD0B1F5967F3DD0B1F50A
:10068000E17F3DD0B1F5167F40D13CE0FFF7ACFFF4
:100690003CE006E00EE0FFF79FFF37E0FFF7A4FF26
:1006A00034E0FFF799FF31E0FFF79EFF2EE0FFF700
:1006B00093FF2BE0FFF798FF28E0FFF78DFF25E081
:1006C000FFF792FF22E006E00BE0FFF785FF1DE059
:1006D000FFF78AFF1AE0FFF77FFF17E0FFF784FFBD
:1006E00014E0FFF779FF11E0FFF77EFF0EE0FFF760
:1006F00073FF0BE0FFF778FF08E0FFF76DFF05E001
:10070000FFF772FF02E0FFF767FF00BF00BF10BDF9
:100710000000002010B5A148006840F26C72811AF8
:1007200090426ED03ADCB0F5617F6BD01ADCB0F548
:10073000C87F68D009DC01287CD064287ED0C82816
:1007400073D0B0F5967F71D184E0B0F5FA7F6ED0AA
:10075000B0F5167F6CD0B0F52F7F6AD0B0F5487F2A
:10076000F1D18EE0B0F5AF6F70D00BDCB0F57A7FD1
:100770006DD0A0F24C4000286AD0642869D0C82807
:10078000E1D19BE0A0F2DC5000286FD064286ED04D
:10079000C8286DD0B0F5967FD5D1A6E040F26C7236
:1007A000881A914271D01CDCB1F5617F6ED00BDCF0
:1007B00064296CD0B1F5967F6AD0B1F5FA7F68D024
:1007C000B1F52F7FBFD1A7E0A1F24C41002971D034
:1007D000C82970D0B1F5C87F6ED0B1F5167FB2D1FF
:1007E000AEE0B0F5E16F68D00EDCC82872D0B0F58D
:1007F000167F70D0B0F57A7F6ED0B0F5AF6FA2D112
:10080000B2E079E046E029E0A0F69800002870D038
:10081000B0F5FA7F6ED0B0F57A7F6CD0A0F2DC50E4
:10082000002890D1B4E005E008E00BE0B4E019E066
:100830001FE022E00120FFF755FEADE00220FFF7A8
:1008400051FEA9E00320FFF74DFEA5E03AE025E0C8
:1008500028E02BE00420FFF745FE9DE00120FFF794
:1008600041FE99E00220FFF73DFE95E02EE034E0E6
:1008700037E00320FFF736FE8EE00420FFF732FE5C
:100880008AE00120FFF72EFE86E05DE048E037E0D9
:100890003AE03DE00220FFF725FE7DE00320FFF770
:1008A00021FE79E00420FFF71DFE75E00120FFF72F
:1008B00019FE71E038E03BE03EE059E00220FFF72E
:1008C00011FE69E00320FFF70DFE65E00420FFF74D
:1008D00009FE61E03CE03FE042E00120FFF702FE5C
:1008E0005AE00220FFF7FEFD56E00320FFF7FAFD75
:1008F00052E041E044E047E00420FFF7F3FD4BE025
:100900000120FFF7EFFD47E00220FFF7EBFD43E09A
:100910000320FFF7E7FD3FE00420FFF7E3FD3BE0A6
:100920000120FFF7DFFD37E00220FFF7DBFD33E0BA
:100930000320FFF7D7FD2FE00420FFF7D3FD2BE0C6
:100940000120FFF7CFFD27E00220FFF7CBFD23E0DA
:100950000320FFF7C7FD1FE00420FFF7C3FD1BE0E6
:100960000120FFF7BFFD17E00220FFF7BBFD13E0FA
:100970000320FFF7B7FD0FE00420FFF7B3FD0BE006
:100980000120FFF7AFFD07E00220FFF7ABFD03E01A
:100990000320FFF7A7FD00BF00BF10BD000000202F
:1009A00008B501212020FFF7A1FC9C20ADF8000034
:1009B00010208DF8030003208DF8020069460248DC
:1009C000FFF7F9FB08BD0000001401401649B1F122
:1009D000807F00D31DE021F07F40401E4FF0E022D9
:1009E000506150170F22002807DA13071D0E0F4B16
:1009F00000F00F04241F1D5503E013071C0E0C4BC1
:100A00001C5400BF00204FF0E022906107201061CD
:100A100000BFFFF7CBFDFFF7C3FF03E0FFF7ECFDDF
:100A2000FFF778FEFAE700004019010018ED00E03A
:100A300000E400E0540A0008000000200400000068
:100A4000C4040008580A0008040000200404000040
:080A5000D404000801000000BD
:04000005080001519D
:00000001FF
