:020000040800F2
:10000000080400206901000805040008D702000860
:1000100001040008B1010008BD050008000000004F
:10002000000000000000000000000000290400089B
:10003000B501000800000000070400084D05000895
:100040008301000883010008830100088301000880
:100050008301000883010008830100088301000870
:100060008301000883010008830100088301000860
:100070008301000883010008830100088301000850
:100080008301000883010008830100088301000840
:100090008301000883010008830100088301000830
:1000A0008301000883010008830100088301000820
:1000B0008301000883010008830100088301000810
:1000C0008301000883010008830100088301000800
:1000D00083010008830100088301000883010008F0
:1000E000830100088301000883010008000000006C
:1000F0000000000000000000000000000000000000
:1001000000000000000000008301000883010008D7
:1001100083010008830100088301000883010008AF
:10012000830100088301000883010008830100089F
:10013000830100088301000883010008830100088F
:10014000830100088301000883010008830100087F
:10015000DFF810D000F01AF8004800472D0600081C
:10016000AFF3008008040020064880470648004797
:10017000FEE7FEE7FEE7FEE7FEE7FEE7FEE7FEE757
:10018000FEE7FEE75105000851010008064C074D47
:1001900006E0E06840F0010394E807009847103457
:1001A000AC42F6D3FFF7D8FF38060008580600081F
:1001B00000BFFEE770472DE9F0410246002500260A
:1001C000002000230024002791F803C00CF00F0545
:1001D00091F803C00CF0100CBCF1000F03D091F8A3
:1001E00002C04CEA050591F800C0BCF1000F31D007
:1001F000146800202BE04FF0010C0CFA00F3B1F86A
:1002000000C00CEA03069E4220D183004FF00F0C81
:100210000CFA03F7BC4305FA03FC4CEA040491F81A
:1002200003C0BCF1280F06D14FF0010C0CFA00FC02
:10023000C2F814C00AE091F803C0BCF1480F05D120
:100240004FF0010C0CFA00FCC2F810C0401C08284A
:10025000D1D31460B1F800C0BCF1FF0F34DD546895
:1002600000202EE000F1080C4FF0010808FA0CF312
:10027000B1F800C00CEA03069E4221D183004FF082
:100280000F0C0CFA03F7BC4305FA03FC4CEA040418
:1002900091F803C0BCF1280F05D100F1080C08FA51
:1002A0000CF8C2F8148091F803C0BCF1480F07D1D4
:1002B00000F1080C4FF0010808FA0CF8C2F81080A1
:1002C000401C0828CED35460BDE8F0810AB101611A
:1002D00000E04161704700BFFEE7000008B5012162
:1002E000202000F091F89C20ADF8000010208DF83F
:1002F000030003208DF8020069460248FFF75BFF08
:1003000008BD00000014014010B500F069F93A483A
:10031000006830B1012819D002282CD0032854D10C
:100320003EE0002204213548FFF7D0FF01220821DA
:100330003248FFF7CBFF012210213048FFF7C6FFFC
:10034000012280212D48FFF7C1FF53E00122042143
:100350002A48FFF7BBFF002208212848FFF7B6FF15
:10036000012210212548FFF7B1FF012280212348F7
:10037000FFF7ACFF3EE0012204212048FFF7A6FF73
:10038000012208211D48FFF7A1FF002210211B4870
:10039000FFF79CFF012280211848FFF797FF29E013
:1003A000012204211548FFF791FF0122082113487B
:1003B000FFF78CFF012210211048FFF787FF002272
:1003C00080210E48FFF782FF14E0012204210B4830
:1003D000FFF77CFF012208210848FFF777FF012281
:1003E00010210648FFF772FF012280210348FFF722
:1003F0006DFF00BF00BF10BD0000002000140140D1
:1004000000BFFEE77047704729B1064A9269024370
:10041000044B9A6104E0034A92698243014B9A615A
:100420007047000000100240704710B500F002F85D
:1004300010BD00000CB50020019000903F480068FE
:1004400040F480303D49086000BF3C48006800F43B
:10045000003000900198401C0190009818B9019854
:10046000B0F5A06FF1D13548006800F4003010B14C
:100470000120009001E000200090009801285CD14C
:100480002F48006840F010002D49086008460068B9
:1004900020F0030008600846006840F00200086091
:1004A0002648406825494860084640684860084634
:1004B000406840F4806048600846C06A21490840AE
:1004C0001E49C8620846C06A1F4908431B49C862E2
:1004D0000846006840F08060086000BF1748006868
:1004E00000F000600028F9D01448406820F47C1027
:1004F000124948600846406840F4E81048600846E1
:10050000006840F08070086000BF0C48006800F090
:1005100000700028F9D00948406820F0030007491E
:1005200048600846406840F00200486000BF034849
:10053000406800F00C000828F9D10CBD0010024002
:100540000020024000F0FEFF44060100704700005A
:1005500010B51648006840F00100144908600846CC
:10056000406813490840114948600846006811492D
:1005700008400E4908600846006820F480200860A2
:100580000846406820F4FE0048600846006820F0F5
:10059000A05008604FF47F0088600020C862FFF719
:1005A00044FF4FF000600449086010BD0010024095
:1005B0000000FFF0FFFFF6FE08ED00E000BFFEE7E1
:1005C00002E008C8121F08C1002AFAD1704770471C
:1005D000002001E001C1121F002AFBD1704700007A
:1005E0000F480068401C0E490860084600680D4925
:1005F000884205D20A480068401C094908600DE09D
:1006000000200749086008480068401C0649086047
:1006100008460068032801D90020086070470000E0
:1006200004000020FFFF020000000020FFF756FE3C
:1006300001E0FFF769FEFCE7580600080000002013
:1006400008000000C005000860060008080000203F
:1006500000040000D00500080000000000000000B9
:04000005080001519D
:00000001FF
