:020000040800F2
:100000001004002065010008951200080D12000878
:1000100091120008AD010008111500080000000051
:10002000000000000000000000000000C5130008F0
:10003000B101000800000000851300081914000831
:100040007F0100087F0100087F0100087F01000890
:100050007F0100087F0100087F0100087F01000880
:100060007F0100087F0100087F0100087F01000870
:100070007F0100087F0100087F0100087F01000860
:100080007F0100087F0100087F0100087F01000850
:100090007F0100087F0100087F0100087F01000840
:1000A0007F0100087F0100087F0100087F01000830
:1000B0007F0100087F0100087F0100087F01000820
:1000C0007F0100087F0100087F0100087F01000810
:1000D0007F0100087F0100087F0100087F01000800
:1000E0007F0100087F0100087F0100080000000078
:1000F0000000000000000000000000000000000000
:1001000000000000000000007F0100087F010008DF
:100110007F0100087F0100087F0100087F010008BF
:100120007F0100087F0100087F0100087F010008AF
:100130007F0100087F0100087F0100087F0100089F
:100140007F0100087F0100087F0100087F0100088F
:10015000DFF80CD000F018F8004800472915000817
:10016000100400200648804706480047FEE7FEE7E7
:10017000FEE7FEE7FEE7FEE7FEE7FEE7FEE7FEE757
:100180009D14000851010008064C074D06E0E06888
:1001900040F0010394E8070098471034AC42F6D3CE
:1001A000FFF7DAFF4016000860160008FFE7FEE7D9
:1001B0007047000080B584B0039000F0B1F9029060
:1001C000039801900198013020B1FFE701980130B8
:1001D0000190FFE7FFE700F0A3F90299401A0199A7
:1001E000884201D2FFE7F6E704B080BD8AB041F251
:1001F0000041C4F201010991089000200690059089
:100200000490039001900790FFE707980F2800F2F1
:100210006B81FFE70798012101FA00F0069008982A
:10022000006806990840059005980699884240F0B4
:100230005681FFE708984068002846D0FFE701286C
:1002400030D0FFE7022836D0FFE7032857D0FFE77A
:1002500011282BD0FFE7122832D0FFE70021C1F28E
:100260001101884231D0FFE70021C1F2120188421A
:100270002BD0FFE70021C1F22101884225D0FFE702
:100280000021C1F2220188421FD0FFE70021C1F204
:100290003101884219D0FFE70021C1F232018842C2
:1002A00013D02FE00898C06803902CE00898C0682D
:1002B0000430039027E00898C0680830039022E0DB
:1002C0000898C0680C3003901DE00898806818B941
:1002D000FFE70420039011E008988068012806D108
:1002E000FFE70820039006980999086105E00820B7
:1002F0000390069809994861FFE7FFE703E00020B3
:10030000039000E0FFE70598FF2802D8FFE709986F
:1003100002E009980430FFE702900598FF2803D80F
:10032000FFE70798800005E007986FF01F0101EBD9
:100330008000FFE701900298006801990F228A402F
:100340009043039A02FA01F1084302990860089861
:10035000C079C006002840F1C180FFE7FFE741F205
:100360001800C4F20200016841F001010160006858
:1003700000F0010000900098FFE7079820F00300CC
:100380000821C4F2010140580490079800F00300CE
:1003900080000F2101FA00F0049921EA0000049086
:1003A000099840F60001C4F20101884202D1FFE73A
:1003B00000201FE0099840F60041C4F20101884284
:1003C00002D1FFE7012014E0099841F20001C4F2D4
:1003D0000101884202D1FFE7022009E0099941F2B8
:1003E0000042C4F201020420914208BF0320FFE74B
:1003F000FFE7FFE7079901F00301890088400499AE
:10040000084304900498079921F003010822C4F2DC
:100410000102885008988079C00748B1FFE7059825
:1004200040F20041C4F201010A681043086009E08B
:10043000059840F20041C4F201010A6822EA000076
:100440000860FFE7089880798007002809D5FFE752
:10045000059840F20441C4F201010A6810430860A3
:1004600009E0059840F20441C4F201010A6822EA59
:1004700000000860FFE708988079C006002809D5C9
:10048000FFE7059840F20841C4F201010A681043F1
:10049000086009E0059840F20841C4F201010A68C9
:1004A00022EA00000860FFE70898807980060028AB
:1004B00009D5FFE7059840F20C41C4F201010A6832
:1004C0001043086009E0059840F20C41C4F20101B4
:1004D0000A6822EA00000860FFE7FFE7FFE7FFE79E
:1004E00007980130079090E60AB0704783B041F258
:1004F0000042C4F201020292ADF806000091009899
:1005000028B1FFE7BDF806000299086105E0BDF8D3
:100510000600000402990861FFE703B0704700007D
:1005200040F20800C2F200000068704740F2080084
:10053000C2F20000016801310160704780B542F2EB
:100540000000C4F20200016841F01001016000F0F7
:1005500087F800F003F800F01BF880BD80B582B08A
:100560000020019040F20000C2F20000006844F652
:10057000D351C1F26201A0FB0101880900F03AFEEB
:1005800001994FF0FF3000F055F802B080BD000037
:1005900080B582B0FFE741F21800C4F202000168A2
:1005A00041F001010160006800F001000190019834
:1005B000FFE7FFE741F21C00C4F20200016841F0CE
:1005C00080510160006800F0805000900098FFE7C3
:1005D00000F046F86FF00B00002100F02BF86FF0F0
:1005E0000A00002100F026F86FF00900002100F059
:1005F00021F86FF00400002100F01CF86FF00300F8
:10060000002100F017F86FF00100002100F012F84F
:100610004FF0FF30002100F00DF8FFE70420C4F296
:100620000100016821F0E061016001680160FFE7FD
:1006300002B080BD10B584B00390029100200190FB
:10064000009000F05BFE0090039C00980299019AD4
:1006500000F022FE0146204600F058FE04B010BD16
:1006600080B582B003200190019800F06DFE02B0C9
:1006700080BD000080B584B0029000200190009001
:10068000019842F20001C4F20201096801F0070179
:10069000884215D9FFE742F20000C4F20200016867
:1006A00021F00701019A11430160006800F0070082
:1006B0000199884203D0FFE7012003900DE1FFE795
:1006C00002980078800700280CD5FFE741F204006B
:1006D000C4F20200016821F0F001029A926811430D
:1006E0000160FFE702980078C007002800F09780BB
:1006F000FFE70298406801280DD1FFE741F20000B2
:10070000C4F2020000688003002803D4FFE7012040
:100710000390E2E01FE00298406802280DD1FFE755
:1007200041F20000C4F2020000688001002803D4F6
:10073000FFE701200390D0E00CE041F20000C4F29A
:10074000020000688007002803D4FFE7012003901F
:10075000C3E0FFE7FFE741F20400C4F202000168D2
:1007600021F00301029A526811430160FFF7D8FE9D
:10077000009002984068012819D1FFE7FFE741F295
:100780000400C4F20200006800F00C0004280DD040
:10079000FFE7FFF7C5FE0099401A41F28931884210
:1007A00003D3FFE70320039097E0E8E736E00298E1
:1007B0004068022819D1FFE7FFE741F20400C4F2C4
:1007C0000200006800F00C0008280DD0FFE7FFF7DA
:1007D000A7FE0099401A41F28931884203D3FFE70E
:1007E0000320039079E0E8E717E0FFE741F2040017
:1007F000C4F20200006810F00C0F0DD0FFE7FFF705
:100800008FFE0099401A41F28931884203D3FFE7F5
:100810000320039061E0E9E7FFE7FFE7FFE70198C6
:1008200042F20001C4F20201096801F007018842A6
:1008300015D2FFE742F20000C4F20200016821F085
:100840000701019A11430160006800F00700019957
:10085000884203D0FFE7012003903EE0FFE70298C3
:100860000078400700280CD5FFE741F20400C4F2ED
:100870000200016821F4E061029AD268114301602C
:10088000FFE702980078000700280DD5FFE741F246
:100890000400C4F20200016821F46051029A126956
:1008A00041EAC2010160FFE700F020F841F20401D3
:1008B000C4F202010968C9B2090941F22262C0F614
:1008C0000002515CC84040F20001C2F20001086021
:1008D000FFF744FE00200390FFE7039804B080BDBB
:1008E00040F20000C2F20000006870478FB04FF481
:1008F0005060ADF8380000200D9040F20671C0F64F
:1009000008110C910021C0F204510B9140F60D61C9
:10091000C1F20F010A9140F60921C0F60B4109917D
:1009200040F20561C0F60701089140F20121C0F2D2
:100930000341079106900590049003900290019066
:10094000009041F20400C4F202000068069006988C
:1009500000F00C00002869D0FFE7042803D0FFE76F
:10096000082806D063E041F20020C0F27A0002902D
:1009700063E00698C0F383400BA9085C03909DF8E0
:100980001A00C007002846D0FFE741F22C00C4F24D
:100990000200016801F00F0107AA515C059100688F
:1009A000C003002821D5FFE741F22C00C4F2020069
:1009B0000168C9B2012202EB11110191006800F433
:1009C0007060022101EB10200090019841F200219B
:1009D000C0F27A01B1FBF0F0009948430599B0FBF1
:1009E000F1F00399484304900AE0059841F2002190
:1009F000C0F27A01B1FBF0F0039948430490FFE79D
:100A000003989DF83910884204D1FFE70498400804
:100A10000490FFE707E0039840F60011C0F23D01A3
:100A200048430490FFE70498029006E0FFE741F294
:100A30000020C0F27A000290FFE702980FB07047E2
:100A400080B586B004900020039004980078C00719
:100A5000002800F0AB80FFE741F20400C4F202007E
:100A6000006800F00C00042813D0FFE741F20400F6
:100A7000C4F20200006800F00C0008281AD1FFE759
:100A800041F20400C4F202000068C003002811D53E
:100A9000FFE741F20000C4F2020000688003002872
:100AA00007D5FFE70498806818B9FFE70120059093
:100AB00081E37AE0FFE704988068B0F5803F09D1D0
:100AC000FFE741F20000C4F20200016841F4803106
:100AD000016032E00498806868B9FFE741F20000E5
:100AE000C4F20200016821F480310160016821F440
:100AF0008021016020E004988068B0F5A02F0DD11E
:100B0000FFE741F20000C4F20200016841F48021D5
:100B10000160016841F4803101600CE041F20000A5
:100B2000C4F20200016821F480310160016821F4FF
:100B300080210160FFE7FFE7FFE7FFE70498806897
:100B4000C8B1FFE7FFF7ECFC0390FFE741F20000BC
:100B5000C4F202000068800300280BD4FFE7FFF70F
:100B6000DFFC0399401A652803D3FFE703200590B3
:100B700021E3EBE718E0FFF7D3FC0390FFE741F236
:100B80000000C4F202000068800300280BD5FFE7D4
:100B9000FFF7C6FC0399401A652803D3FFE703203B
:100BA000059008E3EBE7FFE7FFE7FFE7049800782D
:100BB0008007002840F18A80FFE741F20400C4F278
:100BC0000200006810F00C0F13D0FFE741F20400A0
:100BD000C4F20200006800F00C00082828D1FFE7EA
:100BE00041F20400C4F202000068C00300281FD4D0
:100BF000FFE741F20000C4F202000068800700280D
:100C000008D5FFE704984069012803D0FFE70120D9
:100C10000590D0E241F20000C4F20200016821F028
:100C2000F801049A926941EAC2010160FFE74CE0D1
:100C30000498406950B3FFE70020C4F2422001212C
:100C40000160FFF76DFC0390FFE741F20000C4F282
:100C500002000068800700280BD4FFE7FFF760FC64
:100C60000399401A032803D3FFE703200590A2E26B
:100C7000EBE741F20000C4F20200016821F0F80144
:100C8000049A926941EAC20101601DE00020C4F2A9
:100C9000422000210160FFF743FC0390FFE741F28F
:100CA0000000C4F202000068800700280BD5FFE7AF
:100CB000FFF736FC0399401A032803D3FFE703200C
:100CC000059078E2EBE7FFE7FFE7FFE7049800789D
:100CD0000007002845D5FFE70498C06908B3FFE77F
:100CE00040F28040C4F2422001210160FFF718FC6D
:100CF0000390FFE741F22400C4F20200006880077D
:100D000000280BD4FFE7FFF70BFC0399401A0328D8
:100D100003D3FFE7032005904DE2EBE700F034FB3F
:100D20001EE040F28040C4F2422000210160FFF743
:100D3000F7FB0390FFE741F22400C4F202000068D1
:100D4000800700280BD5FFE7FFF7EAFB0399401A5D
:100D5000032803D3FFE7032005902CE2EBE7FFE72E
:100D6000FFE7049800784007002840F1D280FFE7B1
:100D70000020029041F21C00C4F202000068C00092
:100D8000002812D4FFE7FFE741F21C00C4F2020082
:100D9000016841F080510160006800F080500190CE
:100DA0000198FFE701200290FFE747F20000C4F23C
:100DB00000000068C005002821D4FFE747F20000CA
:100DC000C4F20000016841F480710160FFF7A8FBE4
:100DD0000390FFE747F20000C4F200000068C0057E
:100DE00000280BD4FFE7FFF79BFB0399401A652807
:100DF00003D3FFE703200590DDE1EBE7FFE7FFE723
:100E000004980069012809D1FFE741F22000C4F2EB
:100E10000200016841F00101016031E004980069BD
:100E200068B9FFE741F22000C4F20200016821F036
:100E300001010160016821F0040101601FE00498D4
:100E4000006905280DD1FFE741F22000C4F202003D
:100E5000016841F004010160016841F00101016095
:100E60000CE041F22000C4F20200016821F001010F
:100E70000160016821F004010160FFE7FFE7FFE77F
:100E8000FFE704980069D8B1FFE7FFF749FB03903B
:100E9000FFE741F22000C4F202000068800700284A
:100EA0000DD4FFE7FFF73CFB0399401A41F289316B
:100EB000884203D3FFE7032005907CE1E9E71AE0CD
:100EC000FFF72EFB0390FFE741F22000C4F202007F
:100ED0000068800700280DD5FFE7FFF721FB039985
:100EE000401A41F28931884203D3FFE7032005907D
:100EF00061E1E9E7FFE70298012809D1FFE741F244
:100F00001C00C4F20200016821F080510160FFE77B
:100F1000FFE70498C06A002800F0B280FFE741F2C2
:100F20000400C4F202000068C003002816D5FFE7E1
:100F300041F20400C4F20200006800F00C0008282E
:100F40000CD1FFE741F22C00C4F202000068C0039C
:100F5000002803D5FFE7012005902CE10498C06A22
:100F6000022865D1FFE741F20000C4F202000068E8
:100F7000C00000280FD5FFE741F22C00C4F20200A8
:100F8000006800F0F0000499496B884203D0FFE745
:100F9000012005900FE16820C4F242200021016089
:100FA000FFF7BEFA0390FFE741F20000C4F202002F
:100FB0000068000100280BD5FFE7FFF7B1FA03999D
:100FC000401A652803D3FFE703200590F3E0EBE721
:100FD00041F22C00C4F20200016821F0F001049AF1
:100FE000526B11430160016821F47061049A126B25
:100FF000114301606820C4F2422001210160FFF723
:101000008FFA0390FFE741F20000C4F2020000688B
:10101000000100280BD4FFE7FFF782FA0399401A7A
:10102000652803D3FFE703200590C4E0EBE725E044
:1010300041F22C00C4F20200016821F48031016009
:101040006820C4F2422000210160FFF769FA039092
:10105000FFE741F20000C4F202000068000100282E
:101060000BD5FFE7FFF75CFA0399401A652803D315
:10107000FFE7032005909EE0EBE7FFE7FFE7FFE7D0
:101080000498006A002800F09380FFE741F2040012
:10109000C4F20200006800F00C00082800F0848010
:1010A000FFE70498006A02285FD1FFE76020C4F2DE
:1010B000422000210160FFF733FA0390FFE741F27D
:1010C0000000C4F202000068800100280BD5FFE791
:1010D000FFF726FA0399401A032803D3FFE70320FA
:1010E000059068E0EBE70498406AB0F5803F11D1C5
:1010F000FFE70498406841F22C01C4F202010A683B
:1011000010430860086820F00F00049AD26810436A
:101110000860FFE741F20400C4F20200016821F414
:101120007411049A536A926A1A4311430160602051
:10113000C4F2422001210160FFF7F2F90390FFE7BA
:1011400041F20000C4F202000068800100280BD4C4
:10115000FFE7FFF7E5F90399401A032803D3FFE7F8
:101160000320059027E0EBE71DE06020C4F2422059
:1011700000210160FFF7D4F90390FFE741F200007E
:10118000C4F202000068800100280BD5FFE7FFF7DA
:10119000C7F90399401A032803D3FFE703200590FA
:1011A00009E0EBE7FFE702E00120059003E0FFE73D
:1011B00000200590FFE7059806B080BD81B00420AF
:1011C00000900098042809D1FFE74EF21000CEF2FB
:1011D0000000016841F00401016008E04EF21000D7
:1011E000CEF20000016821F004010160FFE701B0C8
:1011F0007047000080B582B00190019800F0E4F8DB
:1012000002B080BD80B5AFF3008080BDFFE7FEE790
:1012100010B588B0FFE741F21800C4F2020001687F
:1012200041F004010160006800F00400039003989D
:10123000FFE7FFE741F21800C4F20200016841F045
:1012400020010160006800F0200002900298FFE792
:10125000FFE741F21800C4F20200016841F0080102
:101260000160006800F0080001900198FFE79C24ED
:101270009C200021FFF73AF9049401200590069084
:101280000220079004A8FEF7B1FF08B010BD0000CF
:10129000FFE7FEE77047000086B0059004910392D7
:1012A000059800F0070002900298C0F10700052899
:1012B00002D3FFE7042003E00298C0F10700FFE734
:1012C000019002980430062802D8FFE7002002E0CF
:1012D00002980338FFE7009004980199012202FA6E
:1012E00001F10139084000998840039B02FA01F19D
:1012F00001391940084306B0704700004EF60C5003
:10130000CEF200000068C0F30220704782B0019066
:1013100000910198B0F1FF3F0BDCFFE7009800015E
:10132000019901F00F014EF61452CEF200028854DA
:1013300008E00098000101994EF20042CEF200024E
:101340008854FFE702B0704783B00290029800F023
:10135000070000904EF60C50CEF20000016801919B
:1013600001994FF6FF02114001910199009A41EA5B
:1013700002210022C0F2FA52114301910199016049
:1013800003B070477047000082B0012001900198BF
:1013900040F20001C2F200010968C90844F6D352C4
:1013A000C1F26202A1FB0212910948430090FFE7DB
:1013B00000BFFFE70098411E00910028F8D1FFE729
:1013C00002B070477047000080B582B0009000986E
:1013D0000138B0F1807F03D3FFE70120019019E0CD
:1013E000009801384EF21401CEF2000108604FF06F
:1013F000FF300F21FFF78AFF4EF21800CEF20000F7
:10140000002101604EF21000CEF2000007220260BF
:101410000191FFE702B080BD80B5FFF787F8FFF7C5
:10142000F1FE80BD80B594B00220069001200B90A3
:1014300010200C9000200E90119006A8FFF700FBE2
:1014400018B1FFE7842000F065F80F20019000201C
:10145000029003900490059001A8FFF70BF918B1D2
:10146000FFE7922000F056F8FFF73AFA44F6D3511E
:10147000C1F26201A0FB01018809FFF7BBFEFFF783
:101480009DFE7020C4F24220012101604FF0FF3028
:101490000021FFF7CFF814B080BD000041F200003A
:1014A000C4F20200016841F00101016041F204014F
:1014B000C4F202010A680023CFF2FF031A400A6057
:1014C00002684FF6FF73CFF6F6631A4002600268B7
:1014D00022F4802202600A6822F4FE020A60016897
:1014E00021F0A051016041F20800C4F202004FF463
:1014F0007F01016041F22C00C4F202000021016072
:101500004EF60850CEF200004FF0006101607047C7
:10151000FFE7FEE782B041F23261C0F600010191BF
:101520000090FFE7FEE7000082B000200190FFF787
:1015300005F8FFF777FFFFF76BFEFFE700F002F813
:10154000FCE7000080B582B04FF47A70ADF8060079
:1015500004200021FEF7CAFF08200121FEF7C6FF84
:1015600010200121FEF7C2FF80200121FEF7BEFFFF
:10157000BDF80600FEF71EFE04200121FEF7B6FFAF
:1015800008200021FEF7B2FF10200121FEF7AEFF78
:1015900080200121FEF7AAFFBDF80600FEF70AFE33
:1015A00004200121FEF7A2FF08200121FEF79EFF83
:1015B00010200021FEF79AFF80200121FEF796FF00
:1015C000BDF80600FEF7F6FD04200121FEF78EFFB0
:1015D00008200121FEF78AFF10200121FEF786FF77
:1015E00080200021FEF782FFBDF80600FEF7E2FD35
:1015F00002B080BD02E008C8121F08C1002AFAD15B
:1016000070477047002001E001C1121F002AFBD182
:1016100070470102030405060708090A0B0C0D0EAA
:101620000F10000000000000000001020304060784
:1016300008092E2F5372632F6D61696E2E630000AF
:10164000601600080000002008000000F4150008E3
:1016500068160008080000200804000004160008AE
:0816600000A24A040000000092
:04000005080001519D
:00000001FF
