:020000040800F2
:100000000004002069010008BF010008B7010008D2
:10001000BB010008B1010008550300080000000002
:10002000000000000000000000000000C301000804
:10003000B501000800000000C1010008E502000849
:100040008301000883010008830100088301000880
:100050008301000883010008830100088301000870
:100060008301000883010008830100088301000860
:100070008301000883010008830100088301000850
:100080008301000883010008830100088301000840
:100090008301000883010008830100088301000830
:1000A0008301000883010008830100088301000820
:1000B0008301000883010008830100088301000810
:1000C0008301000883010008830100088301000800
:1000D00083010008830100088301000883010008F0
:1000E000830100088301000883010008000000006C
:1000F0000000000000000000000000000000000000
:1001000000000000000000008301000883010008D7
:1001100083010008830100088301000883010008AF
:10012000830100088301000883010008830100089F
:10013000830100088301000883010008830100088F
:10014000830100088301000883010008830100087F
:10015000DFF810D000F01AF8004800477B030008D1
:10016000AFF300800004002006488047064800479F
:10017000FEE7FEE7FEE7FEE7FEE7FEE7FEE7FEE757
:10018000FEE7FEE7E902000851010008064C074DB2
:1001900006E0E06840F0010394E807009847103457
:1001A000AC42F6D3FFF7D8FF880300089803000895
:1001B00000BFFEE7704700BFFEE700BFFEE77047E5
:1001C0007047704710B500F001F810BD0CB5002065
:1001D000019000903F48006840F480303D4908603D
:1001E00000BF3C48006800F4003000900198401CBB
:1001F0000190009818B90198B0F5A06FF1D1354879
:10020000006800F4003010B10120009001E00020EF
:100210000090009801285CD12F48006840F0100041
:100220002D4908600846006820F003000860084671
:10023000006840F002000860264840682549486090
:100240000846406848600846406840F4806048605E
:100250000846C06A214908401E49C8620846C06A6B
:100260001F4908431B49C8620846006840F0806087
:10027000086000BF1748006800F000600028F9D04F
:100280001448406820F47C101249486008464068D1
:1002900040F4E81048600846006840F0807008604C
:1002A00000BF0C48006800F000700028F9D0094831
:1002B000406820F00300074948600846406840F065
:1002C0000200486000BF0348406800F00C000828A6
:1002D000F9D10CBD001002400020024000F0FEFFEA
:1002E000440601007047000010B51648006840F051
:1002F0000100144908600846406813490840114944
:10030000486008460068114908400E4908600846E0
:10031000006820F4802008600846406820F4FE0051
:1003200048600846006820F0A05008604FF47F0045
:1003300088600020C862FFF745FF4FF00060044965
:10034000086010BD001002400000FFF0FFFFF6FE45
:1003500008ED00E000BFFEE702E008C8121F08C178
:10036000002AFAD170477047002001E001C1121F36
:10037000002AFBD1704770477047FFF7FCFF01E090
:10038000FFF7FAFFFCE700009803000800000020D8
:080390000004000068030008EE
:04000005080001519D
:00000001FF
