S315080000000804002069010008DF020008D70200087A
S31508000010DB020008B1010008B50600080000000070
S31508000020000000000000000000000000A90300080E
S31508000030B50100080000000065030008CD040008AB
S315080000408301000883010008830100088301000872
S315080000508301000883010008830100088301000862
S315080000608301000883010008830100088301000852
S315080000708301000883010008830100088301000842
S315080000808301000883010008830100088301000832
S315080000908301000883010008830100088301000822
S315080000A08301000883010008830100088301000812
S315080000B03D05000883010008830100088301000844
S315080000C083010008830100088301000883010008F2
S315080000D083010008830100088301000883010008E2
S315080000E0830100088301000883010008000000005E
S315080000F000000000000000000000000000000000F2
S3150800010000000000000000008301000883010008C9
S3150800011083010008830100088301000883010008A1
S315080001208301000883010008830100088301000891
S315080001308301000883010008830100088301000881
S315080001408301000883010008830100088301000871
S31508000150DFF810D000F01AF8004800472108000818
S31508000160AFF3008008040020064880470648004789
S31508000170FEE7FEE7FEE7FEE7FEE7FEE7FEE7FEE749
S31508000180FEE7FEE7D104000851010008064C074DBA
S3150800019006E0E06840F0010394E807009847103449
S315080001A0AC42F6D3FFF7D8FF38080008580800080D
S315080001B000BFFEE770472DE9F041024600250026FC
S315080001C0002000230024002791F803C00CF00F0537
S315080001D091F803C00CF0100CBCF1000F03D091F895
S315080001E002C04CEA050591F800C0BCF1000F31D0F9
S315080001F0146800202BE04FF0010C0CFA00F3B1F85C
S3150800020000C00CEA03069E4220D183004FF00F0C73
S315080002100CFA03F7BC4305FA03FC4CEA040491F80C
S3150800022003C0BCF1280F06D14FF0010C0CFA00FCF4
S31508000230C2F814C00AE091F803C0BCF1480F05D112
S315080002404FF0010C0CFA00FCC2F810C0401C08283C
S31508000250D1D31460B1F800C0BCF1FF0F34DD546887
S3150800026000202EE000F1080C4FF0010808FA0CF304
S31508000270B1F800C00CEA03069E4221D183004FF074
S315080002800F0C0CFA03F7BC4305FA03FC4CEA04040A
S3150800029091F803C0BCF1280F05D100F1080C08FA43
S315080002A00CF8C2F8148091F803C0BCF1480F07D1C6
S315080002B000F1080C4FF0010808FA0CF8C2F8108093
S315080002C0401C0828CED35460BDE8F0810AB101610C
S315080002D000E04161704700BFFEE700BFFEE77047D8
S315080002E070B5002100230F22C47804B3154C246886
S315080002F004F4E064C4F5E064210AC1F10403CA40C9
S31508000300447804FA03F184781440214309010E4C19
S315080003100678A155047804F01F050124AC40057839
S315080003206D11AD0005F1E025C5F8004109E0047836
S3150800033004F01F050124AC40044D0678761145F8F3
S31508000340264070BD0CED00E000E400E080E100E02E
S3150800035002490143024A1160704700000000FA058D
S315080003600CED00E07047000029B1064AD269024345
S31508000370044BDA6104E0034AD2698243014BDA612D
S31508000380704700000010024029B1064A92690243EC
S31508000390044B9A6104E0034A92698243014B9A61CD
S315080003A07047000000100240704710B500F002F8D0
S315080003B010BD00000CB50020019000903F48006871
S315080003C040F480303D49086000BF3C48006800F4AE
S315080003D0003000900198401C0190009818B90198C7
S315080003E0B0F5A06FF1D13548006800F4003010B1BF
S315080003F00120009001E000200090009801285CD1BF
S315080004002F48006840F010002D490860084600682B
S3150800041020F0030008600846006840F00200086003
S3150800042026484068254948600846406848600846A6
S31508000430406840F4806048600846C06A2149084020
S315080004401E49C8620846C06A1F4908431B49C86254
S315080004500846006840F08060086000BF17480068DA
S3150800046000F000600028F9D01448406820F47C1099
S31508000470124948600846406840F4E8104860084653
S31508000480006840F08070086000BF0C48006800F003
S3150800049000700028F9D00948406820F00300074991
S315080004A048600846406840F00200486000BF0348BC
S315080004B0406800F00C000828F9D10CBD0010024075
S315080004C00020024000F0FEFF4406010070470000CD
S315080004D010B51648006840F001001449086008463F
S315080004E040681349084011494860084600681149A0
S315080004F008400E4908600846006820F48020086015
S315080005000846406820F4FE0048600846006820F067
S31508000510A05008604FF47F0088600020C862FFF78B
S3150800052044FF4FF000600449086010BD0010024007
S315080005300000FFF0FFFFF6FE08ED00E010B5012110
S31508000540880700F04BF870B10121880700F037F8EA
S3150800055005480078401C04490870084600780428B5
S3150800056001D10020087010BD000000203EB50446E9
S315080005700D4600F0A1F801210846FFF7F5FE681EB2
S3150800058080B2ADF80400601E80B2ADF8000000200D
S31508000590ADF80600ADF8020069464FF0804000F05D
S315080005A037F80121880700F00AF80122114690075A
S315080005B000F025F80121880700F004F83EBDCA437B
S315080005C00282704721B1028842F00102028004E0EB
S315080005D002884FF6FE731A400280704730B502460D
S315080005E0002000230024158A05EA0103958905EAF7
S315080005F0010413B10CB1012000E0002030BD1AB18E
S3150800060083890B43838102E083898B438381704707
S31508000610002202881D4B98420ED01D4B98420BD0E3
S31508000620B0F1804F08D01B4B984205D01A4B984220
S3150800063002D01A4B984204D14FF68F731A404B8852
S315080006401A43174B984207D0164B984204D04FF6D8
S31508000650FF431A40CB881A4302808B8883850B8810
S3150800066003850A4B98420BD0094B984208D00E4B8B
S31508000670984205D00D4B984202D00D4B984201D1B5
S315080006800B7A03860123838270470000002C014001
S31508000690003401400004004000080040000C0040FF
S315080006A00010004000140040004001400044014092
S315080006B00048014000BFFEE708B54FF4E060FFF7C9
S315080006C047FE1C208DF8000000208DF8010003204D
S315080006D08DF8020001208DF803006846FFF700FE3A
S315080006E008BD02E008C8121F08C1002AFAD17047DF
S315080006F07047002001E001C1121F002AFBD1704794
S3150800070008B501212020FFF73FFE9C20ADF8000028
S3150800071010208DF8030003208DF802006946024870
S31508000720FFF749FD08BD00000014014010B53A481E
S31508000730007830B1012819D002282CD0032854D1CA
S315080007403EE0002204213548FFF7C0FD01220821BA
S315080007503248FFF7BBFD012210213048FFF7B6FDEE
S31508000760012280212D48FFF7B1FD53E00122042123
S315080007702A48FFF7ABFD002208212848FFF7A6FD07
S31508000780012210212548FFF7A1FD012280212348D7
S31508000790FFF79CFD3EE0012204212048FFF796FD65
S315080007A0012208211D48FFF791FD002210211B4850
S315080007B0FFF78CFD012280211848FFF787FD29E005
S315080007C0012204211548FFF781FD0122082113485B
S315080007D0FFF77CFD012210211048FFF777FD002264
S315080007E080210E48FFF772FD14E0012204210B4810
S315080007F0FFF76CFD012208210848FFF767FD012273
S3150800080010210648FFF762FD012280210348FFF701
S315080008105DFD00BF00BF10BD0000002000140140B0
S315080008204FF4E15140F6C410FFF7A0FEFFF768FF4A
S3150800083001E0FFF77BFFFCE75808000800000020EE
S3150800084004000000E20600085C0800080400002016
S3110800085004040000F20600080000000086
S70508000151A0
