:020000040800F2
:100000003004002049010008C30C0008570C000808
:10001000C10C0008E7030008D90D0008000000002B
:10002000000000000000000000000000E70C0008D5
:10003000E903000800000000E50C0008150D0008A9
:100040006301000863010008630100086301000800
:1000500063010008630100086301000863010008F0
:1000600063010008630100086301000863010008E0
:1000700063010008630100086301000863010008D0
:1000800063010008630100086301000863010008C0
:1000900063010008630100086301000863010008B0
:1000A00063010008630100086301000863010008A0
:1000B0006301000863010008630100086301000890
:1000C0006301000863010008630100086301000880
:1000D0006301000863010008630100086301000870
:1000E0006301000863010008630100086301000860
:1000F0006301000863010008630100086301000850
:10010000630100086301000863010008630100083F
:10011000630100086301000863010008630100082F
:10012000630100086301000863010008630100081F
:10013000DFF810D000F036F900480047510E0008F3
:10014000AFF300803004002006488047064800478F
:10015000FEE7FEE7FEE7FEE7FEE7FEE7FEE7FEE777
:10016000FEE7FEE7910D000831010008202A04DBBC
:10017000203A21FA02F00021704721FA02F3D04020
:10018000C2F1200291400843194670472DE9F04D15
:1001900081EA030404F0004B21F0004514464FF0BF
:1001A000000A23F0004150EA050220D054EA01027F
:1001B0001DD0C5F30A570246C5F31303C1F313005C
:1001C000C1F30A5640F4801543F48013A7EB0608E8
:1001D000101BD64608F2FD3873EB050002D308F178
:1001E000010801E092185B41B8F1000F03DA00202A
:1001F0000146BDE8F08D00204FF48011064684468C
:100200000EE0171B73EB050705D3121B63EB050309
:1002100006434CEA010C49084FEA300092185B4152
:1002200050EA0107EDD152EA030012D082EA04003D
:1002300083EA0501084305D0101BAB4106D2012219
:10024000002306E000224FF0004302E06FF00102BD
:1002500053101AEB06004CEB085110EB0A0041EB6F
:100260000B01BDE8F04D00F03FB80EB540F2334150
:1002700002910021CDE900110A460B4600F043F837
:1002800003B000BDC1F30A5210B5C1F3130140F22F
:10029000FF3341F480119A4201DA002010BD40F290
:1002A00033439A42A2F2334203DC5242FFF75EFF2D
:1002B00010BD904010BD000030B5041E71F1000467
:1002C00004DB4FF00044404264EB0101141E73F163
:1002D000000405DB1C464FF00043524263EB04036D
:1002E0008B4208BF824230BD10B5141E73F100046A
:1002F00008DA401C41F1000192185B411A4301D118
:1003000020F0010010BD2DE9F04D92469B4611B141
:10031000B1FA81F202E0B0FA80F22032904600F0A9
:1003200053F804460F4640EA0A0041EA0B015346DF
:100330005A46084313D0114653EA010019D0C8F1B8
:1003400040025046FFF712FF05460E4650465946FA
:10035000424600F039F8084305D0012004E0204669
:100360003946BDE8F08D0020054346EAE0762C438F
:1003700037430A986305E40AA0EB08000022FD0A4F
:1003800044EA47540A3002D500200146E9E7010556
:1003900010196941DDE9084500196941BDE8F04DD2
:1003A000A2E70000064C074D06E0E06840F00103BC
:1003B00094E8070098471034AC42F6D3FFF7BCFE30
:1003C000100F0008300F0008202A04DB203A00FA42
:1003D00002F1002070479140C2F1200320FA03F39C
:1003E000194390407047FEE7704700002DE9F84F31
:1003F000DFF8B8A100220AF1040B144601274FF0E0
:100400000F090BF1040E00BF0B6807FA04F52B402F
:10041000AB4274D1DFF898C14E68A6EB0C08664574
:100420002BD00DDC032E34D005DC36B3012E19D0D1
:10043000022E2FD11BE0112E16D0122E2AD119E038
:10044000B8F5881F19D006DCB8F5803F15D0B8F58F
:10045000801F1FD111E0B8F5001F0ED0B8F5041FA2
:1004600018D10AE0CA6815E0CA68121D12E0CA680D
:1004700008320FE0CA680C320CE08A682AB1012AFF
:100480004FF0080203D0456104E0042202E0056158
:1004900000E00022FF2B01D8064601E000F104062F
:1004A0004FEA840501D9A5F12005D6F800C009FA64
:1004B00005F82CEA080C02FA05F54CEA050CC6F81A
:1004C00000C04D68ED006AD53A4DAE6946F00106B0
:1004D000AE61AD6924F0030605F001050095364DC7
:1004E00006EB050CDCF80850A6074FEA167809FA67
:1004F00008F6B543314EB04202D100261AE04EE074
:100500002F4EB04201D1012614E02E4EB04201D14F
:1005100002260FE02C4EB04201D103260AE02B4EFA
:10052000B04201D1042605E0294EB04201D1052692
:1005300000E0062606FA08F62E43CCF808604D685F
:10054000DAF80060ED03554601D51E4300E09E43F6
:100550002E604D68AD0305D5DBF800601E43CBF877
:10056000006004E0DBF800509D43CBF800504D687C
:10057000DEF80060ED02754601D51E4300E09E43A3
:100580002E604D68AD0205D5084D0C352E681E4312
:100590002E6004E0054E0C3635689D433560641CC2
:1005A000102CFFF431AFBDE8F88F000000040140CB
:1005B000000011100010024000000140000801403E
:1005C000000C0140001001400014014000180140DF
:1005D000001C01400AB1016170470904FBE70000FB
:1005E00001480068704700000C00002002480168C4
:1005F000491C0160704700000C000020074810B53E
:10060000016841F010010160032000F085F800202E
:1006100000F006F800F018F8002010BD002002409D
:1006200010B5044607484FF47A710068B0FBF1F04A
:1006300000F0F9FA00222146501E00F04DF800208B
:1006400010BD000010000020214808B5816941F06C
:1006500001018161816901F001010091C16941F0ED
:100660008051C161C06900F080500090032000F00B
:1006700053F8002211466FF00B0000F02DF8002215
:1006800011466FF00A0000F027F8002211466FF0C3
:10069000090000F021F800221146501F00F01CF85C
:1006A00000221146101F00F017F800221146901E7C
:1006B00000F012F800221146501E00F00DF8054817
:1006C000416821F0E06141604168416008BD00007F
:1006D0000010024000000140F0B40E4B1B680C46B5
:1006E000C3F30223C3F10705042D00D90425191D06
:1006F000072901D2002300E0DB1E012606FA05F1DE
:10070000491E214099409E40761E16403143F0BC60
:1007100000F0D8BA0CED00E0064900F007020868C6
:100720004FF6FF03184040EA0220034A10430860D6
:10073000704700000CED00E00000FA052DE9F047DD
:10074000DFF83C8105460E46D8F8000000F00700AF
:10075000B0420CD2D8F8001021F007013143C8F89C
:100760000010D8F8000000F00700B04263D12878EC
:10077000444C800705D56068A96820F0F000084364
:1007800060602878C00745D06868012816D02168C5
:10079000022816D0890700294DDA616821F003018B
:1007A00001436160FFF71CFF6968074641F288302A
:1007B00001290FD00229814619D027E02168890339
:1007C000E9E78901E7E700BFFFF70AFFC11B4945D9
:1007D00001D918E081466068C0F381000128F3D197
:1007E00018E000BFFFF7FCFEC11B49450BD860684D
:1007F000C0F381000228F5D10CE000BFFFF7F0FE46
:10080000C11B494502D90320BDE8F087606810F09C
:100810000C0FF3D1D8F80010404601F00701B142A7
:100820000BD9016821F0070131430160006800F035
:100830000700B04201D00120E6E72878400705D53F
:100840006068E96820F4E060084360602878000789
:1008500006D56068296920F4605040EAC1006060F4
:1008600000F01CF86168084AC1F30311515CC840EC
:10087000064908600020FFF7D3FE0020C4E700000F
:100880000020024000100240FC0E00081000002072
:1008900001480068704700001000002010B512A346
:1008A00085B00FCB8DE80F0013A0144B00680490A7
:1008B0005A68134802F00C0104290FD008290DD101
:1008C000C2F38344D2031DF8041009D55A6804AB5F
:1008D000C2F340429A5CB0FBF2F0484305B010BD51
:1008E00008484843FAE70000020304050607080920
:1008F0000A0B0C0D0E0F1010010200000010024038
:1009000000127A0000093D002DE9F84F04460078F6
:10091000B94DC00748D06868C0F38100012807D0EE
:100920006868C0F38100022809D16868C00306D551
:100930002868800338D5606800286FD034E060688C
:10094000B0F5803F0BD010B1B0F5A02F11D02868C2
:1009500020F480302860286820F4802002E0286895
:1009600040F480302860606888B1FFF739FE0646A1
:1009700009E0286840F480202860F0E7FFF730FEA7
:10098000801B642875D828688003F7D50CE0FFF732
:1009900027FE064605E000BFFFF722FE801B642805
:1009A000F0D828688003F7D42078944E80074FF061
:1009B00001094FF000083BD5686810F00C0F07D014
:1009C0006868C0F38100022809D16868C00306D4B2
:1009D0002868800714D5206901281FD110E02069FC
:1009E000B0B1C6F80090FFF7FBFD074605E000BF79
:1009F000FFF7F6FDC01B0228C4D828688007F7D58A
:100A00002868616920F0F80040EAC10028600FE022
:100A1000C6F80080FFF7E4FD074606E0E9E000BF06
:100A2000FFF7DEFDC01B022823D828688007F7D413
:100A3000207800072CD57248A169D9B1C0F8009080
:100A4000FFF7CEFD074604E0FFF7CAFDC01B0228F2
:100A50000FD8686A8007F7D56A484FF4FA510068E2
:100A6000B0FBF1F0009000BF0098411E0091FAD257
:100A70000EE080E0C0F80080FFF7B2FD074604E01A
:100A8000FFF7AEFDC01B022875D8686A8007F7D44F
:100A90002078400760D5E8690027C00008D4E869DD
:100AA00040F08050E861E869012700F08050009034
:100AB00055480168C90513D40168834641F4807123
:100AC0000160FFF78DFD824606E000BFFFF788FD5D
:100AD000A0EB0A0064284ED8DBF80000C005F5D56D
:100AE000E06801280AD008B1052813D0286A20F050
:100AF00001002862286A20F0040002E0286A40F021
:100B000001002862E06841F2883B98B1FFF768FD78
:100B100082460BE0286A40F004002862EEE700BF3E
:100B2000FFF75EFDA0EB0A0159455AD8286A8007F5
:100B3000F6D50CE0FFF754FD824605E0FFF750FDC7
:100B4000A0EB0A0159454CD8286A8007F6D41FB19A
:100B5000E86920F08050E861E06988B36968C1F312
:100B60008101022945D00228C6F8608004D0FFF731
:100B700037FD044638E034E0FFF732FD074604E075
:100B8000FFF72EFDC01B02282BD828688001F7D460
:100B9000206AB0F5803F05D16868A16820F4003074
:100BA00008436860D4E908010843696821F47411B6
:100BB00008436860C6F86090FFF712FD044606E03F
:100BC00015E000BFFFF70CFD001B022809D82868BC
:100BD0008001F7D50BE000BFFFF702FD001B0228E4
:100BE00002D90320BDE8F88F28688001F4D40020E2
:100BF000F8E70120F6E70000001002400000424242
:100C00008004424210000020007000404FF0E021BC
:100C10000428086903D020F004000861704740F000
:100C20000400FAE7704710B5401EB0F1807F01D391
:100C3000012010BD4FF0E02460610F21601700F02B
:100C400041F80020A06107202061002010BD10B5F0
:100C5000FFF7E8FF10BDFEE7174810B5816986B0C1
:100C600041F040018161816901F040010491816995
:100C700041F004018161816901F0040104918169FD
:100C800041F00801816180690C4C00F0080004907B
:100C9000002220212046FFF79DFC2020009001200B
:100CA0000190002002900220039069462046FFF741
:100CB0009DFB06B010BD000000100240001801406E
:100CC000FEE770470907090E002806DA00F00F005A
:100CD00000F1E02080F8141D704700F1E02080F85A
:100CE0000014704770477047401EB0F1807F01D3F9
:100CF000012070474FF0E0214861054AF02082F85A
:100D0000140D002088610720086100207047000052
:100D10000FE000E0064810B5016811B10168491EF6
:100D20000160FFF763FCBDE81040FFF790BF0000D3
:100D30000800002010B590B002200090012004901F
:100D400010200024059007946846FFF7DDFD00B1F0
:100D5000FEE70F20CDE90A040C940D9400210AA8A7
:100D60000E94FFF7EBFC00B1FEE7FFF791FD4FF4A7
:100D70007A71B0FBF1F0FFF756FF0420FFF746FF52
:100D800000221146501EFFF7A7FC10B010BD000056
:100D90000D48016841F00101016041680B4A1140B2
:100DA000416001680A4A11400160016821F4802114
:100DB0000160416821F4FE0141604FF41F01816030
:100DC0000449C00308607047001002400000FFF8AB
:100DD000FFFFF6FE08ED00E0FEE702E008C8121F84
:100DE00008C1002AFAD170477047002001E001C114
:100DF000121F002AFBD170477047000070B5124CDB
:100E00002568B5F57A7F01D2012000E00020FFF7C8
:100E10002CFA0D4A0D4EC2E9020140F2CF72954202
:100E200002DB0022226001E06D1C256000221346D7
:100E3000FFF742FA01D1002200E001223046BDE86E
:100E400070402021FFF7C6BB1800002000180140A9
:100E5000FFF7D4FBFFF76EFFFFF7FEFEDFF884809D
:100E6000D8F80000FFF701FA1F4E00223346FFF7C3
:100E70008DF9FFF707FAFFF737FF1C4C0125C0B1CA
:100E800065602F06D8F80000FFF7EFF9002233461F
:100E9000FFF77CF9FFF7F6F96168491C616061684A
:100EA000B0FBF1F1B942F7D26168B0FBF1F0FFF7A6
:100EB0001BFF6068A0600D4E00273770FFF79CFF96
:100EC000DFF82C80A0680028FCD16068A060307832
:100ED00018B1D8F8000007A101603570FFF78EFF48
:100EE0003770EFE71000002000408F400000002026
:100EF0000C0F00084F76657272756E0000000000DE
:100F00000000000001020304060708092800002071
:100F1000300F0008000000202C000000DA0D00084F
:100F20005C0F00082C00002004040000EA0D0008FB
:100F300000000000010000000100000000000000AF
:100F400000A24A04000000000000000000000000B1
:0C0F500000000000000000000000000095
:0400000508000131BD
:00000001FF
