:020000040800F2
:100000003004002001010008670B0008110B0008F4
:10001000650B00086B030008C50C00080000000019
:10002000000000000000000000000000BB0B000802
:100030006D03000800000000B90B0008BD0B0008AC
:100040001B0100081B0100081B0100081B01000820
:100050001B0100081B0100081B0100081B01000810
:100060001B0100081B0100081B0100081B01000800
:100070001B0100081B0100081B0100081B010008F0
:100080001B0100081B0100081B0100081B010008E0
:100090001B0100081B0100081B0100081B010008D0
:1000A0001B0100081B0100081B0100081B010008C0
:1000B0001B0100081B010008000000001B010008D4
:1000C0001B01000800000000000000001B010008E8
:1000D000000000001B0100081B01000800000000D8
:1000E0001B0100081B0100081B010008DFF80CD0F1
:1000F00000F01AF900480047C90C0008300400203D
:100100000648804706480047FEE7FEE7FEE7FEE7B1
:10011000FEE7FEE7FEE7FEE7FEE7FEE7310C00083C
:10012000ED000008202A04DB203A21FA02F0002129
:10013000704721FA02F3D040C2F1200291400843F7
:10014000194670472DE9F04D81EA030404F0004B95
:1001500021F0004514464FF0000A23F0004150EA18
:10016000050220D054EA01021DD0C5F30A57024609
:10017000C5F31303C1F31300C1F30A5640F480150D
:1001800043F48013A7EB0608101BD64608F2FD388F
:1001900073EB050002D308F1010801E092185B41FE
:1001A000B8F1000F03DA00200146BDE8F08D002011
:1001B0004FF48011064684460EE0171B73EB0507CB
:1001C00005D3121B63EB050306434CEA010C4908F7
:1001D0004FEA300092185B4150EA0107EDD152EA34
:1001E000030012D082EA040083EA0501084305D027
:1001F000101BAB4106D20122002306E000224FF083
:10020000004302E06FF0010253101AEB06004CEBC2
:10021000085110EB0A0041EB0B01BDE8F04D00F076
:1002200026B80EB540F2334102910021CDE900110C
:100230000A460B4600F02AF803B000BDC1F30A528B
:1002400010B5C1F3130140F2FF3341F480119A421B
:1002500001DA002010BD40F233439A42A2F2334249
:1002600003DC5242FFF75EFF10BD904010BD10B599
:10027000141E73F1000408DA401C41F100019218C9
:100280005B411A4301D120F0010010BD2DE9F04D72
:1002900092469B4611B1B1FA81F202E0B0FA80F2C7
:1002A0002032904600F052F804460F4640EA0A0019
:1002B00041EA0B0153465A46084313D0114653EA0C
:1002C000010019D0C8F140025046FFF72BFF054648
:1002D0000E4650465946424600F038F8084305D0CD
:1002E000012004E020463946BDE8F08D002005439A
:1002F00046EAE0762C4337430A986305E40AA0EB0C
:1003000008000022FD0A44EA47540A3002D50020C2
:100310000146E9E7010510196941DDE908450019C1
:100320006941BDE8F04DA2E7064C074D06E0E068E4
:1003300040F0010394E8070098471034AC42F6D32C
:10034000FFF7D8FEC00D0008E00D0008202A04DBEE
:10035000203A00FA02F1002070479140C2F12003D8
:1003600020FA03F3194390407047FEE770470000FE
:100370002DE9FC4F5B4A03234FF0000A4FF00108C0
:100380004FF00F0E4FF00009904208BF0223009378
:100390000025102D08BFBDE8FC8F0B6808FA05FC8E
:1003A00013EA0C0F00F099804F68032F16D9112F14
:1003B00026D0122F28D04E4A974213D04D4A97424A
:1003C00010D04D4A97420DD04C4A97420AD04C4A21
:1003D000974207D04B4A974204D022E0DFE807F06B
:1003E00002181B1F8B6843B1012B14BFC0F814C047
:1003F000C0F810C04FF0080913E04FF0040910E0F6
:10040000CB6803F104090CE0CB6803F10C0908E0A8
:10041000D1F80C9005E0CB6803F1080901E04FF03A
:10042000000953460646082D28BF203B28BF043646
:1004300037680EFA03F409FA03F327EA04042343A6
:100440003360CB79DB0648D5694A0AF00C0713689C
:1004500043F0010313601368234A03F00103A2F57C
:100460007E7601930EFA07F3019CAC0856F824201F
:1004700022EA030B244A904205D0244A009B904272
:1004800008BF012300E0002303FA07F242EA0B024F
:1004900046F82420144C4F68FA03226854BF22EA1D
:1004A0000C0342EA0C032360BA03626854BF22EAD9
:1004B0000C0342EA0C036360FA02A26854BF22EA0A
:1004C0000C0342EA0C03A360084BBA021A6854BF3B
:1004D00022EA0C0242EA0C021A600AF1040A01350F
:1004E00057E700BF00100140000401400C04014028
:1004F0000000111000001210000021100000221056
:10050000000031100000321000080140000C0140D2
:10051000002A08BF09040161704700000448006810
:10052000704700BF0248016801310160704700BF99
:100530002800002080B59548016841F01001016055
:10054000032000F077F8002000F004F800F014F821
:10055000002080BD10B5044690484FF47A710068C1
:10056000B0FBF1F000F0C2FA4FF0FF30214600225C
:1005700000F044F8002010BD1CB51D48016841F092
:1005800001010160016801F00101019101994168D7
:1005900041F080514160406800F080500090009828
:1005A000032000F047F8134C6FF00B0000F0ECFA5A
:1005B0006FF00A0000F0E8FA6FF0090000F0E4FACA
:1005C0006FF0040000F0E0FA6FF0030000F0DCFAD6
:1005D0006FF0010000F0D8FA4FF0FF3000F0D4FACD
:1005E0000548016821F0E0610160016801601CBDFF
:1005F00018100240FD0500080400014070B5134BBF
:100600004FF0FF351B68C3F30223DC1E83F00703A2
:1006100038BF002405FA04F6B243042B28BF042394
:1006200005FA03F39943A1401143BDE8704000F07F
:100630009BBA00BF05494FF6FF030A681A4060F3F2
:100640000A22034810430860704700BF0CED00E029
:100650000000FA052DE9F8430D464C4904460868A8
:1006600000F00700A84209D2086820F007002843DC
:100670000860086800F00700A84249D12068554F7B
:100680008946810705D5A1683A6822F0F002114336
:100690003960C00733D1D9F8000000F00700A84244
:1006A0000CD9D9F8000020F007002843C9F8000051
:1006B000D9F8000000F00700A84229D120684107BE
:1006C00005D5E1683A6822F4E06211433960000719
:1006D00006D52069396821F4605141EAC0003860CC
:1006E00000F05EF839682A4A0024C1F30311515C16
:1006F000C840F64908600020FFF72CFF09E0606859
:10070000022809D001283BD157F8041C890307D4DB
:1007100001242046BDE8F88357F8041C8901F7D569
:10072000396821F0030108433860FFF7F7FE0646F9
:10073000606841F2883801280CD002281BD1386843
:1007400000F00C000828A6D0FFF7E8FE801B40450B
:10075000F5D909E0386800F00C0004289BD0FFF7B9
:10076000DDFE801B4045F5D90324D2E7FFF7D6FE16
:10077000801B4045F8D8386810F00C0FF6D18AE796
:1007800057F8041C8907C3D5CAE700BF0020024000
:10079000AA0D0008CD480068704700BF080000207F
:1007A00010B50C490C480B6803F00C02082A07D15D
:1007B000C3F3834209A4DB03A25C02D40C48504378
:1007C00010BD096809A3C1F34041595CB0FBF1F0C9
:1007D000504310BD0410024000127A0002030405C9
:1007E000060708090A0B0C0D0E0F1010010200007D
:1007F00000093D002DE9FC4104460078B14EC007D8
:100800001FD0706800F00C00042814D000F0CFF95D
:1008100002D17068C0030ED46068002800F0068121
:10082000B0F5A02F00F01381B0F5803F00F01381E8
:1008300000F0ADF912E13068800302D5606800284D
:1008400068D02078800716D5706810F00C0F05D09E
:1008500000F0ADF924D17068C00321D4306880075E
:1008600002D52069012855D16069316821F0F8016D
:1008700041EAC00030602078000741D5A06910B37C
:1008800091480121C0F88014FFF748FE0546706AC0
:10089000800728D4FFF742FE401B0228F7D9EAE080
:1008A00021698948002900F0818001210160FFF75A
:1008B00035FE054630688007D6D4FFF72FFE401B73
:1008C0000228F7D9D7E080480021C0F88014FFF74C
:1008D00025FE0546706A800712D5FFF71FFE401BF4
:1008E0000228F7D9C7E079484FF4FA510068B0FB05
:1008F000F1F0019000BF0198411E00280191F9D14B
:100900002078400709D4E769002F00F0D88000F074
:100910004EF92CD10120BDE8FC81F06910F080581F
:1009200008D1F06940F08050F061F06900F080502B
:1009300000900098664F3868C0050FD4386840F4BE
:1009400080703860FFF7EAFD05463868C00505D4B9
:10095000FFF7E4FD401B6428F7D98CE0E068A0B302
:10096000052844D0012846D000F019F946E0564940
:10097000002088460866FFF7D1FD0546022F0AD100
:1009800047463068800179D5FFF7C8FD411B032039
:100990000229F6D991E03068800140F19080FFF79C
:1009A000BDFD411B03200329F5D386E00021016032
:1009B000FFF7B4FD0546306880077FF55CAFFFF7B1
:1009C000ADFD401B0228F6D955E000F0E8F8306292
:1009D000FFF7A4FD054641F28837306A80071CD531
:1009E000FFF79CFD411B0320B942F6D965E0306A50
:1009F00040F004003062306A40F001003062FFF7DE
:100A00008DFD054641F28837306A800705D4FFF72F
:100A100085FD401BB842F7D92DE0B8F1000F7FF4F7
:100A200072AFF06920F08050F0616CE700F0AFF831
:100A30003060FFF773FD0546306880037FF501AF36
:100A4000FFF76CFD411B03206429F5D935E03068C0
:100A500040F480203060306840F480303060FFF730
:100A60005DFD0546306880033FF5EBAEFFF756FDB0
:100A7000401B6428F6D90320BDE8FC81206AB0F54C
:100A8000803F05D1A168726822F400321143716081
:100A9000616A0843716821F4741108437060012091
:100AA0003866FFF73BFD04463068800107D4FFF746
:100AB00035FD011B03200229F6D9BDE8FC81002089
:100AC000BDE8FC8100100240000042420800002006
:100AD00000700040A74904280A6822F0040208BFF9
:100AE00004320A60704700BF70470000411E0020BA
:100AF000B0EB116F01D0012070479E4AF023516086
:100B00009D490B700721906011607047FFF7ECBFA3
:100B1000FEE700007FB51248694C0022022500263E
:100B2000016841F004010160016801F004010091D5
:100B30000099016841F0080101600221006800F09D
:100B40000800009000982046FFF7E2FC0120CDE964
:100B500002656946CDE900502046FFF709FC7FBDDC
:100B600018100240FEE7704710B5054A002800F053
:100B70000F03044C024448BF1A190801107010BD3D
:100B800000E400E014ED00E000210022204730687E
:100B900020F480303060306820F480207047306A64
:100BA00020F001003062306A20F004007047706865
:100BB00000F00C00082870477047704780B5064861
:100BC000016811B1016801390160FFF7ABFCBDE8B4
:100BD0008040FFF79BBF00BF0000002010B590B021
:100BE000102000240B9001200D940A900220069002
:100BF00006A8FFF7FFFD0F20029400210190CDE928
:100C00000344059401A8FFF725FDFFF7C3FD4FF44A
:100C10007A71B0FBF1F0FFF769FF0420FFF75AFF8C
:100C20004FF0FF3000210022FFF7E8FC10B010BDAC
:100C30000E480F4A016841F001010160416811400E
:100C40000C4A4160016811400160016821F4802173
:100C50000160416821F4FE0141604FF41F01816091
:100C600005484FF000610160704700BF001002406E
:100C70000000FFF8FFFFF6FE08ED00E070470000FF
:100C800010B50E480022002340F2CE740168B1F581
:100C90007A7F3CBF0023C3F6F073C0E902234B1CEC
:100CA000A142C8BF00230360B1F57A7F044838BF72
:100CB00001220221BDE81040FFF72ABC10000020ED
:100CC00000080140FEE70000FFF734FCFFF786FF55
:100CD000FFF720FF24480068FFF7A3FA234B002208
:100CE0000024FFF72FFAFFF7A9FA411EB1F1807F28
:100CF00013D31F4901224A604A6801324A604A6898
:100D0000B0FBF2F2B4EB126FF6D14968B0FBF1F030
:100D1000411E0020B0EB116F07D11648F022416050
:100D200015490A70072184600160144C4FF00009D6
:100D30000F4E84F8009070683060FFF79FFF1048F6
:100D40000FF240080125076830680028FCD1706860
:100D500030602078012808BFC7F800802570FFF7B1
:100D60008FFF84F80090EFE70800002000408F40DC
:100D70000000002010E000E023ED00E02000002053
:100D8000BC0D00084F76657272756E0002E008C8EF
:100D9000121F08C1002AFAD170477047002001E0F5
:100DA00001C1121F002AFBD17047000000000000A3
:100DB00000000102030406070809000024000020C7
:100DC000E00D000800000020100000008C0D00085D
:100DD000F00D000810000020200400009C0D000809
:100DE000010000000100000000A24A040000000011
:04000005080000ED02
:00000001FF
