:020000040800F2
:1000000070040020650100084B1000085D0F000817
:1000100049100008550400084511000800000000C0
:100020000000000000000000000000004F10000869
:1000300057040008000000004D100008511000088F
:100040007F0100087F0100087F0100087F01000890
:100050007F0100087F0100087F0100087F01000880
:100060007F0100087F0100087F0100087F01000870
:100070007F0100087F0100087F0100087F01000860
:100080007F0100087F0100087F0100087F01000850
:100090007F0100087F0100087F0100087F01000840
:1000A0007F0100087F0100087F0100087F01000830
:1000B0007F0100087F0100087F0100087F01000820
:1000C0007F0100087F0100087F0100087F01000810
:1000D0007F0100087F0100087F0100087F01000800
:1000E0007F0100087F0100087F0100080000000078
:1000F0000000000000000000000000000000000000
:1001000000000000000000007F0100087F010008DF
:100110007F0100087F0100087F0100087F010008BF
:100120007F0100087F0100087F0100087F010008AF
:100130007F0100087F0100087F0100087F0100089F
:100140007F0100087F0100087F0100087F0100088F
:10015000DFF80CD000F06CF90048004749110008A6
:10016000700400200648804706480047FEE7FEE787
:10017000FEE7FEE7FEE7FEE7FEE7FEE7FEE7FEE757
:10018000B5100008510100082DE9F05F0546002078
:1001900092469B4688460646814640241BE02846F8
:1001A00041464746224600F0D6F853465A46C01A02
:1001B000914110D311461846224600F0BDF82D1A81
:1001C00067EB01084F4622460120002100F0B4F8F9
:1001D00017EB00094E41201EA4F10104DFDC484664
:1001E00031462A464346BDE8F09FD2B201E000F80E
:1001F000012B491EFBD270470022F6E710B51346CB
:100200000A4604461946FFF7F0FF204610BD2DE9C7
:10021000F04D81EA030404F0004B21F00045144640
:100220004FF0000A23F0004150EA050220D054EAC2
:1002300001021DD0C5F30A570246C5F31303C1F3EB
:100240001300C1F30A5640F4801543F48013A7EB62
:100250000608101BD64608F2FD3873EB050002D3E2
:1002600008F1010801E092185B41B8F1000F03DAD0
:1002700000200146BDE8F08D00204FF480110646B5
:1002800084460EE0171B73EB050705D3121B63EBC7
:10029000050306434CEA010C49084FEA3000921866
:1002A0005B4150EA0107EDD152EA030012D082EA25
:1002B000040083EA0501084305D0101BAB4106D2B8
:1002C0000122002306E000224FF0004302E06FF01D
:1002D000010253101AEB06004CEB085110EB0A0018
:1002E00041EB0B01BDE8F04D00F045B80EB540F212
:1002F000334102910021CDE900110A460B4600F07E
:1003000049F803B000BDC1F30A5210B5C1F313019F
:1003100040F2FF3341F480119A4201DA002010BD0F
:1003200040F233439A42A2F2334203DC524200F0DD
:1003300012F810BD904010BD202A04DB203A00FACC
:1003400002F1002070479140C2F1200320FA03F32C
:10035000194390407047202A04DB203A21FA02F02A
:100360000021704721FA02F3D040C2F120029140EF
:1003700008431946704710B5141E73F1000408DADB
:10038000401C41F1000192185B411A4301D120F059
:10039000010010BD2DE9F04D92469B4611B1B1FA16
:1003A00081F202E0B0FA80F220329046FFF7C4FFFB
:1003B00004460F4640EA0A0041EA0B0153465A46FA
:1003C000084313D0114653EA010019D0C8F1400286
:1003D0005046FFF7C0FF05460E4650465946424676
:1003E000FFF7AAFF084305D0012004E02046394664
:1003F000BDE8F08D0020054346EAE0762C43374304
:100400000A986305E40AA0EB08000022FD0A44EA0A
:1004100047540A3002D500200146E9E701051019CA
:100420006941DDE9084500196941BDE8F04DA2E7E1
:10043000064C074D06E0E06840F0010394E8070031
:1004400098471034AC42F6D3FFF786FE70120008CE
:1004500090120008FEE77047704700002DE9F04F4A
:1004600082B00E68002E00F0F98040F2004E41F29A
:1004700000424FF6FF77C4F2010EC4F201020423DA
:1004800000244FF0010CC1F210074FF00F0B4FF09A
:10049000000A4FF00009904208BF0323009300BFF9
:1004A0000CFA0AF816EA080F00F0CF804E68BE4238
:1004B00008DC032E34D8DFE806F028023E42D1F8EB
:1004C0000C9043E04FF6FF72C1F2210296420DDC20
:1004D0000022C1F21102964217D00022C1F212028C
:1004E000964212D00022C1F221020CE00022C1F299
:1004F0002202964209D00022C1F23102964204D073
:100500000022C1F23202964220D18A6882B1012AC9
:1005100014BFC0F81480C0F810804FF0080915E02F
:10052000112E0FD0122E11D1CA6802F10C090DE064
:100530004FF004090AE0CA6802F1080906E04FF02A
:10054000000903E0CA6802F1040900BF224603461D
:10055000BAF1080F24BF203A04331D680BFA02F6E3
:10056000B54309FA02F22A431A60CA79D2066CD559
:1005700041F21803C4F202031A684FEA9A0C42F0DF
:1005800001021A601A6804F00C0702F001020192DD
:10059000019AAEF57E7252F82C3040F600060BFA46
:1005A00007F5C4F20106B04223EA050510D040F673
:1005B0000043C4F20103984208D041F20003C4F2A0
:1005C00001039842009B08BF022302E0012300E0E0
:1005D0000023BB402B4342F82C30D1F804B04FF637
:1005E000FF775FEACB32DEF8002054BF22EA080230
:1005F00042EA0802CEF80020DEF804205FEA8B33DE
:1006000054BF22EA080242EA0802CEF804205FEA58
:10061000CB23DEF8082054BF22EA080242EA08028F
:100620005FEA8B2340F20C43CEF80820C4F20103AA
:100630004FF0010C1A68C1F210074FF00F0B54BFB6
:1006400022EA080242EA08021A600E680AF1010A68
:1006500036FA0AF204F104047FF422AF02B0BDE8D6
:10066000F08F002A08BF09040161704740F26C0056
:10067000C2F200000068704740F20C0040F26C01CA
:10068000C2F20000C2F2000100780A68104408605B
:10069000704780B542F20000C4F20200016841F0E8
:1006A00010010160032000F07BF8002000F004F846
:1006B00000F02AF8002080BDB0B540F20C02C2F272
:1006C000000240F200011278C2F200014FF47A7386
:1006D0000968B3FBF2F20446B1FBF2F1084600F000
:1006E000BBFB0F2C4FF001050CD858B94FF0FF3071
:1006F00021460022002500F028F840F21000C2F246
:10070000000004602846B0BD82B041F21800C4F277
:1007100002000168042241F001010160016801F05A
:10072000010101910199416841F0805141604068A7
:1007300000F08050009000980420C4F2010001688D
:1007400062F31A61016002B0704710B54EF60C5C9E
:10075000CEF2000CDCF80030C3F3022E8EF007045A
:10076000042C28BF0424BEF103034FF0FF3E0EFA11
:1007700004F438BF0023A14399400EFA03F39A43CF
:1007800000F00F03043B1143634409010C3300F1F3
:100790006042B0F1FF3FC8BF02F56443197010BD5D
:1007A0004EF60C51CEF200010A684FF6FF031A40D4
:1007B00060F30A2242F0806040F0FD7008607047EC
:1007C0002DE9F04381B0002800F0878042F2000854
:1007D000C4F202080446D8F800000D4600F00700F5
:1007E00088420CD2D8F8000020F007002843C8F84F
:1007F0000000D8F8000000F00700A8426DD1206882
:1008000041F204098107C4F2020917D5410705D551
:10081000D9F8001041F4E061C9F80010010705D5CE
:10082000D9F8001041F46051C9F80010D9F800104F
:10083000A26821F0F0011143C9F80010C00743D1AC
:10084000D8F8000000F00700A8420CD9D8F8000042
:1008500020F007002843C8F80000D8F8000000F096
:100860000700A84239D12068410707D5D9F8001000
:10087000E26821F4E0611143C9F80010000708D5CF
:10088000D9F80000216920F4605040EAC100C9F89D
:10089000000000F071F8D9F8001041F25222C1F3C3
:1008A0000311C0F60002515C40F2000220FA01F18F
:1008B00040F21000C2F200000068C2F200021160B3
:1008C000FFF7FAFE002009E06068022809D001283D
:1008D00027D159F8041C890307D4012001B0BDE8D1
:1008E000F08359F8041C8901F7D5D9F8001021F0DC
:1008F00003010843C9F80000FFF7B8FE064641F2BD
:10090000883700BFD9F80000616800F00C00B0EB38
:10091000810F95D0FFF7AAFE801BB842F2D90320C1
:10092000DCE759F8041C8907D7D5DEE740F2000060
:1009300041F20401C2F20000C4F202010068096839
:1009400041F26222C1F30221C0F60002515CC840AC
:10095000704740F2000041F20401C2F20000C4F20C
:1009600002010068096841F26222C1F3C221C0F6A7
:100970000002515CC840704710B541F22C01C4F22E
:10098000020151F8283C03F00C00082841F2002035
:10099000C0F27A0018BF10BDC3F3834419A2125DE0
:1009A000DB0305D440F60010C0F23D00504310BDFB
:1009B0000B680FF2600C03F00F0E0B681CF80EC0F2
:1009C000DB0303D45043B0FBFCF013E00B68096871
:1009D000C3F3031303F1010E42F20043C1F30321F9
:1009E000C0F2F40301FB0030A0FB0201AEFB0C23BC
:1009F000FFF7CAFBA4F10D01B1FA81F14909C84022
:100A000010BD00BF00000405060708090000000033
:100A1000000D00000102030405060708090A0B0C7B
:100A20000D0E0F102DE9F04182B0002800F0C981B1
:100A30000446007841F20006C007C4F202060BD05B
:100A4000706800F00C0004283BD13068800303D5A7
:100A5000A068002800F0B5812078800719D570685B
:100A600010F00C0F07D0706800F00C00082844D17B
:100A70007068C00341D43068800703D560690128DD
:100A800040F09F813068A16920F0F80040EAC10081
:100A90003060207800076BD5E069002843D0002043
:100AA000C4F242200121C0F88014FFF7DFFD0546A3
:100AB000706A800749D4FFF7D9FD401B0228F7D997
:100AC0004BE1706800F00C00082802D17068C00388
:100AD000BBD4A068002800F01381B0F5A02F00F06F
:100AE0002781B0F5803F00F02781306820F4803006
:100AF0003060306820F4802021E16069002840F2F5
:100B00000000C4F2422000F0B18001210160FFF733
:100B1000ADFD054630688007B4D4FFF7A7FD401B44
:100B20000228F7D919E10020C4F242200021C0F8C0
:100B30008014FFF79BFD0546706A800718D5FFF704
:100B400095FD401B0228F7D907E140F20000C2F2F0
:100B50000000006844F6D351C1F26201A0FB01011C
:100B6000480A019000BF0198411E00280191F9D167
:100B70002078400730D4E06A002800F00C817168CA
:100B8000C90308D5716801F00C01082903D1F16A85
:100B9000C90300F11681022851D13068C00006D582
:100BA000F06A616B00F0F000884240F00A81002793
:100BB000C4F242270020B866FFF758FD054600BF83
:100BC0003068000140F1CB80FFF750FD401B6428E6
:100BD0004FF00300F4D9F5E0F06910F0805808D127
:100BE000F06940F08050F061F06900F080500090B2
:100BF000009847F20007C4F200073868C00510D417
:100C0000386840F480703860FFF730FD054600BF5B
:100C10003868C00505D4FFF729FD401B6428F7D9C3
:100C20009BE02069A0B305284BD001284DD0306A45
:100C300020F001003062306A20F0040048E0F06AE1
:100C4000002120F48030F0620020C4F2422081664E
:100C5000FFF70CFD054600BF3068000140F19B80A6
:100C6000FFF704FD401B6428F6D976E000210160FF
:100C7000FFF7FCFC054600BF306880077FF509AF31
:100C8000FFF7F4FC401B02284FF00300F4D999E071
:100C9000306A20F001003062306A20F004003062D7
:100CA000FFF7E4FC054641F2883700BF306A800751
:100CB0001DD5FFF7DBFC401BB8424FF00300F5D910
:100CC00080E0306A40F004003062306A40F0010099
:100CD0003062FFF7CBFC054641F28837306A800767
:100CE00005D4FFF7C3FC401BB842F7D935E0B8F193
:100CF000000F7FF440AFF06920F08050F0613AE7D8
:100D0000306820F480303060306820F4802030601B
:100D1000FFF7ACFC054600BF306880037FF59CAE52
:100D2000FFF7A4FC401B64284FF00300F4D949E00E
:100D3000306840F480203060306840F480303060AB
:100D4000FFF794FC054600BF306880033FF584AE92
:100D5000FFF78CFC401B6428F6D9032032E0F06AD0
:100D6000D4E90C2120F0F0000843F062F06A20F48E
:100D700070601043F0620120B866FFF777FC05460B
:100D80003068000107D4FFF771FC401B64284FF066
:100D90000300F5D916E0256A8DB1706800F00C00EB
:100DA000082812D1012D0CD07068616A00F48032DD
:100DB0008A4206D1A16A00F47010884201D1002055
:100DC00000E0012002B0BDE8F0810027C4F2422714
:100DD00000203866FFF74AFC022D05460CD100BF03
:100DE0003068800113D5FFF741FC401B02284FF00B
:100DF0000300F5D9E6E700BF30688001DFD5FFF7D3
:100E000035FC401B02284FF00300F5D9DAE7606A91
:100E1000B0F5803F09D1F16A6268E3681143F1627D
:100E2000F16A21F00F011943F1627168A26A21F49D
:100E3000741110430843706001203866FFF716FCF8
:100E4000044630688001BAD4FFF710FC001B02286A
:100E50004FF00300F5D9B5E7411E0020B0EB116F4C
:100E60001CBF012070474EF21002CEF2000251600A
:100E70004EF62351CEF20001F0230B700721906053
:100E80001160704750B310B5044690F8390028B986
:100E9000002084F83800204600F022F8242084F84E
:100EA00039002068C16821F40051C160204600F07B
:100EB00002F92068016921F490410161416921F042
:100EC0002A014161C16841F40051C1600020202124
:100ED000E06384F8391084F83A1010BD012070479F
:100EE00070B586B0002640F600040596CDE903668D
:100EF000C4F20104006804F54051884202962AD1E8
:100F000041F21800C4F20200016802AD41F48041D0
:100F10000160016801F4804101910199016841F08B
:100F2000040101600068294600F004000190019866
:100F30004FF4007002900220039003200590204699
:100F4000FFF78CFA4FF48060CDE90206204629466F
:100F50000496FFF783FA06B070BD0000FEE7704705
:100F600080B540F2200EC2F2000EDEF8000040F222
:100F70001803B0FA80F14A094FF0000C00284FF036
:100F80000001C2F2000304BF0021C3F6F071C3E9FF
:100F900000C1431C002841F20040C8BF0023C4F236
:100FA00001000821CEF80030BDE88040FFF759BBB2
:100FB00070B584B041F21800C4F20200016841F239
:100FC000004441F0040101600168C4F2010401F031
:100FD0000401009100990168002241F020010160A4
:100FE00000689C2100F020000090009820469C257D
:100FF0000026FFF736FB01200095CDE9010602200F
:10100000039069462046FFF729FA04B070BD80B509
:1010100040F22C0043F60001C2F20000C4F20101CC
:1010200000234FF00C0C4FF4165280E80E00C0E97C
:101030000333C0E905C3C361FFF724FF18B1BDE85E
:101040008040FFF709BA80BDFEE7704770477047E0
:1010500040F20800C2F20000016811B101680139D4
:101060000160FFF709BB70B594B006AC201D3421B8
:10107000FFF7C2F8022006901020002501260C90F0
:101080002046CDE90455CDE902550B960E951195F4
:10109000FFF7C8FC0F20CDE9010501A80021CDE92B
:1010A00003550595FFF78CFB7020C4F242200660C3
:1010B00014B070BD704710B504460068D4E902C290
:1010C0002369016921F4405111430161616943EAD7
:1010D0000C021143C26841F20C639A431143C16090
:1010E0004169A26921F44071114343F60002C4F240
:1010F00001029042416102D0FFF718FC01E0FFF7C6
:1011000028FC6268192148439100B0FBF1F048F2D5
:101110001F51C5F2EB11A0FB01235A096FF06303C5
:1011200002FB0300322303EB0010A0FB0101F023BC
:1011300003EA5113206803EB0212C1F34311114477
:10114000816010BDFEE70000FFF7A3FAFFF78BFFF9
:10115000FFF72EFFFFF75BFF40F20000C2F2000036
:101160000068FFF7C3F844F20003C4F28F030022C3
:101170000025FFF74CF8FFF7C6F8411E40F20408BF
:10118000B1F1807FC2F2000817D30121C8F8001026
:10119000D8F800100131C8F80010D8F80010B0FBE2
:1011A000F1F1B5EB116FF3D1D8F80010B0FBF1F00D
:1011B000411E0020B0EB116F0DD14EF21000CEF2A7
:1011C000000041604EF62351CEF20001F0220A7079
:1011D000072185600160D8F8000040F2080540F260
:1011E0002806C2F20005C2F200064FF0000A28608D
:1011F00086F800A0FFF7B3FE41F26C20C0F60000B5
:1012000004680FF22809012728680028FCD1D8F8C3
:10121000000028603078012808BFC4F800903770BB
:10122000FFF79EFE86F800A0EEE700BF4F766572DE
:1012300072756E0002E008C8121F08C1002AFAD1B8
:1012400070477047002001E001C1121F002AFBD146
:1012500070470000000000000000010203040607C0
:10126000080900000000010203040000240000201F
:10127000901200080000002018000000341200083E
:10128000A8120008180000205804000044120008AA
:101290000024F40001000000010000000100000033
:0812A000100000000000000036
:04000005080001519D
:00000001FF
