:020000040800F2
:1000000018040020490100080504000879030008CD
:1000100001040008C9010008D71000080000000012
:10002000000000000000000000000000ED070008D4
:10003000CD0100080000000095060008D90800085E
:100040006301000863010008630100086301000800
:1000500063010008630100086301000863010008F0
:1000600063010008630100086301000863010008E0
:1000700063010008630100086301000863010008D0
:1000800063010008630100086301000863010008C0
:1000900063010008630100086301000863010008B0
:1000A00063010008630100086301000863010008A0
:1000B0006301000863010008630100086301000890
:1000C0006301000863010008630100086301000880
:1000D0006301000863010008630100086301000870
:1000E0006301000863010008630100086301000860
:1000F0006301000863010008630100086301000850
:10010000630100086301000863010008630100083F
:10011000410F000863010008630100086301000843
:10012000630100086301000863010008630100081F
:10013000DFF810D000F01AF800480047511100080D
:10014000AFF30080180400200648804706480047A7
:10015000FEE7FEE7FEE7FEE7FEE7FEE7FEE7FEE777
:10016000FEE7FEE7DD08000831010008064C074DF8
:1001700006E0E06840F0010394E807009847103477
:10018000AC42F6D3FFF7D8FF98110008B811000869
:1001900008B50121082000F09FFA4FF48070ADF8F7
:1001A000000010208DF8030003208DF8020069463E
:1001B000044800F00CF84FF48071024800F0DAF8BF
:1001C00008BD0000000C014000BFFEE770472DE9AC
:1001D000F0410246002500260020002300240027CD
:1001E00091F803C00CF00F0591F803C00CF0100C4F
:1001F000BCF1000F03D091F802C04CEA050591F85C
:1002000000C0BCF1000F31D0146800202BE04FF08B
:10021000010C0CFA00F3B1F800C00CEA03069E4290
:1002200020D183004FF00F0C0CFA03F7BC4305FA02
:1002300003FC4CEA040491F803C0BCF1280F06D17A
:100240004FF0010C0CFA00FCC2F814C00AE091F85F
:1002500003C0BCF1480F05D14FF0010C0CFA00FCB3
:10026000C2F810C0401C0828D1D31460B1F800C0F7
:10027000BCF1FF0F34DD546800202EE000F1080CC3
:100280004FF0010808FA0CF3B1F800C00CEA0306BD
:100290009E4221D183004FF00F0C0CFA03F7BC43B0
:1002A00005FA03FC4CEA040491F803C0BCF1280FE2
:1002B00005D100F1080C08FA0CF8C2F8148091F886
:1002C00003C0BCF1480F07D100F1080C4FF0010842
:1002D00008FA0CF8C2F81080401C0828CED35460ED
:1002E000BDE8F081F0B50A46002300240021002576
:1002F00000F00046B6F1004F02D11D4EF16901E059
:100300001B4E7168C0F3034583B200F44016B6F586
:10031000401F08D121F07061154E766826F0706696
:10032000134F7E6012E000F48016B6F5801F06D1F0
:10033000032606FA05F4A14341F0706106E0460D7C
:10034000360103FA06F6B14341F0706122B1460D61
:10035000360103FA06F6314300F00046B6F1004FCD
:1003600002D1034EF16101E0014E7160F0BD000069
:10037000000001404161704700BFFEE710B54FF437
:10038000E13000F091FD05A000F0A8FEFFF700FFAE
:1003900000F0B0F80DA000F0A1FE10BD5B2E5C7562
:1003A0007365725C7372635C6D61696E2E635D0967
:1003B0002044454255473A53797374656D20736103
:1003C000747274207570210D0A0000005B2E5C753C
:1003D0007365725C7372635C6D61696E2E635D0937
:1003E0002044454255473A53797374656D20696ED0
:1003F00069742066696E6973686564210D0A00007E
:1004000000BFFEE77047000070B5002100230F22F7
:10041000C47804B3154C246804F4E064C4F5E064C3
:10042000210AC1F10403CA40447804FA03F1847834
:100430001440214309010E4C0678A155047804F0BC
:100440001F050124AC4005786D11AD0005F1E025D4
:10045000C5F8004109E0047804F01F050124AC4010
:10046000044D0678761145F8264070BD0CED00E08D
:1004700000E400E080E100E002490143024A11602B
:10048000704700000000FA050CED00E01CB50121EA
:10049000042000F021F90121102000F01DF90121B4
:1004A000084600F019F90F20ADF8040018208DF867
:1004B000070003208DF8060001A90B48FFF787FE0F
:1004C0004FF47070ADF8000018208DF80300032081
:1004D0008DF8020001210548FFF704FF6946044832
:1004E000FFF775FE1CBD000000080140000C1A005B
:1004F0000010014010B5FFF7C9FF00F04BF810BD28
:1005000070B504460D46B42095FBF0F000EB4001B9
:10051000C1EBC0104FF47A7101EBC00044F62061CA
:10052000081A86B20B2C2FD2DFE804F02E102429F3
:100530001F2E2E1A060B15003146144800F05BFCE6
:1005400022E03146114800F058FC1DE031461048C9
:1005500000F04FFC18E031460C4800F050FC13E06E
:1005600031460A4800F045FC0EE03146084800F0EC
:1005700046FC09E03146064800F03DFC04E0314607
:10058000034800F03AFC00BF00BF70BD000400400B
:10059000000C004000B587B00121022000F07CF87B
:1005A0000121082000F078F84FF4A060FFF764FF05
:1005B000364800F0CFF9364800F0CCF944F61F6019
:1005C000ADF814004720ADF810000020ADF812007F
:1005D000ADF8160004A92D4800F014FC04A92C481D
:1005E00000F010FC7020ADF800000020ADF808000D
:1005F0000120ADF802006946254800F09FFA082165
:10060000234800F0E7FA6946214800F0EDFA082196
:100610001F4800F03BFB69461D4800F045FB0821E0
:100620001B4800F091FB6946194800F097FB082130
:10063000174800F0D1FB6946144800F07FFA082102
:10064000124800F0C7FA6946104800F0CDFA0821B8
:100650000E4800F01BFB69460C4800F025FB082102
:100660000A4800F071FB6946084800F077FB082152
:10067000064800F0B1FB0121044800F05FF90121B8
:10068000034800F05BF907B000BD00000004004023
:10069000000C00407047000029B1064AD2690243AD
:1006A000044BDA6104E0034AD2698243014BDA6108
:1006B000704700000010024029B1064A1269024347
:1006C000044B1A6104E0034A12698243014B1A6128
:1006D000704700000010024029B1064A92690243A7
:1006E000044B9A6104E0034A92698243014B9A6188
:1006F000704700000010024029B1064AD268024348
:10070000044BDA6004E0034AD2688243014BDA60AA
:10071000704700000010024030B500210022002484
:1007200000232D4D6D6805F00C0121B1042905D081
:10073000082923D105E0294D056022E0274D0560F9
:100740001FE0254D6D6805F47012234D6D6805F4AA
:100750008034022505EB92421CB9214D55430560BA
:100760000BE01D4D6D6805F400351DB11C4D554362
:10077000056002E0194D5543056002E0174D056024
:1007800000BF00BF144D6D6805F0F0010909154D5B
:100790006B5C0568DD4045600F4D6D6805F4E061F8
:1007A000090A104D6B5C4568DD4085600A4D6D6837
:1007B00005F46051C90A0B4D6B5C4568DD40C560AE
:1007C000054D6D6805F44041890B074D6B5CC568AC
:1007D000B5FBF3F5056130BD0010024000127A0050
:1007E00000093D000000002010000020704710B5F7
:1007F00000F002F810BD00000CB500200190009040
:100800003348006840F480303149086000BF304808
:10081000006800F4003000900198401C019000989E
:1008200018B90198B0F5A06FF1D12948006800F41B
:10083000003010B10120009001E0002000900098ED
:10084000012843D12348006840F010002149086086
:100850000846006820F0030008600846006840F081
:10086000020008601A484068194948600846406814
:1008700048600846406840F4806048600846406828
:1008800020F47C1048600846406840F4E810486056
:100890000846006840F08070086000BF0C4800689F
:1008A00000F000700028F9D00948406820F00300EB
:1008B000074948600846406840F00200486000BFB1
:1008C0000348406800F00C000828F9D10CBD000076
:1008D00000100240002002407047000010B513488D
:1008E000006840F00100114908600846406810495E
:1008F00008400E494860084600680E4908400B4908
:1009000008600846006820F48020086008464068B7
:1009100020F4FE0048604FF41F008860FFF767FF77
:100920004FF000600449086010BD00000010024054
:100930000000FFF8FFFFF6FE08ED00E021B102889D
:1009400042F00102028004E002884FF6FE731A4072
:100950000280704710B504466848844208D10121DE
:10096000C014FFF7C9FE0021E014FFF7C5FEC4E084
:10097000B4F1804F08D101210846FFF79DFE002108
:100980000120FFF799FEB8E05D48844208D10121BB
:100990000220FFF791FE00210220FFF78DFEACE060
:1009A0005848844208D101210420FFF785FE002128
:1009B0000420FFF781FEA0E05348844208D10121C2
:1009C0000820FFF779FE00210820FFF775FE94E06C
:1009D0004E48844208D101211020FFF76DFE00210E
:1009E0001020FFF769FE88E04948844208D10121C0
:1009F0002020FFF761FE00212020FFF75DFE7CE054
:100A00004448844208D101214014FFF775FE0021BB
:100A10006014FFF771FE70E03F48844209D1012164
:100A2000C804FFF769FE00214FF40020FFF764FEC1
:100A300063E03A48844209D101210805FFF75CFED2
:100A400000214FF48010FFF757FE56E034488442EF
:100A500009D101214805FFF74FFE00214FF4001096
:100A6000FFF74AFE49E02F48844208D10121402087
:100A7000FFF722FE00214020FFF71EFE3DE02A483E
:100A8000844208D101218020FFF716FE002180203A
:100A9000FFF712FE31E02548844208D1012180157C
:100AA000FFF70AFE0021A015FFF706FE25E020480B
:100AB000844209D101210804FFF71EFE00214FF4F2
:100AC0008030FFF719FE18E01A48844209D101214D
:100AD0004804FFF711FE00214FF40030FFF70CFE31
:100AE0000BE01548844208D101218804FFF704FE79
:100AF00000214FF48020FFF7FFFD10BD002C0140C6
:100B00000004004000080040000C004000100040BD
:100B10000014004000340140004C014000500140EE
:100B20000054014000180040001C0040002000401C
:100B300000400140004401400048014070B50024DD
:100B400000220023058C4FF6FE7635400584028C8A
:100B50008388048B4FF68F752C40B51E2C400D8872
:100B60002C43751E2A400D892A434D882A43144D73
:100B7000A8420BD0134DA84208D0134DA84205D06F
:100B8000124DA84202D0124DA84213D14FF6F7756C
:100B90002A404D892A434FF6FB752A408D882A4307
:100BA0004FF6FF652B404FF6FF552B408D892B43A9
:100BB000CD892B4383800483CD888586028470BDD4
:100BC000002C01400034014000400140004401403D
:100BD000004801400A460021018B4FF6F773194087
:100BE000114301837047000070B5002400220023E8
:100BF000058C4FF6EF7635400584028C8388048B94
:100C000048F6FF752C404FF6FF452C400D884FF6F7
:100C1000FF7606EA05252C434FF6DF752A400D893D
:100C200006EA05152A434D8806EA05152A43154D9F
:100C3000A84202D0144DA8421DD14FF67F752A401C
:100C40004D894FF6FF7606EA05152A434FF6BF7524
:100C50002A408D8806EA05152A434FF6FF352B40BA
:100C60004FF2FF752B408D8906EA85052B43CD8910
:100C700006EA85052B4383800483CD88058702849B
:100C800070BD0000002C0140003401400A460021E4
:100C9000018B4FF2FF7319404FF6FF7303EA0223F3
:100CA000194301837047000070B50024002200231F
:100CB000058C4FF6FF6635400584028C8388848B53
:100CC0004FF68F752C404FF6FC752C400D882C4349
:100CD0004FF6FF552A400D894FF6FF7606EA0525A7
:100CE0002A434D8806EA05252A43154DA84202D01D
:100CF000144DA8421DD14FF2FF752A404D894FF681
:100D0000FF7606EA05252A434FF6FF352A408D88EF
:100D100006EA05252A434EF6FF752B404DF6FF7572
:100D20002B408D8906EA05152B43CD8906EA05156A
:100D30002B4383808483CD888587028470BD000027
:100D4000002C0140003401400A460021818B4FF6FF
:100D5000F7731940114381837047000070B500227A
:100D600000230024058C4EF6FF7635400584038C65
:100D70008488828B48F6FF752A404FF6FF452A404B
:100D80000D884FF6FF7606EA05252A434DF6FF75D6
:100D90002B400D8906EA05352B434D8806EA0535BB
:100DA0002B430B4DA84202D00A4DA84208D14BF666
:100DB000FF752C408D894FF6FF7606EA85152C438A
:100DC00084808283CD88A0F84050038470BD0000E9
:100DD000002C0140003401400A460021818B4FF273
:100DE000FF7319404FF6FF7303EA0223194381830F
:100DF0007047818670470187704781877047A0F8E8
:100E000040107047002202881D4B98420ED01D4BA7
:100E100098420BD0B0F1804F08D01B4B984205D0C0
:100E20001A4B984202D01A4B984204D14FF68F7356
:100E30001A404B881A43174B984207D0164B9842DA
:100E400004D04FF6FF431A40CB881A4302808B88A8
:100E500083850B8803850A4B98420BD0094B984237
:100E600008D00E4B984205D00D4B984202D00D4B46
:100E7000984201D10B7A03860123838270470000D8
:100E8000002C0140003401400004004000080040F4
:100E9000000C0040001000400014004000400140E1
:100EA000004401400048014010B586B004460121CD
:100EB0008804FFF7F1FB01210820FFF70DFC4FF438
:100EC0008060ADF8140003208DF8160018208DF80E
:100ED000170005A91848FFF77AF94FF40060ADF83C
:100EE000140004208DF8170005A91348FFF76FF9C7
:100EF00027208DF8000001208DF801008DF80200F8
:100F00008DF803006846FFF77FFA01940020ADF8E2
:100F10000800ADF80A00ADF80C00ADF810000C2088
:100F2000ADF80E0001A9054800F060F80121034862
:100F300000F018F806B010BD000C01400048004059
:100F400010B540F22551064800F025F838B10448A4
:100F500000F0B8F8C4B22146014800F0B8F810BD5E
:100F6000004C004021B1828942F40052828104E0A9
:100F700082894DF6FF731A40828170470246002035
:100F8000B1F5007F00D100BF13880B400BB10120E9
:100F900000E00020704770B50246002400230025C1
:100FA000002040F66A16B14200D100BFC1F34215DD
:100FB00001F01F03012606FA03F3012D02D19689E1
:100FC000334006E0022D02D1168A334001E0968AB2
:100FD00033400C12012606FA04F41688344013B18B
:100FE0000CB1012000E0002070BD00002DE9F047A9
:100FF00086B005460E460024A24600BFA146002743
:10100000B08900B100BF2F462C8A4CF6FF70044017
:10101000F08804432C82AC894EF6F3100440B0886B
:1010200031890843718908430443AC81AC8A4FF687
:10103000FF400440B0890443AC8201A8FFF76CFB79
:101040001F48874202D1DDF810A001E0DDF80CA0B6
:10105000A88900F4004040B10AEBCA0000EB0A1076
:1010600031684900B0FBF1F807E00AEBCA0000EB79
:101070000A1031688900B0FBF1F86420B8FBF0F089
:1010800004012009642101FB1089A88900F40040B3
:1010900040B1322000EBC900B0FBF1F000F00700D6
:1010A000044308E0322000EB09106421B0FBF1F0AA
:1010B00000F00F0004432C8106B0BDE8F08700006B
:1010C0000038014001468888C0F308007047C1F32A
:1010D00008028280704700BFFEE70000014A024913
:1010E00000F013B82D1100081400002002E008C819
:1010F000121F08C1002AFAD170477047002001E092
:1011000001C1121F002AFBD170472DE9F04116469C
:101110000F460446002503E03946B047641C6D1CA9
:1011200020780028F8D12846BDE8F08170B5044643
:101130000D46E1B20548FFF7CAFF00BF4021034852
:10114000FFF71CFF0128F9D1204670BD0048004080
:10115000FFF714F95A210820FFF7D2F95A21092084
:10116000FFF7CEF95A210720FFF7CAF95A210420C8
:10117000FFF7C6F95A210120FFF7C2F95A210A20C8
:10118000FFF7BEF95A210220FFF7BAF95A210320CE
:10119000FFF7B6F900BFFEE7B81100080000002015
:1011A00018000000EC100008D01100081800002002
:1011B00000040000FC10000800000000010203040D
:1011C00001020304060708090204060800000000E3
:0400000508000131BD
:00000001FF
