:020000040800F2
:10000000480400204901000851010008530100087C
:1000100055010008570100085901000800000000C0
:100020000000000000000000000000005B0100086C
:100030005D010008000000005F0100086101000888
:100040006301000863010008630100086301000800
:1000500063010008630100086301000863010008F0
:1000600063010008630100086301000863010008E0
:1000700063010008630100086301000863010008D0
:1000800063010008630100086301000863010008C0
:1000900063010008630100086301000863010008B0
:1000A00063010008630100086301000863010008A0
:1000B0006301000863010008630100086301000890
:1000C0006301000863010008630100086301000880
:1000D0006301000863010008630100086301000870
:1000E0006301000863010008630100086301000860
:1000F0006301000863010008630100086301000850
:10010000630100086301000863010008630100083F
:100110002516000863010008630100086301000858
:10012000630100086301000863010008630100081F
:10013000DFF810D000F038FB00480047592E0008C7
:10014000AFF3008048040020064880470648004777
:10015000FEE7FEE7FEE7FEE7FEE7FEE7FEE7FEE777
:10016000FEE7FEE7C10F0008310100082DE9FE4F50
:10017000804681EA0300C00F0C46009021F0004148
:1001800023F00045B8EB0200A94105D240462146C4
:1001900090461C460B46024623F00040104347D0D1
:1001A000270DC7F30A00C3F30A510290401A0190C9
:1001B00040286BDAC3F3130040F4801B009892468A
:1001C00020B10023D2EB030A63EB0B0B01985946D5
:1001D000C0F14002504600F0C8F906460D465046B0
:1001E0005946019A00F0D0F910EB08006141002453
:1001F00087EA115284EAE7731A4340D0009A62B347
:10020000019A012A4FEA075215DC001B61EB02013B
:100210004FF0004202EA0752CDE90042001C41F5CE
:10022000801132462B4600F0D0F903B0BDE8F08FC4
:1002300040462146F9E7001B61EB0201001C41F535
:10024000801300185B412018A2F5001747EB03014B
:1002500040EAD570B6196D4111E06D084FEA3606D7
:1002600045EAC0754FEA0752001B61EB0201001C12
:1002700041F5801149084FEA3000001951413246DA
:100280002B4603B0BDE8F04F00F090B90098012272
:1002900040000023D0EB020263EBE073009821469C
:1002A0004FEAE074B8EB000061EB0401E9E783F08A
:1002B00000435BE781F0004158E72DE9FE4F81EAFA
:1002C000030404F0004421F0004100944FF0000BBF
:1002D00023F0004350EA01045ED052EA03045BD0ED
:1002E000C3F30A54C1F30A552C44A4F2F334019425
:1002F000A0FB0254C1F3130141F48011C3F31303B3
:1003000043F4801301FB024400FB034E840A970A66
:1003100044EA815447EA8357A4FB076802958D0A93
:1003200005FB07854FEA932C04FB0C542705029D1F
:100330004FEA065847EA1637B5EB08056EEB070C8F
:10034000870E920E47EA811742EA8312A7FB020149
:10035000B6EB0B0164EB00042B0D43EA0C335E1883
:1003600044EB1C50DA465146E7FB0201C5F3130487
:100370004FEA0B3343EA14534FEA0432019C43EA39
:100380000603A4F10C040294009CCDE900B400F033
:100390001CF903B0BDE8F08F00200146F9E72DE914
:1003A000F04D81EA030404F0004B21F000451446AF
:1003B0004FF0000A23F0004150EA050220D054EA31
:1003C00001021DD0C5F30A570246C5F31303C1F35A
:1003D0001300C1F30A5640F4801543F48013A7EBD1
:1003E0000608101BD64608F2FD3873EB050002D351
:1003F00008F1010801E092185B41B8F1000F03DA3F
:1004000000200146BDE8F08D00204FF48011064623
:1004100084460EE0171B73EB050705D3121B63EB35
:10042000050306434CEA010C49084FEA30009218D4
:100430005B4150EA0107EDD152EA030012D082EA93
:10044000040083EA0501084305D0101BAB4106D226
:100450000122002306E000224FF0004302E06FF08B
:10046000010253101AEB06004CEB085110EB0A0086
:1004700041EB0B01BDE8F04D00F098B830B5041E1B
:1004800071F1000404DB4FF00044404264EB0101D1
:10049000141E73F1000405DB1C464FF0004352426A
:1004A00063EB04038B4208BF824230BD30B5041EAB
:1004B00071F1000404DB4FF00044404264EB0101A1
:1004C000141E73F1000405DB1C464FF0004352423A
:1004D00063EB0403994208BF904230BD30B50B4630
:1004E000014600202022012409E021FA02F59D4264
:1004F00005D303FA02F5491B04FA02F52844151E38
:10050000A2F10102F1DC30BD2DE9F05F05460020CB
:1005100092469B4688460646814640241BE0284674
:1005200041464746224600F051F953465A46C01A02
:10053000914110D311461846224600F016F82D1AA4
:1005400067EB01084F4622460120002100F00DF81C
:1005500017EB00094E41201EA4F10104DFDC4846E0
:1005600031462A464346BDE8F09F202A04DB203A64
:1005700000FA02F1002070479140C2F1200320FAF6
:1005800003F3194390407047202A06DBCB17203A2B
:1005900041FA02F043EAE07306E041FA02F3D04088
:1005A000C2F12002914008431946704710B5141E4D
:1005B00073F1000408DA401C41F1000192185B411C
:1005C0001A4301D120F0010010BD2DE9F04D9246F3
:1005D0009B4611B1B1FA81F202E0B0FA80F220320A
:1005E0009046FFF7C2FF04460F4640EA0A0041EA80
:1005F0000B0153465A46084313D0114653EA0100F3
:1006000019D0C8F14002504600F0E0F805460E4609
:10061000504659464246FFF7A8FF084305D001203F
:1006200004E020463946BDE8F08D0020054346EA47
:10063000E0762C4337430A986305E40AA0EB0800F0
:100640000022FD0A44EA47540A3002D50020014640
:10065000E9E7010510196941DDE90845001969411B
:10066000BDE8F04DA2E700002DE9F041054621F07C
:1006700000400C46284309D0C4F30A5040F23341ED
:10068000884205DD28462146BDE8F0812846FBE783
:1006900040F2FE31884210DC0CDB4FEA043040EAC5
:1006A000155050EA053105D0104804F000410143CF
:1006B0000020E9E700200146E6E7A0F23340464289
:1006C000C6F1400228462146FFF74FFF07468846FD
:1006D00028462146324600F079F843463A46FFF76D
:1006E00065FF3246BDE8F041FFF73FBF0000F03F35
:1006F0002DE9FE4FC3F30A5701F000450024C1F372
:100700000A56C3F31303C1F3130143F4801312EB2E
:10071000020AA64641F48011009543EB030CA7F1B1
:10072000010B16E0B0EB0A0061EB0C01071E71F142
:10073000000707DA4FF00008D0EB080085F000450D
:1007400068EB0101171A73EB0107EBD3761E001853
:1007500049415E45F6DA50EA010209D0CDE900E5EB
:10076000002213460296FFF730FF03B0BDE8F08F7A
:1007700020460099F9E7C1F30A52C1F3130140F290
:10078000FF3341F480119A4202DA0020014670479B
:1007900040F233439A42A2F2334202DC524200F06A
:1007A00015B8FFF7E2BE0000064C074D06E0E06812
:1007B00040F0010394E8070098471034AC42F6D3A8
:1007C000FFF7BAFC5836000878360008202A04DB08
:1007D000203A21FA02F00021704721FA02F3D040BA
:1007E000C2F12002914008431946704770B521F0CC
:1007F000004303430CD0C1F30A550024D5EB040594
:1008000064EB0403D617AD1AB34102DB00200146A6
:1008100070BD201841EB025170BD0EB5C10F80EACA
:10082000E0700844CA07002140F233438DE80E000F
:100830000A460B46FFF7C9FE03B000BD0EB540F2F5
:10084000334102910021CDE900110A460B46FFF722
:10085000BCFE03B000BD70B5C1F30A5201F0004503
:100860000024C1F3130140F2FF3341F480119A4296
:1008700001DA002070BD40F233439A42A2F23342C3
:1008800003DC5242FFF7A2FF00E090402C43F1D07E
:10089000404270BD08B50121082000F093FA4FF4E2
:1008A0008070ADF8000010208DF8030003208DF853
:1008B00002006946054800F00DF84FF480710348C6
:1008C00000F0DCF800200249087008BD000C01406F
:1008D000000000202DE9F0410246002500260020FE
:1008E00000230024002791F803C00CF00F0591F8B5
:1008F00003C00CF0100CBCF1000F03D091F802C043
:100900004CEA050591F800C0BCF1000F31D0146825
:1009100000202BE04FF0010C0CFA00F3B1F800C0FE
:100920000CEA03069E4220D183004FF00F0C0CFA14
:1009300003F7BC4305FA03FC4CEA040491F803C036
:10094000BCF1280F06D14FF0010C0CFA00FCC2F8E4
:1009500014C00AE091F803C0BCF1480F05D14FF074
:10096000010C0CFA00FCC2F810C0401C0828D1D3BE
:100970001460B1F800C0BCF1FF0F34DD54680020F2
:100980002EE000F1080C4FF0010808FA0CF3B1F862
:1009900000C00CEA03069E4221D183004FF00F0CE9
:1009A0000CFA03F7BC4305FA03FC4CEA040491F883
:1009B00003C0BCF1280F05D100F1080C08FA0CF8AF
:1009C000C2F8148091F803C0BCF1480F07D100F1C0
:1009D000080C4FF0010808FA0CF8C2F81080401C0F
:1009E0000828CED35460BDE8F0810000F0B50A4677
:1009F000002300240021002500F00046B6F1004F3E
:100A000002D11D4EF16901E01B4E7168C0F3034530
:100A100083B200F44016B6F5401F08D121F0706192
:100A2000154E766826F07066134F7E6012E000F473
:100A30008016B6F5801F06D1032606FA05F4A143F9
:100A400041F0706106E0460D360103FA06F6B14347
:100A500041F0706122B1460D360103FA06F63143CA
:100A600000F00046B6F1004F02D1034EF16101E003
:100A7000014E7160F0BD000000000140416170470F
:100A800010B54FF4E13000F081FD05A000F096FEB6
:100A9000FFF700FF00F0ACF80DA000F08FFE10BDD6
:100AA0005B2E5C757365725C7372635C6D61696EFD
:100AB0002E635D092044454255473A537973746566
:100AC0006D207361747274207570210D0A0000002E
:100AD0005B2E5C757365725C7372635C6D61696ECD
:100AE0002E635D092044454255473A537973746536
:100AF0006D20696E69742066696E6973686564212A
:100B00000D0A000070B5002100230F22C47804B341
:100B1000154C246804F4E064C4F5E064210AC1F1D2
:100B20000403CA40447804FA03F184781440214352
:100B300009010E4C0678A155047804F01F05012424
:100B4000AC4005786D11AD0005F1E025C5F8004118
:100B500009E0047804F01F050124AC40044D067838
:100B6000761145F8264070BD0CED00E000E400E091
:100B700080E100E002490143024A11607047000031
:100B80000000FA050CED00E01CB50121042000F086
:100B900019F90121102000F015F90121084600F093
:100BA00011F90F20ADF8040018208DF8070003207C
:100BB0008DF8060001A90B48FFF78CFE4FF470700A
:100BC000ADF8000018208DF8030003208DF8020016
:100BD00001210548FFF70AFF69460448FFF77AFE3E
:100BE0001CBD000000080140000C1A00001001406C
:100BF00010B5FFF7C9FF00F045F810BD70B5044609
:100C00000D4664206843092190FBF1F044F62C4125
:100C1000081A86B20B2C2FD2DFE804F02E102429FC
:100C20001F2E2E1A060B15003146144800F055FCF5
:100C300022E03146114800F052FC1DE031461048D8
:100C400000F049FC18E031460C4800F04AFC13E083
:100C500031460A4800F03FFC0EE03146084800F0FB
:100C600040FC09E03146064800F037FC04E031461C
:100C7000034800F034FC00BF00BF70BD000400401A
:100C8000000C004000B587B00121022000F07AF886
:100C90000121082000F076F84FF4A060FFF76AFF0A
:100CA000364800F0C9F9364800F0C6F944F61F602E
:100CB000ADF814004720ADF810000020ADF8120088
:100CC000ADF8160004A92D4800F00EFC04A92C482C
:100CD00000F00AFC7020ADF800000020ADF808001C
:100CE0000120ADF802006946254800F099FA082174
:100CF000234800F0E1FA6946214800F0E7FA0821AC
:100D00001F4800F035FB69461D4800F03FFB0821F5
:100D10001B4800F08BFB6946194800F091FB082145
:100D2000174800F0CBFB6946144800F079FA082117
:100D3000124800F0C1FA6946104800F0C7FA0821CD
:100D40000E4800F015FB69460C4800F01FFB082117
:100D50000A4800F06BFB6946084800F071FB082167
:100D6000064800F0ABFB0121044800F059F90121CD
:100D7000034800F055F907B000BD00000004004032
:100D8000000C004029B1064AD2690243044BDA61E3
:100D900004E0034AD2698243014BDA6170470000E4
:100DA0000010024029B1064A12690243044B1A613D
:100DB00004E0034A12698243014B1A617047000044
:100DC0000010024029B1064A92690243044B9A611D
:100DD00004E0034A92698243014B9A617047000024
:100DE0000010024029B1064AD2680243044BDA607F
:100DF00004E0034AD2688243014BDA607047000086
:100E00000010024030B500210022002400232D4DA7
:100E10006D6805F00C0121B1042905D0082923D102
:100E200005E0294D056022E0274D05601FE0254DB6
:100E30006D6805F47012234D6D6805F48034022549
:100E400005EB92421CB9214D554305600BE01D4D49
:100E50006D6805F400351DB11C4D5543056002E079
:100E6000194D5543056002E0174D056000BF00BFF6
:100E7000144D6D6805F0F0010909154D6B5C0568AE
:100E8000DD4045600F4D6D6805F4E061090A104DC5
:100E90006B5C4568DD4085600A4D6D6805F4605106
:100EA000C90A0B4D6B5C4568DD40C560054D6D683A
:100EB00005F44041890B074D6B5CC568B5FBF3F544
:100EC000056130BD0010024000127A0000093D00AB
:100ED0002C0000203C00002010B500F001F810BDEF
:100EE0000CB50020019000903348006840F4803039
:100EF0003149086000BF3048006800F400300090BD
:100F00000198401C0190009818B90198B0F5A06FA5
:100F1000F1D12948006800F4003010B101200090A0
:100F200001E0002000900098012843D12348006888
:100F300040F01000214908600846006820F00300D6
:100F400008600846006840F0020008601A484068DF
:100F5000194948600846406848600846406840F4BF
:100F6000806048600846406820F47C10486008466D
:100F7000406840F4E81048600846006840F080701F
:100F8000086000BF0C48006800F000700028F9D02D
:100F90000948406820F00300074948600846406857
:100FA00040F00200486000BF0348406800F00C00B9
:100FB0000828F9D10CBD00000010024000200240BA
:100FC00010B51348006840F0010011490860084658
:100FD0004068104908400E494860084600680E49BC
:100FE00008400B4908600846006820F4802008602B
:100FF0000846406820F4FE0048604FF41F008860F7
:10100000FFF76AFF4FF000600449086010BD000060
:10101000001002400000FFF8FFFFF6FE08ED00E0C0
:1010200021B1028842F00102028004E002884FF6FA
:10103000FE731A400280704710B504466848844227
:1010400008D10121C014FFF7CDFE0021E014FFF705
:10105000C9FEC4E0B4F1804F08D101210846FFF772
:10106000A1FE00210120FFF79DFEB8E05D4884420B
:1010700008D101210220FFF795FE00210220FFF791
:1010800091FEACE05848844208D101210420FFF7CA
:1010900089FE00210420FFF785FEA0E0534884422A
:1010A00008D101210820FFF77DFE00210820FFF76D
:1010B00079FE94E04E48844208D101211020FFF7C8
:1010C00071FE00211020FFF76DFE88E04948844240
:1010D00008D101212020FFF765FE00212020FFF725
:1010E00061FE7CE04448844208D101214014FFF7AE
:1010F00079FE00216014FFF775FE70E03F488442DE
:1011000009D10121C804FFF76DFE00214FF4002032
:10111000FFF768FE63E03A48844209D101210805DF
:10112000FFF760FE00214FF48010FFF75BFE56E0F2
:101130003448844209D101214805FFF753FE0021BC
:101140004FF40010FFF74EFE49E02F48844208D1CB
:1011500001214020FFF726FE00214020FFF722FE5C
:101160003DE02A48844208D101218020FFF71AFE81
:1011700000218020FFF716FE31E02548844208D187
:1011800001218015FFF70EFE0021A015FFF70AFED2
:1011900025E02048844209D101210804FFF722FEFE
:1011A00000214FF48030FFF71DFE18E01A488442FA
:1011B00009D101214804FFF715FE00214FF400304A
:1011C000FFF710FE0BE01548844208D10121880486
:1011D000FFF708FE00214FF48020FFF703FE10BD4B
:1011E000002C01400004004000080040000C0040BA
:1011F000001000400014004000340140004C014049
:10120000005001400054014000180040001C004004
:1012100000200040004001400044014000480140DF
:1012200070B5002400220023058C4FF6FE76354071
:101230000584028C8388048B4FF68F752C40B51E75
:101240002C400D882C43751E2A400D892A434D8859
:101250002A43144DA8420BD0134DA84208D0134D79
:10126000A84205D0124DA84202D0124DA84213D177
:101270004FF6F7752A404D892A434FF6FB752A40F1
:101280008D882A434FF6FF652B404FF6FF552B40C4
:101290008D892B43CD892B4383800483CD8885861C
:1012A000028470BD002C0140003401400040014028
:1012B00000440140004801400A460021018B4FF6DE
:1012C000F7731940114301837047000070B5002483
:1012D00000220023058C4FF6EF7635400584028C02
:1012E0008388048B48F6FF752C404FF6FF452C4051
:1012F0000D884FF6FF7606EA05252C434FF6DF757D
:101300002A400D8906EA05152A434D8806EA051587
:101310002A43154DA84202D0144DA8421DD14FF6C4
:101320007F752A404D894FF6FF7606EA05152A4358
:101330004FF6BF752A408D8806EA05152A434FF6F9
:10134000FF352B404FF2FF752B408D8906EA85054E
:101350002B43CD8906EA85052B4383800483CD8802
:101360000587028470BD0000002C0140003401405C
:101370000A460021018B4FF2FF7319404FF6FF73AD
:1013800003EA0223194301837047000070B500246B
:1013900000220023058C4FF6FF6635400584028C41
:1013A0008388848B4FF68F752C404FF6FC752C404C
:1013B0000D882C434FF6FF552A400D894FF6FF76D6
:1013C00006EA05252A434D8806EA05252A43154DD8
:1013D000A84202D0144DA8421DD14FF2FF752A40F9
:1013E0004D894FF6FF7606EA05252A434FF6FF356D
:1013F0002A408D8806EA05252A434EF6FF752B40C4
:101400004DF6FF752B408D8906EA05152B43CD89D6
:1014100006EA05152B4383808483CD888587028463
:1014200070BD0000002C0140003401400A4600213C
:10143000818B4FF6F7731940114381837047000089
:1014400070B5002200230024058C4EF6FF7635404F
:101450000584038C8488828B48F6FF752A404FF6FA
:10146000FF452A400D884FF6FF7606EA05252A43F8
:101470004DF6FF752B400D8906EA05352B434D8847
:1014800006EA05352B430B4DA84202D00A4DA8426F
:1014900008D14BF6FF752C408D894FF6FF7606EA92
:1014A00085152C4384808283CD88A0F84050038426
:1014B00070BD0000002C0140003401400A460021AC
:1014C000818B4FF2FF7319404FF6FF7303EA02233B
:1014D00019438183704781867047018770478187F0
:1014E0007047A0F840107047002202881D4B9842B8
:1014F0000ED01D4B98420BD0B0F1804F08D01B4B43
:10150000984205D01A4B984202D01A4B984204D107
:101510004FF68F731A404B881A43174B984207D0E7
:10152000164B984204D04FF6FF431A40CB881A431B
:1015300002808B8883850B8803850A4B98420BD0E9
:10154000094B984208D00E4B984205D00D4B98425B
:1015500002D00D4B984201D10B7A0386012383827E
:1015600070470000002C014000340140000400409E
:1015700000080040000C0040001000400014004033
:1015800000400140004401400048014010B586B0D1
:10159000044601218804FFF7F5FB01210820FFF72D
:1015A00011FC4FF48060ADF8140003208DF8160094
:1015B00018208DF8170005A91848FFF78BF94FF48C
:1015C0000060ADF8140004208DF8170005A9134839
:1015D000FFF780F927208DF8000001208DF8010029
:1015E0008DF802008DF803006846FFF78BFA01942E
:1015F0000020ADF80800ADF80A00ADF80C00ADF819
:1016000010000C20ADF80E0001A9054800F060F8AC
:101610000121034800F018F806B010BD000C01408D
:101620000048004010B540F22551064800F025F86A
:1016300038B1044800F0B8F8C4B22146014800F0BF
:10164000B8F810BD004C004021B1828942F400522C
:10165000828104E082894DF6FF731A4082817047CF
:1016600002460020B1F5007F00D100BF13880B4077
:101670000BB1012000E00020704770B50246002445
:1016800000230025002040F66A16B14200D100BFB9
:10169000C1F3421501F01F03012606FA03F3012DE1
:1016A00002D19689334006E0022D02D1168A3340DA
:1016B00001E0968A33400C12012606FA04F41688DB
:1016C000344013B10CB1012000E0002070BD0000D7
:1016D0002DE9F04786B005460E460024A24600BF1D
:1016E000A1460027B08900B100BF2F462C8A4CF6D6
:1016F000FF700440F08804432C82AC894EF6F3104E
:101700000440B08831890843718908430443AC819F
:10171000AC8A4FF6FF400440B0890443AC8201A874
:10172000FFF770FB1F48874202D1DDF810A001E0EF
:10173000DDF80CA0A88900F4004040B10AEBCA0013
:1017400000EB0A1031684900B0FBF1F807E00AEB42
:10175000CA0000EB0A1031688900B0FBF1F8642080
:10176000B8FBF0F004012009642101FB1089A8896D
:1017700000F4004040B1322000EBC900B0FBF1F0B2
:1017800000F00700044308E0322000EB0910642158
:10179000B0FBF1F000F00F0004432C8106B0BDE86F
:1017A000F08700000038014001468888C0F3080037
:1017B0007047C1F308028280704700000FB4054BE8
:1017C00010B503A9044A029800F034FC10BC5DF87F
:1017D00014FB0000F92C000840000020490050EAEA
:1017E000C12018BF04204A0D18BF40F0010040F28C
:1017F000FF72B2EB515F08BF40F00200012808BF42
:101800000520704713B505490198B1EB400F03D18E
:10181000009808B901201CBD0020FCE70000E0FF93
:1018200013B5DDE900200AB1012200E0002240EA00
:10183000020121F00040024A101AC00F1CBD000036
:101840000000F07F2DE9F74F144694B00021C4E961
:1018500002111599079121F00045C9498D4206DC16
:101860001599C4E9000117B00020BDE8F08FC54903
:10187000DFF814A3A9423CDD0799C44E0029C44FE8
:10188000C44A1599534619DDFEF711FD554506D09A
:10189000C14AC24BFEF70BFDC4E900010AE04FF05C
:1018A000D352BE4BFEF703FD32463B46FEF7FFFC2C
:1018B000C4E9000117B00120BDE8F08FFEF756FC27
:1018C000554506D0B44AB54BFEF750FCC4E90001BB
:1018D0000AE04FF0D352B14BFEF748FC32463B468C
:1018E000FEF744FCC4E9000117B04FF0FF30BDE83B
:1018F000F08FAB49A942159978DB21F0004183466E
:101900008846A84AA84BFEF7D8FC0022A74BFEF752
:101910002DFCFEF7A0FF0990FEF77FFF06460F465D
:101920009C4A5346FEF7C9FC43465A46FEF7C2FCA2
:1019300080468A46984A994B30463946FEF7BDFCA8
:101940002A0D01250B9242465346FEF7B3FC032DA8
:10195000C4E9000139D00B98C1F30A51401A05EBD4
:1019600045111139814230DA9148C346784400EB81
:101970000510CDF80CA00C90D0E900233046394674
:10198000FEF79BFC02460B460491069058460399CD
:10199000FEF78DFC80468A4602460B465846039960
:1019A000FEF785FC049B069AFEF781FC83460C98A3
:1019B00003913946D0E902233046FEF77EFC5A46B1
:1019C000039BFEF774FC6D1CBDE707980028A2BFBF
:1019D000099817B0BDE8F08F616881F0004161603F
:1019E000099817B04042BDE8F08FFFE7844615988C
:1019F000C1F31301C0F30A50A0F2F5304FEA6018AA
:101A000000F01F06C6F120001390002006900790FA
:101A100041F4801E05206D4676B1664A08EB000150
:101A20007A4452F8213002EB8101B3404A6813999D
:101A300022FA01F1194305E05F4908EB00027944FD
:101A400051F82210A1FB0E27A1FB0C131A449A4255
:101A500034BF0123002303EB070A05EB8003D3E91E
:101A600001B70F448F4234BF0121002193448B44BE
:101A700011B1934502D903E0934501D2012100E061
:101A80000021C3E901B7514445F82010011EA0F11F
:101A90000100C1DC0298059F00F10050800F1290F8
:101AA0000298DDE903568000FEF7B7FE834628461C
:101AB0000D91FEF7C3FE6FF01D02FEF797FECDE914
:101AC0000E013046FEF7BAFE6FF03D02FEF78EFEC5
:101AD00080468A463846FEF7B1FE6FF05D02FEF79B
:101AE00085FE0746424653461191FEF73FFBDDE96E
:101AF0000E23FEF73BFB5A460D9BFEF737FB0025F6
:101B00000E465A4628460D9BFEF7D1FBDDE90E2313
:101B1000FEF7CDFB42465346FEF7C9FB3A46119B02
:101B2000FEF7C8FBDFF898A0244A5346FEF7C5FB32
:101B300007468846234A244B31462846FEF7BDFB1C
:101B40003A464346FEF712FB074688464FF0A84246
:101B5000534631462846FEF7B0FB3A464346FEF769
:101B600005FB159A12F0004F04D0129A81F0004143
:101B700052421292C4E90001129817B0BDE8F08FEA
:101B8000FB21E93F7CD90240FB21F93F7370032E12
:101B90008A19A33B000040543163621A61B4D03DFE
:101BA000FB21394183C8C96D305FE43F0000E03F4D
:101BB000F81B0000741B0000561B0000182D445435
:101BC000FB21F93D3326A611460B113C2DE9FF4DB3
:101BD00021F0004807460C46B8F1795F08DAFEF7B5
:101BE0003AFE002801BF0020324904B0BDE8F08D64
:101BF0003A46234610461946FEF75FFB0546024665
:101C00002D480E460B460621784400F05DF82A4622
:101C10003346FEF752FBDDE9022382468B46384607
:101C20002146FEF74AFB04460F4652465B462846CD
:101C30003146FEF742FB22463B46FEF738FB07469D
:101C40008A464FF0FF3228463146FEF7CFFD1B4A49
:101C500090450ADA3A465346FEF729FB04B00022C3
:101C6000BDE8F04D134BFEF725BB154A4245A8BF12
:101C7000A8F500154FF00004B8BF124D22462B46C0
:101C8000FEF715FB0646884622462B4600200949EA
:101C9000FEF70DFB04460D463A4653463046414694
:101CA000FEF705FB04B022462B46BDE8F04DFEF7DB
:101CB00001BB00000000F03F2C1900003333D33F7C
:101CC0000000E93F0000D23F2DE9F0414F1E00EB3C
:101CD000C7010446D1E9000115461E4637F0060249
:101CE0000DD02A463346FEF7E8FA7F1E04EBC70301
:101CF000D3E90023FEF73AFA37F00602F1D1022FBA
:101D000025D0042F13D0062F18BFBDE8F0812A4636
:101D10003346FEF7D2FAD4E90A23FEF727FA2A4619
:101D20003346FEF7CAFAD4E90823FEF71FFA2A461B
:101D30003346FEF7C2FAD4E90623FEF717FA2A461D
:101D40003346FEF7BAFAD4E90423FEF70FFA2A461F
:101D50003346FEF7B2FAD4E90223FEF707FA2A4621
:101D60003346FEF7AAFAD4E90023BDE8F041FEF7B6
:101D7000FDB900002DE9FF4D054621F0004084B07B
:101D80000C46B0F1795F0BDA2846FFF727FD0428EF
:101D900008BF00F06FF8284608B02146BDE8F08D76
:101DA0002A460B461046FEF788FA06460F462A4694
:101DB0002346FEF782FA804626488A4632463B464C
:101DC00005217844FFF780FF83461098029160B3A5
:101DD000214A224B40465146FEF76FFACDE90001F9
:101DE0005A4640465146029BFEF767FA82468846AD
:101DF000DDE906014FF0FF32FEF7F8FC524643469C
:101E0000FEF755FA32463B46FEF757FADDE9062360
:101E1000FEF74DFADDE90023FEF749FA08B02A463D
:101E20002346BDE8F04DFEF745BA0B465A4630460C
:101E30003946FEF742FA084A084BFEF797F9424640
:101E40005346FEF73AFA08B02A462346BDE8F04D5D
:101E5000FEF78CB96A180000495555555555C5BF50
:101E60000122FEF7C3BC0022134610461146FEF7BE
:101E700096BA0000024A00201107FEF7B7BC000026
:101E800001FDFFFF02E008C8121F08C1002AFAD1B5
:101E900070477047002001E001C1121F002AFBD1EA
:101EA00070470000014908607047000044000020AE
:101EB0002DE9FF5F82B00021DDE90430020DDDF87D
:101EC00040B0034318D044F61050A2F2FF32424310
:101ED0001514119801281FD0A5EB0B00401C5FEAD8
:101EE000000A4FF000064E4FDFF83891B0465046DA
:101EF00015D5CAF1000413E0119801244AA3012862
:101F000001D16FEA0B010298119AC0E90031C0E9D2
:101F1000024206B0BDE8F09FCBF10000DFE70446C7
:101F20000021404A491842EB0450CDE9001012E06C
:101F3000E00707D032463B4640464946FEF7BDF92A
:101F40008046894632463B4610461946FEF7B5F9AB
:101F500006460F466410002CEAD1DDE90401DDE9F4
:101F60000023BAF1000F06DAFEF7A7F942464B4606
:101F7000FEF7A3F905E0FEF712FA42464B46FEF7DC
:101F80000EFA04460E460022284BFEF78FFA03D8BD
:101F90004FF0FF30014607E00022254B2046314636
:101FA000FEF7E4F8FEF7E7FB102409E0002C0ADB5B
:101FB0000A220023FEF7A8FA039B30321A55641E4A
:101FC00050EA0102F2D1641C039AC4F111031444D3
:101FD000119A012A03D0012208430DD10AE00843D7
:101FE00004D000204FF0110B119072E7A3EB0B050A
:101FF0006D1E0DE05B4504DD4FF0000205F10105AB
:1020000004E003DA4FF00002A5F10105002AECD04C
:1020100002981199C0E90231C0E9004579E7000052
:10202000000014400000F03F300000000000F043CA
:102030000000E03F2DE9FF4F95B09A4688460646DE
:102040000025EEE1252877D100242746F94A012111
:10205000039400E0044316F8013F203B01FA03F02B
:102060001042F7D130782A2811D06FF02F03307842
:10207000A0F13002092A16D8039A44F0020402EBB8
:10208000820203EB42021044761C0390EFE758F8FB
:10209000042B0392002A03DA504244F400540390C4
:1020A00044F00204761C30782E2816D116F8010F61
:1020B00044F004042A280DD06FF02F023078A0F1EC
:1020C0003003092B09D807EB870302EB4303C7183A
:1020D000761CF3E758F8047B761C30786C280FD018
:1020E00006DC4C2817D068280DD06A2814D104E0EB
:1020F000742810D07A280FD10DE044F400140AE0BF
:1021000044F4801401E044F440147278824202D115
:1021100004F58014761C761C307866280BD013DC0E
:10212000582877D009DC002875D04528F6D04628F5
:10213000F4D047281AD193E118E0632835D06428F9
:1021400079D0652812D18BE1702873D008DC67281C
:10215000F1D069286FD06E280DD06F2806D1ACE081
:1021600073282CD0752874D0782853D052461799EC
:1021700090476D1C54E1C4F30250022809D0032893
:102180000DD0D8F8001004280DD00D6008F1040817
:1021900046E1D8F80010EA17C1E90052F6E7D8F88E
:1021A00000100D80F2E70D70F0E718F8041B8DF8B1
:1021B000001000208DF80100EB46012003E058F8E4
:1021C00004BB4FF0FF3061074FF0000102D40DE077
:1021D00009F101018946B9420FDA8145F8DB1BF8A4
:1021E00009100029F4D108E009F101018946814272
:1021F000FADB1BF809100029F6D103985346A0EB2F
:10220000090721463846179A00F080FA284400EB67
:10221000090507E044E008E10DE01BF8010B524618
:1022200017999047B9F10109F7D25346214638462C
:10223000179AF2E039E00A21C4F302524FF0000B82
:102240000091022A06D058F8040BC117032A09D0BE
:102250000AE023E008F1070020F00702F2E802019B
:10226000904605E000B2C117042A01D140B2C1175F
:10227000002906DA0A460021404261EB02012D22C4
:1022800002E0220504D52B228DF80420012203E070
:10229000E20701D02022F7E7914657E00A2100E04B
:1022A00010214FF0000B00910BE010214FF0000BBC
:1022B00044F004040827009103E008204FF0000BCD
:1022C0000090C4F30252022A05D058F8040B0021F2
:1022D000032A08D008E008F1070020F00702F2E81E
:1022E0000201904603E080B2042A00D1C0B24FF050
:1022F000000922072AD53278702A07D0DDF800C0FD
:102300008CF0100C5CEA0B0C05D00EE040228DF82E
:102310000420012208E050EA010306D030238DF8A2
:1023200004308DF8052002229146009B83F00803BB
:1023300053EA0B030AD150EA010201D1620705D525
:1023400030228DF804204FF001097F1E3278582A80
:1023500004D039A20C920CAA02920BE03BA2F9E73E
:102360005B46009AFEF7D0F80C9B9B5C029A521ECB
:102370000292137050EA0102F2D1029804A9081ADD
:1023800000F1200B600702D524F4803400E001271F
:102390005F4502DDA7EB0B0000E0002000EB0B0126
:1023A000009003984944401A0390E00306D4534632
:1023B0002146179A039800F0A9F90544002706E082
:1023C00001A85246C05D179990476D1C7F1C4F4570
:1023D000F6DBE0030CD553462146179A039800F02C
:1023E00095F9054404E030205246179990476D1C3A
:1023F0000099481E00900029F5DC08E00298029937
:1024000052460078491C0291179990476D1CBBF108
:102410000001ABF1010BF1DC5BE100F065F9054473
:10242000761C307800287FF40DAE19B02846BDE840
:10243000F08F00000928010030313233343536374F
:102440003839616263646566000000003031323300
:1024500034353637383941424344454600000000A0
:10246000600700D4062708F1070020F00700F0E815
:102470000223804603F0004C5FEA0C0001D097A0D5
:1024800009E0200501D596A005E0E00701D095A060
:1024900001E0AFF24C001390307823F00043652840
:1024A0000CD006DC452809D046281DD047287FD10E
:1024B0003BE0662818D067287AD136E00021112F3A
:1024C00001DB112000E0781CCDE9000104A90CA873
:1024D000FFF7EEFCDDE90D010C9A4FF0000B07F160
:1024E0000109109200914EE04FF000400097CDE9B5
:1024F000011004A90CA8FFF7DBFCDDE90D020C9B21
:102500000F994FF0000B91461093009211B9791C6E
:1025100000EB0109B7EB090003D4C0F1FF3B07F161
:102520000109A9EB0700019042E0012F00DA012721
:102530000021112F01DD112000E03846CDE9000116
:1025400004A90CA8FFF7B4FCDDE90D010C9A009179
:102550004FF0000BB946109221070FD4009A4A455C
:1025600003DA914601E0A9F10109B9F1010F05DD96
:10257000109AA9F10101515C3029F4D0B84202DA75
:1025800010F1040F03DA0121CDE9011010E0002859
:1025900003DC8344A9EB000102E0411C494500DD56
:1025A0008946A0EB0B00401C01904FF000400290C8
:1025B000200705D40198484502DB4FF0FF30019019
:1025C00000208DF84B0002980DF14B07B0F1004F41
:1025D00025D002200C902B200D90029800280CDAB8
:1025E000404202902D200D9007E00A210298FDF74D
:1025F00075FF3031029007F8011D0C99481E0C90B0
:102600000029F2DC02980028EFD1791E0D9808709D
:10261000307800F0200040F0450007F8020D11A8C6
:10262000C01BC01D02901398007800B1012000EB80
:102630000901019801EBE071029801440398401AE6
:10264000401E0390E00306D453462146179A039890
:1026500000F05CF805441398007818B152461799B9
:1026600090476D1CE00323D553462146179A0398E3
:1026700000F04CF805441BE0BBF1000F07DB0098AD
:10268000584504DD1098179910F80B0001E01799D0
:1026900030205246904701980BF1010B401E05F186
:1026A0000105019004D12E205246179990476D1CC8
:1026B000B9F10001A9F10109DEDC05E017F8010B11
:1026C0005246179990476D1C0299481E02900029A6
:1026D000F4DC53462146179A03989EE62D0000002D
:1026E0002B000000200000002DE9F04104460025E9
:1026F0001E461746880404D405E039462020B0471A
:102700006D1C641EF9D52846BDE8F0812DE9F04125
:10271000044600251E469046C80301D5302700E038
:102720002027880404D505E041463846B0476D1C93
:10273000641EF9D52846BDE8F08100002DE9F05F60
:102740000446D4E90021104600F0A6FD28B9D4E9DA
:102750000021104600F0ACFD20B1664803C8C4E972
:102760000001C4E00022644BD4E90081404600F03F
:10277000DBFDC4E90001D4E9005121F0004600224C
:102780005E4B28463146FDF791FE1ED200221346CD
:10279000D4E900814046FDF789FE09D20022564B5C
:1027A000D4E900814046FDF782FDC4E9000108E05C
:1027B0000022514BD4E900814046FDF7D7FCC4E923
:1027C0000001D4E9005020F0004600224C4B28467E
:1027D0003146FDF753FE0AD84A4A4B4BD4E90081F3
:1027E0004046FDF76AFDC4E90001002757E00022DA
:1027F000464B28463146FDF741FE28D800221346B5
:10280000D4E900814046FDF751FE0FD20022404B33
:10281000D4E900814046FDF74AFD8246394A3A4BE9
:10282000FDF74BFDC4E90001012738E00022384BD9
:10283000D4E900814046FDF799FC8246314A324B8B
:10284000FDF73BFDC4E900014FF0FF3727E0002210
:102850001346D4E900814046FDF728FE0FD200223E
:10286000264BD4E900814046FDF721FD8246254AEA
:10287000254BFDF722FDC4E9000102270FE00022ED
:102880001E4BD4E900814046FDF770FC82461D4A8C
:102890001D4BFDF712FDC4E900016FF001073FB9C0
:1028A000D4E90021104600F021F9C4E900011EE03E
:1028B000012F09D1D4E90021104600F0B9FD81F0C3
:1028C0000041C4E9000112E0781C38B9D4E90021C4
:1028D000104600F0ADFDC4E9000108E0D4E9002194
:1028E000104600F003F981F00041C4E90001BDE8A1
:1028F000F09F0000180000200080764000806640B5
:1029000000804640399D52A246DF913F00E0604082
:10291000008056402DE9F05F0446D4E900211046BE
:1029200000F0BAFC28B9D4E90021104600F0C0FC40
:1029300020B1664803C8C4E90001C4E00022644B2A
:10294000D4E90081404600F0EFFCC4E90001D4E97D
:10295000005121F0004600225E4B28463146FDF72B
:10296000A5FD1ED200221346D4E900814046FDF7A2
:102970009DFD09D20022564BD4E900814046FDF767
:1029800096FCC4E9000108E00022514BD4E9008123
:102990004046FDF7EBFBC4E90001D4E9005020F00C
:1029A000004600224C4B28463146FDF767FD0AD809
:1029B0004A4A4B4BD4E900814046FDF77EFCC4E90E
:1029C0000001002757E00022464B28463146FDF71C
:1029D00055FD28D800221346D4E900814046FDF772
:1029E00065FD0FD20022404BD4E900814046FDF73F
:1029F0005EFC8246394A3A4BFDF75FFCC4E90001B0
:102A0000012738E00022384BD4E900814046FDF729
:102A1000ADFB8246314A324BFDF74FFCC4E9000161
:102A20004FF0FF3727E000221346D4E900814046EB
:102A3000FDF73CFD0FD20022264BD4E90081404631
:102A4000FDF735FC8246254A254BFDF736FCC4E9E7
:102A5000000102270FE000221E4BD4E9008140460E
:102A6000FDF784FB82461D4A1D4BFDF726FCC4E999
:102A700000016FF001073FB9D4E90021104600F0D2
:102A8000D7FCC4E900011EE0012F07D1D4E90021E1
:102A9000104600F02BF8C4E9000114E0781C48B996
:102AA000D4E90021104600F021F881F00041C4E98A
:102AB000000108E0D4E90021104600F0B9FC81F0E3
:102AC0000041C4E90001BDE8F09F000018000020AB
:102AD000008076400080664000804640399D52A2CA
:102AE00046DF913F00E060400080564000B5244B37
:102AF00021F0004287B09A42DCBF0022134629DD54
:102B0000204B9A4208D140B94FF00100FFF7CAF9B3
:102B1000FFF7A9F907B000BD03DBFFF7A1F907B084
:102B200000BD02AAFEF78EFE10F0030104BF0DF1F6
:102B3000080C9CE80F000DD0012001290ED00229BD
:102B400014D00DF1080C00909CE80F00FFF712F96B
:102B500007B000BDFFF73AF807B000BD0DF1080C53
:102B600000909CE80F00FFF705F905E00DF1080C57
:102B70009CE80F00FFF72AF807B081F0004100BD84
:102B8000FB21E93F0000F07F2DE9F041C1F30A523B
:102B9000A2F2FF362F4A304B0D460446142E2FDA90
:102BA000002E12DAFDF7E2FA00221346FDF77EFC52
:102BB0004CD2002DA4BF0024254647DA25F0004062
:102BC000204318BF254D41D018E0DFF894C02CFAFF
:102BD00006F705EA070C5CEA040C08BFBDE8F081C3
:102BE000FDF7C4FA00221346FDF760FC2ED2002D3B
:102BF00003DA4FF48010F0400544BD43002425E083
:102C0000332EC8BFBDE8F081A6F1140C4FF0FF379A
:102C100027FA0CF73C4208BFBDE8F081FDF74AFBFC
:102C200000221346FDF742FC10D2002D0DDA142EBF
:102C300008BF6D1C09D0C6F13400012101FA00F073
:102C40002044A04238BF6D1C0446BC4329462046A0
:102C5000BDE8F0819C7500883CE4377E0000F0BF41
:102C6000FFFF0F0070B514461D460E46002814BF26
:102C700001210021314321F00041C1F17F6101F1C7
:102C8000E041C90F16D1002C14BF012100212943B6
:102C900021F00041C1F17F6101F1E041C90F09D18B
:102CA0001449B1EB460F08BF00281CD0690008BFCB
:102CB000002C18D03146FDF71BFD024640F2FF7094
:102CC00030EA11500DD0F017B0EBE17F09D0084683
:102CD00065F31E0084460B4620466146FDF7EAFA7E
:102CE0000246104670BD0120FFF7DCF8BDE87040D9
:102CF000FFF7B9B80000E0FF70B504460D46E1B239
:102D00000548FEF756FD00BF40210348FEF7A8FC2A
:102D10000128F9D1204670BD004800402DE9FF4749
:102D20008CB006460F46DDE91B9ADDF86880434803
:102D3000007808B900F086F8CDE90A890AA8FFF7FB
:102D4000E9FDCDE9088908A8FFF7F8FCCDE9066799
:102D500006A8FFF7F3FC3046394600F069FB04464D
:102D60000D46CDE9046704A8FFF7D4FD3046394687
:102D7000FFF7BCFECDE90201DDE90801CAE9000167
:102D8000DDE90A0181F00041CAE908010021CAF821
:102D90004010CAF84410DDE90E01CAE91801DDE966
:102DA0000623DDE90A01FDF788FACAE90201DDE937
:102DB0000623DDE90801FDF780FACAE90A0185F07A
:102DC0000040CAE9124085F00040CDE900402046AD
:102DD000DDE918230199FDF770FACAE91A01DDE966
:102DE0000423DDE90A01FDF768FACAE90401DDE917
:102DF0000423DDE90801FDF760FACAE90C01DDE909
:102E00000201CAE91401DDE91823DDE90201FDF739
:102E100054FACAE91C010021CAF81810CAF81C109B
:102E2000CAF83810CAF83C10CAF85810CAF85C1032
:102E30000348CAE91E1010B0BDE8F0870100002069
:102E40000000F03F10B500F03FFA01200149087082
:102E500010BD000001000020A6B0FDF711FE06A87D
:102E6000002104904648CDE902100A460346CDE908
:102E7000001008464249FFF751FFDDE906432246AC
:102E800040A0FEF79BFCDDE90843224649A0FEF77F
:102E900095FCDDE90A43224652A0FEF78FFCDDE9EE
:102EA0000C4322465BA0FEF789FCDDE90E43224677
:102EB00064A0FEF783FCDDE9104322466DA0FEF717
:102EC0007DFCDDE91243224676A0FEF777FCDDE9C2
:102ED000144322467FA0FEF771FCDDE9164322462B
:102EE00088A0FEF76BFCDDE91843224691A0FEF7AF
:102EF00065FCDDE91A4322469AA0FEF75FFCDDE996
:102F00001C432246A3A0FEF759FCDDE91E432246DE
:102F1000ACA0FEF753FCDDE920432246B5A0FEF746
:102F20004DFCDDE922432246BEA0FEF747FCDDE969
:102F300024432246C7A0FEF741FC1FE05A21082087
:102F4000FDF75CFE5A210920FDF758FE5A210720A3
:102F5000FDF754FE5A210420FDF750FE5A210120AE
:102F6000FDF74CFE5A210A20FDF748FE5A210220A7
:102F7000FDF744FE5A210320FDF740FEDEE7000086
:102F8000000049405B2E5C757365725C7372635C14
:102F90006D61696E2E635D092044454255473A4490
:102FA000485F6D61747269785B305D3D256C660DBC
:102FB0000A0000005B2E5C757365725C7372635C63
:102FC0006D61696E2E635D092044454255473A4460
:102FD000485F6D61747269785B315D3D256C660D8B
:102FE0000A0000005B2E5C757365725C7372635C33
:102FF0006D61696E2E635D092044454255473A4430
:10300000485F6D61747269785B325D3D256C660D59
:103010000A0000005B2E5C757365725C7372635C02
:103020006D61696E2E635D092044454255473A44FF
:10303000485F6D61747269785B335D3D256C660D28
:103040000A0000005B2E5C757365725C7372635CD2
:103050006D61696E2E635D092044454255473A44CF
:10306000485F6D61747269785B345D3D256C660DF7
:103070000A0000005B2E5C757365725C7372635CA2
:103080006D61696E2E635D092044454255473A449F
:10309000485F6D61747269785B355D3D256C660DC6
:1030A0000A0000005B2E5C757365725C7372635C72
:1030B0006D61696E2E635D092044454255473A446F
:1030C000485F6D61747269785B365D3D256C660D95
:1030D0000A0000005B2E5C757365725C7372635C42
:1030E0006D61696E2E635D092044454255473A443F
:1030F000485F6D61747269785B375D3D256C660D64
:103100000A0000005B2E5C757365725C7372635C11
:103110006D61696E2E635D092044454255473A440E
:10312000485F6D61747269785B385D3D256C660D32
:103130000A0000005B2E5C757365725C7372635CE1
:103140006D61696E2E635D092044454255473A44DE
:10315000485F6D61747269785B395D3D256C660D01
:103160000A0000005B2E5C757365725C7372635CB1
:103170006D61696E2E635D092044454255473A44AE
:10318000485F6D61747269785B31305D3D256C66B6
:103190000D0A00005B2E5C757365725C7372635C74
:1031A0006D61696E2E635D092044454255473A447E
:1031B000485F6D61747269785B31315D3D256C6685
:1031C0000D0A00005B2E5C757365725C7372635C44
:1031D0006D61696E2E635D092044454255473A444E
:1031E000485F6D61747269785B31325D3D256C6654
:1031F0000D0A00005B2E5C757365725C7372635C14
:103200006D61696E2E635D092044454255473A441D
:10321000485F6D61747269785B31335D3D256C6622
:103220000D0A00005B2E5C757365725C7372635CE3
:103230006D61696E2E635D092044454255473A44ED
:10324000485F6D61747269785B31345D3D256C66F1
:103250000D0A00005B2E5C757365725C7372635CB3
:103260006D61696E2E635D092044454255473A44BD
:10327000485F6D61747269785B31355D3D256C66C0
:103280000D0A000000200149704700000000F87F8F
:10329000004870470000C07F70B504460D462046C8
:1032A0002946FEF7AFFA08B1012070BD0020FCE707
:1032B00070B504460D4620462946FEF7B1FA08B11E
:1032C000012070BD0020FCE710B50EA0FFF7DAFF6B
:1032D0000D4A03C20BA0FFF7DBFF0C490860002179
:1032E0000B480C4AC2E900104FF0FF400A49086041
:1032F00000210A480A4AC2E90010C00009490860D2
:1033000010BD000000000000180000202800002070
:103310000000F07F08000020200000200000F0FFE7
:1033200010000020240000202DE9F04F89B0044651
:103330000D4616461F4620462946FFF7B9FF48B9F5
:1033400030463946FFF7B4FF20B920462946FFF73B
:10335000A3FF18B13348D0E900895DE03046394613
:10336000FFF79AFF10B1A046A94655E00022134688
:1033700030463946FDF782F846D03046394600F0EF
:10338000A7F832463B46CDE90601FDF777F83BD07A
:1033900032463B4620462946FDF701F821F0004B16
:1033A000824652465B4600201F49FCF786FF0022FA
:1033B0001E4BCDE9060150465946FCF7D7FECDE934
:1033C0000001FFF7E1FB52465B46CDE90201FCF745
:1033D00071FF21F00041CDE90401DDE90623FDF78D
:1033E00065F808D30022134620462946FCF765FFFE
:1033F0008046894610E032463B4620462946FFF784
:1034000031FC8046894607E032463B462046294645
:10341000FFF728FC804689464046494609B0BDE88A
:10342000F08F0000180000200000B03C0000E03FDA
:1034300000B5254B21F0004287B09A4203DC002200
:10344000134600922BE0214B9A4208D140B94FF02D
:103450000100FEF727FDFEF706FD07B000BD03DB08
:10346000FEF7FEFC07B000BD02AAFEF7EBF910F074
:1034700003014FF001000DD0012914D002291AD008
:103480000DF1080C9CE80F00FEF7A0FB07B081F0DF
:10349000004100BD0DF1080C00909CE80F00FEF704
:1034A00069FC07B000BD0DF1080C9CE80F00FEF7A9
:1034B0008DFB07B000BD0DF1080C00909CE80F00DB
:1034C000FEF758FCE2E70000FB21E93F0000F07F37
:1034D0002DE9F04107460E46FDF7C6F804460D46B5
:1034E0003A463346FCF7E6FE114F4FF0000216F065
:1034F000004F13460BD0FCF7D9FF13D200223B46F6
:1035000020462946FCF732FE04460D460AE0FCF749
:10351000B5FF07D200223B4620462946FCF7C7FEEE
:1035200004460D463146204665F31E01BDE8F08194
:103530000000F03F000000004C5555555555A53F83
:103540007751C1166CC156BF9015CB19A001FA3E38
:10355000AD529C804F7E92BEC4B1B4BD9EEE213E62
:10356000D43888BEE9FAA8BD00004054FB21F93FD9
:103570003163621A61B4D03D0000601A61B4D03D7D
:103580007370032E8A19A33B0000002E8A19A33BF7
:10359000C14920259A837B3900000000000000000B
:1035A0006E83F9A22915444ED15727FCC0DD34F5AE
:1035B000999562DB4190433CAB6351FE61C5BBDE34
:1035C0003A6E24B7E0D24D42EA2E49061C92D10948
:1035D0001CEB1DFE3EA729B1F53582E88444BB2EC5
:1035E00026709CE9417E5FB439D69139F439538312
:1035F0008B5F849C3B28F9BDFF97F81F0F9805DE71
:103600008B112FEF1F6D0A5ACF7E366DB709CB276E
:10361000663F464F2DEA5F9EC7BA27757BF1E5EB03
:10362000F739073DEA92528AB15FFB6B085D8D1F47
:10363000A6F810111111813FD561C119A0012ABF4F
:103640007DFEB157E31DC73EEB9C2B8AE6E55ABED3
:103650007CD5CF5A3AD9E53D7836000800000020E5
:1036600048000000841E0008C03600084800002002
:1036700000040000941E000800000000000000008C
:10368000000000000000000000000000000000003A
:10369000000000000000000000000000000000002A
:1036A0000000000000000000010203040102030406
:1036B00006070809020406080000000000000000D8
:0400000508000131BD
:00000001FF
